{
  "_format": "hh-sol-artifact-1",
  "contractName": "axkToken",
  "sourceName": "contracts/axk/axkToken.sol",
  "abi": [
    {
      "inputs": [],
      "stateMutability": "nonpayable",
      "type": "constructor"
    },
    {
      "inputs": [
        {
          "internalType": "address",
          "name": "target",
          "type": "address"
        }
      ],
      "name": "AddressEmptyCode",
      "type": "error"
    },
    {
      "inputs": [],
      "name": "ECDSAInvalidSignature",
      "type": "error"
    },
    {
      "inputs": [
        {
          "internalType": "uint256",
          "name": "length",
          "type": "uint256"
        }
      ],
      "name": "ECDSAInvalidSignatureLength",
      "type": "error"
    },
    {
      "inputs": [
        {
          "internalType": "bytes32",
          "name": "s",
          "type": "bytes32"
        }
      ],
      "name": "ECDSAInvalidSignatureS",
      "type": "error"
    },
    {
      "inputs": [
        {
          "internalType": "address",
          "name": "implementation",
          "type": "address"
        }
      ],
      "name": "ERC1967InvalidImplementation",
      "type": "error"
    },
    {
      "inputs": [],
      "name": "ERC1967NonPayable",
      "type": "error"
    },
    {
      "inputs": [
        {
          "internalType": "uint256",
          "name": "increasedSupply",
          "type": "uint256"
        },
        {
          "internalType": "uint256",
          "name": "cap",
          "type": "uint256"
        }
      ],
      "name": "ERC20ExceededCap",
      "type": "error"
    },
    {
      "inputs": [
        {
          "internalType": "address",
          "name": "spender",
          "type": "address"
        },
        {
          "internalType": "uint256",
          "name": "allowance",
          "type": "uint256"
        },
        {
          "internalType": "uint256",
          "name": "needed",
          "type": "uint256"
        }
      ],
      "name": "ERC20InsufficientAllowance",
      "type": "error"
    },
    {
      "inputs": [
        {
          "internalType": "address",
          "name": "sender",
          "type": "address"
        },
        {
          "internalType": "uint256",
          "name": "balance",
          "type": "uint256"
        },
        {
          "internalType": "uint256",
          "name": "needed",
          "type": "uint256"
        }
      ],
      "name": "ERC20InsufficientBalance",
      "type": "error"
    },
    {
      "inputs": [
        {
          "internalType": "address",
          "name": "approver",
          "type": "address"
        }
      ],
      "name": "ERC20InvalidApprover",
      "type": "error"
    },
    {
      "inputs": [
        {
          "internalType": "uint256",
          "name": "cap",
          "type": "uint256"
        }
      ],
      "name": "ERC20InvalidCap",
      "type": "error"
    },
    {
      "inputs": [
        {
          "internalType": "address",
          "name": "receiver",
          "type": "address"
        }
      ],
      "name": "ERC20InvalidReceiver",
      "type": "error"
    },
    {
      "inputs": [
        {
          "internalType": "address",
          "name": "sender",
          "type": "address"
        }
      ],
      "name": "ERC20InvalidSender",
      "type": "error"
    },
    {
      "inputs": [
        {
          "internalType": "address",
          "name": "spender",
          "type": "address"
        }
      ],
      "name": "ERC20InvalidSpender",
      "type": "error"
    },
    {
      "inputs": [
        {
          "internalType": "uint256",
          "name": "deadline",
          "type": "uint256"
        }
      ],
      "name": "ERC2612ExpiredSignature",
      "type": "error"
    },
    {
      "inputs": [
        {
          "internalType": "address",
          "name": "signer",
          "type": "address"
        },
        {
          "internalType": "address",
          "name": "owner",
          "type": "address"
        }
      ],
      "name": "ERC2612InvalidSigner",
      "type": "error"
    },
    {
      "inputs": [],
      "name": "EnforcedPause",
      "type": "error"
    },
    {
      "inputs": [],
      "name": "ExpectedPause",
      "type": "error"
    },
    {
      "inputs": [],
      "name": "FailedInnerCall",
      "type": "error"
    },
    {
      "inputs": [
        {
          "internalType": "address",
          "name": "account",
          "type": "address"
        },
        {
          "internalType": "uint256",
          "name": "currentNonce",
          "type": "uint256"
        }
      ],
      "name": "InvalidAccountNonce",
      "type": "error"
    },
    {
      "inputs": [],
      "name": "InvalidInitialization",
      "type": "error"
    },
    {
      "inputs": [],
      "name": "NotInitializing",
      "type": "error"
    },
    {
      "inputs": [
        {
          "internalType": "address",
          "name": "owner",
          "type": "address"
        }
      ],
      "name": "OwnableInvalidOwner",
      "type": "error"
    },
    {
      "inputs": [
        {
          "internalType": "address",
          "name": "account",
          "type": "address"
        }
      ],
      "name": "OwnableUnauthorizedAccount",
      "type": "error"
    },
    {
      "inputs": [],
      "name": "UUPSUnauthorizedCallContext",
      "type": "error"
    },
    {
      "inputs": [
        {
          "internalType": "bytes32",
          "name": "slot",
          "type": "bytes32"
        }
      ],
      "name": "UUPSUnsupportedProxiableUUID",
      "type": "error"
    },
    {
      "anonymous": false,
      "inputs": [
        {
          "indexed": true,
          "internalType": "address",
          "name": "owner",
          "type": "address"
        },
        {
          "indexed": true,
          "internalType": "address",
          "name": "spender",
          "type": "address"
        },
        {
          "indexed": false,
          "internalType": "uint256",
          "name": "value",
          "type": "uint256"
        }
      ],
      "name": "Approval",
      "type": "event"
    },
    {
      "anonymous": false,
      "inputs": [],
      "name": "EIP712DomainChanged",
      "type": "event"
    },
    {
      "anonymous": false,
      "inputs": [
        {
          "indexed": false,
          "internalType": "uint64",
          "name": "version",
          "type": "uint64"
        }
      ],
      "name": "Initialized",
      "type": "event"
    },
    {
      "anonymous": false,
      "inputs": [
        {
          "indexed": true,
          "internalType": "address",
          "name": "previousOwner",
          "type": "address"
        },
        {
          "indexed": true,
          "internalType": "address",
          "name": "newOwner",
          "type": "address"
        }
      ],
      "name": "OwnershipTransferred",
      "type": "event"
    },
    {
      "anonymous": false,
      "inputs": [
        {
          "indexed": false,
          "internalType": "address",
          "name": "account",
          "type": "address"
        }
      ],
      "name": "Paused",
      "type": "event"
    },
    {
      "anonymous": false,
      "inputs": [
        {
          "indexed": true,
          "internalType": "address",
          "name": "from",
          "type": "address"
        },
        {
          "indexed": true,
          "internalType": "address",
          "name": "to",
          "type": "address"
        },
        {
          "indexed": false,
          "internalType": "uint256",
          "name": "value",
          "type": "uint256"
        }
      ],
      "name": "Transfer",
      "type": "event"
    },
    {
      "anonymous": false,
      "inputs": [
        {
          "indexed": false,
          "internalType": "address",
          "name": "account",
          "type": "address"
        }
      ],
      "name": "Unpaused",
      "type": "event"
    },
    {
      "anonymous": false,
      "inputs": [
        {
          "indexed": true,
          "internalType": "address",
          "name": "implementation",
          "type": "address"
        }
      ],
      "name": "Upgraded",
      "type": "event"
    },
    {
      "inputs": [],
      "name": "DOMAIN_SEPARATOR",
      "outputs": [
        {
          "internalType": "bytes32",
          "name": "",
          "type": "bytes32"
        }
      ],
      "stateMutability": "view",
      "type": "function"
    },
    {
      "inputs": [],
      "name": "UPGRADE_INTERFACE_VERSION",
      "outputs": [
        {
          "internalType": "string",
          "name": "",
          "type": "string"
        }
      ],
      "stateMutability": "view",
      "type": "function"
    },
    {
      "inputs": [
        {
          "internalType": "address",
          "name": "owner",
          "type": "address"
        },
        {
          "internalType": "address",
          "name": "spender",
          "type": "address"
        }
      ],
      "name": "allowance",
      "outputs": [
        {
          "internalType": "uint256",
          "name": "",
          "type": "uint256"
        }
      ],
      "stateMutability": "view",
      "type": "function"
    },
    {
      "inputs": [
        {
          "internalType": "address",
          "name": "spender",
          "type": "address"
        },
        {
          "internalType": "uint256",
          "name": "value",
          "type": "uint256"
        }
      ],
      "name": "approve",
      "outputs": [
        {
          "internalType": "bool",
          "name": "",
          "type": "bool"
        }
      ],
      "stateMutability": "nonpayable",
      "type": "function"
    },
    {
      "inputs": [
        {
          "internalType": "address",
          "name": "account",
          "type": "address"
        }
      ],
      "name": "balanceOf",
      "outputs": [
        {
          "internalType": "uint256",
          "name": "",
          "type": "uint256"
        }
      ],
      "stateMutability": "view",
      "type": "function"
    },
    {
      "inputs": [],
      "name": "cap",
      "outputs": [
        {
          "internalType": "uint256",
          "name": "",
          "type": "uint256"
        }
      ],
      "stateMutability": "view",
      "type": "function"
    },
    {
      "inputs": [],
      "name": "decimals",
      "outputs": [
        {
          "internalType": "uint8",
          "name": "",
          "type": "uint8"
        }
      ],
      "stateMutability": "view",
      "type": "function"
    },
    {
      "inputs": [],
      "name": "eip712Domain",
      "outputs": [
        {
          "internalType": "bytes1",
          "name": "fields",
          "type": "bytes1"
        },
        {
          "internalType": "string",
          "name": "name",
          "type": "string"
        },
        {
          "internalType": "string",
          "name": "version",
          "type": "string"
        },
        {
          "internalType": "uint256",
          "name": "chainId",
          "type": "uint256"
        },
        {
          "internalType": "address",
          "name": "verifyingContract",
          "type": "address"
        },
        {
          "internalType": "bytes32",
          "name": "salt",
          "type": "bytes32"
        },
        {
          "internalType": "uint256[]",
          "name": "extensions",
          "type": "uint256[]"
        }
      ],
      "stateMutability": "view",
      "type": "function"
    },
    {
      "inputs": [
        {
          "internalType": "address",
          "name": "initialOwner",
          "type": "address"
        }
      ],
      "name": "initialize",
      "outputs": [],
      "stateMutability": "nonpayable",
      "type": "function"
    },
    {
      "inputs": [
        {
          "internalType": "address",
          "name": "to",
          "type": "address"
        },
        {
          "internalType": "uint256",
          "name": "amount",
          "type": "uint256"
        }
      ],
      "name": "mint",
      "outputs": [],
      "stateMutability": "nonpayable",
      "type": "function"
    },
    {
      "inputs": [],
      "name": "name",
      "outputs": [
        {
          "internalType": "string",
          "name": "",
          "type": "string"
        }
      ],
      "stateMutability": "view",
      "type": "function"
    },
    {
      "inputs": [
        {
          "internalType": "address",
          "name": "owner",
          "type": "address"
        }
      ],
      "name": "nonces",
      "outputs": [
        {
          "internalType": "uint256",
          "name": "",
          "type": "uint256"
        }
      ],
      "stateMutability": "view",
      "type": "function"
    },
    {
      "inputs": [],
      "name": "owner",
      "outputs": [
        {
          "internalType": "address",
          "name": "",
          "type": "address"
        }
      ],
      "stateMutability": "view",
      "type": "function"
    },
    {
      "inputs": [],
      "name": "pause",
      "outputs": [],
      "stateMutability": "nonpayable",
      "type": "function"
    },
    {
      "inputs": [],
      "name": "paused",
      "outputs": [
        {
          "internalType": "bool",
          "name": "",
          "type": "bool"
        }
      ],
      "stateMutability": "view",
      "type": "function"
    },
    {
      "inputs": [
        {
          "internalType": "address",
          "name": "owner",
          "type": "address"
        },
        {
          "internalType": "address",
          "name": "spender",
          "type": "address"
        },
        {
          "internalType": "uint256",
          "name": "value",
          "type": "uint256"
        },
        {
          "internalType": "uint256",
          "name": "deadline",
          "type": "uint256"
        },
        {
          "internalType": "uint8",
          "name": "v",
          "type": "uint8"
        },
        {
          "internalType": "bytes32",
          "name": "r",
          "type": "bytes32"
        },
        {
          "internalType": "bytes32",
          "name": "s",
          "type": "bytes32"
        }
      ],
      "name": "permit",
      "outputs": [],
      "stateMutability": "nonpayable",
      "type": "function"
    },
    {
      "inputs": [],
      "name": "proxiableUUID",
      "outputs": [
        {
          "internalType": "bytes32",
          "name": "",
          "type": "bytes32"
        }
      ],
      "stateMutability": "view",
      "type": "function"
    },
    {
      "inputs": [],
      "name": "renounceOwnership",
      "outputs": [],
      "stateMutability": "nonpayable",
      "type": "function"
    },
    {
      "inputs": [],
      "name": "symbol",
      "outputs": [
        {
          "internalType": "string",
          "name": "",
          "type": "string"
        }
      ],
      "stateMutability": "view",
      "type": "function"
    },
    {
      "inputs": [],
      "name": "totalSupply",
      "outputs": [
        {
          "internalType": "uint256",
          "name": "",
          "type": "uint256"
        }
      ],
      "stateMutability": "view",
      "type": "function"
    },
    {
      "inputs": [
        {
          "internalType": "address",
          "name": "to",
          "type": "address"
        },
        {
          "internalType": "uint256",
          "name": "value",
          "type": "uint256"
        }
      ],
      "name": "transfer",
      "outputs": [
        {
          "internalType": "bool",
          "name": "",
          "type": "bool"
        }
      ],
      "stateMutability": "nonpayable",
      "type": "function"
    },
    {
      "inputs": [
        {
          "internalType": "address",
          "name": "from",
          "type": "address"
        },
        {
          "internalType": "address",
          "name": "to",
          "type": "address"
        },
        {
          "internalType": "uint256",
          "name": "value",
          "type": "uint256"
        }
      ],
      "name": "transferFrom",
      "outputs": [
        {
          "internalType": "bool",
          "name": "",
          "type": "bool"
        }
      ],
      "stateMutability": "nonpayable",
      "type": "function"
    },
    {
      "inputs": [
        {
          "internalType": "address",
          "name": "newOwner",
          "type": "address"
        }
      ],
      "name": "transferOwnership",
      "outputs": [],
      "stateMutability": "nonpayable",
      "type": "function"
    },
    {
      "inputs": [],
      "name": "unpause",
      "outputs": [],
      "stateMutability": "nonpayable",
      "type": "function"
    },
    {
      "inputs": [
        {
          "internalType": "address",
          "name": "newImplementation",
          "type": "address"
        },
        {
          "internalType": "bytes",
          "name": "data",
          "type": "bytes"
        }
      ],
      "name": "upgradeToAndCall",
      "outputs": [],
      "stateMutability": "payable",
      "type": "function"
    }
  ],
  "bytecode": "0x60a06040523073ffffffffffffffffffffffffffffffffffffffff1660809073ffffffffffffffffffffffffffffffffffffffff168152503480156200004457600080fd5b50620000556200005b60201b60201c565b620001cf565b60006200006d6200016560201b60201c565b90508060000160089054906101000a900460ff1615620000b9576040517ff92ee8a900000000000000000000000000000000000000000000000000000000815260040160405180910390fd5b67ffffffffffffffff80168160000160009054906101000a900467ffffffffffffffff1667ffffffffffffffff1614620001625767ffffffffffffffff8160000160006101000a81548167ffffffffffffffff021916908367ffffffffffffffff1602179055507fc7f505b2f371ae2175ee4913f4499e1f2633a7b5936321eed1cdaeb6115181d267ffffffffffffffff604051620001599190620001b2565b60405180910390a15b50565b60007ff0c57e16840df040f15088dc2f81fe391c3923bec73e23a9662efc9c229c6a00905090565b600067ffffffffffffffff82169050919050565b620001ac816200018d565b82525050565b6000602082019050620001c96000830184620001a1565b92915050565b60805161391a620001f9600039600081816112cb0152818161132001526114db015261391a6000f3fe6080604052600436106101665760003560e01c806370a08231116100d157806395d89b411161008a578063c4d66de811610064578063c4d66de814610505578063d505accf1461052e578063dd62ed3e14610557578063f2fde38b1461059457610166565b806395d89b4114610472578063a9059cbb1461049d578063ad3cb1cc146104da57610166565b806370a082311461036e578063715018a6146103ab5780637ecebe00146103c25780638456cb59146103ff57806384b0196e146104165780638da5cb5b1461044757610166565b80633644e515116101235780633644e515146102915780633f4ba83a146102bc57806340c10f19146102d35780634f1ef286146102fc57806352d1902d146103185780635c975abb1461034357610166565b806306fdde031461016b578063095ea7b31461019657806318160ddd146101d357806323b872dd146101fe578063313ce5671461023b578063355274ea14610266575b600080fd5b34801561017757600080fd5b506101806105bd565b60405161018d919061299f565b60405180910390f35b3480156101a257600080fd5b506101bd60048036038101906101b89190612a69565b61065e565b6040516101ca9190612ac4565b60405180910390f35b3480156101df57600080fd5b506101e8610681565b6040516101f59190612aee565b60405180910390f35b34801561020a57600080fd5b5061022560048036038101906102209190612b09565b610699565b6040516102329190612ac4565b60405180910390f35b34801561024757600080fd5b506102506106c8565b60405161025d9190612b78565b60405180910390f35b34801561027257600080fd5b5061027b6106d1565b6040516102889190612aee565b60405180910390f35b34801561029d57600080fd5b506102a66106e9565b6040516102b39190612bac565b60405180910390f35b3480156102c857600080fd5b506102d16106f8565b005b3480156102df57600080fd5b506102fa60048036038101906102f59190612a69565b61070a565b005b61031660048036038101906103119190612cfc565b610720565b005b34801561032457600080fd5b5061032d61073f565b60405161033a9190612bac565b60405180910390f35b34801561034f57600080fd5b50610358610772565b6040516103659190612ac4565b60405180910390f35b34801561037a57600080fd5b5061039560048036038101906103909190612d58565b610797565b6040516103a29190612aee565b60405180910390f35b3480156103b757600080fd5b506103c06107ee565b005b3480156103ce57600080fd5b506103e960048036038101906103e49190612d58565b610802565b6040516103f69190612aee565b60405180910390f35b34801561040b57600080fd5b50610414610814565b005b34801561042257600080fd5b5061042b610826565b60405161043e9796959493929190612e8d565b60405180910390f35b34801561045357600080fd5b5061045c610938565b6040516104699190612f11565b60405180910390f35b34801561047e57600080fd5b50610487610970565b604051610494919061299f565b60405180910390f35b3480156104a957600080fd5b506104c460048036038101906104bf9190612a69565b610a11565b6040516104d19190612ac4565b60405180910390f35b3480156104e657600080fd5b506104ef610a34565b6040516104fc919061299f565b60405180910390f35b34801561051157600080fd5b5061052c60048036038101906105279190612d58565b610a6d565b005b34801561053a57600080fd5b5061055560048036038101906105509190612f84565b610cea565b005b34801561056357600080fd5b5061057e60048036038101906105799190613026565b610e32565b60405161058b9190612aee565b60405180910390f35b3480156105a057600080fd5b506105bb60048036038101906105b69190612d58565b610ec7565b005b606060006105c9610f4d565b90508060030180546105da90613095565b80601f016020809104026020016040519081016040528092919081815260200182805461060690613095565b80156106535780601f1061062857610100808354040283529160200191610653565b820191906000526020600020905b81548152906001019060200180831161063657829003601f168201915b505050505091505090565b600080610669610f75565b9050610676818585610f7d565b600191505092915050565b60008061068c610f4d565b9050806002015491505090565b6000806106a4610f75565b90506106b1858285610f8f565b6106bc858585611023565b60019150509392505050565b60006012905090565b6000806106dc611117565b9050806000015491505090565b60006106f361113f565b905090565b61070061114e565b6107086111d5565b565b61071261114e565b61071c8282611247565b5050565b6107286112c9565b610731826113af565b61073b82826113ba565b5050565b60006107496114d9565b7f360894a13ba1a3210667c828492db98dca3e2076cc3735a920a3ca505d382bbc60001b905090565b60008061077d611560565b90508060000160009054906101000a900460ff1691505090565b6000806107a2610f4d565b90508060000160008473ffffffffffffffffffffffffffffffffffffffff1673ffffffffffffffffffffffffffffffffffffffff16815260200190815260200160002054915050919050565b6107f661114e565b6108006000611588565b565b600061080d8261165f565b9050919050565b61081c61114e565b6108246116b6565b565b600060608060008060006060600061083c611728565b90506000801b816000015414801561085a57506000801b8160010154145b610899576040517f08c379a000000000000000000000000000000000000000000000000000000000815260040161089090613112565b60405180910390fd5b6108a1611750565b6108a96117f1565b46306000801b600067ffffffffffffffff8111156108ca576108c9612bd1565b5b6040519080825280602002602001820160405280156108f85781602001602082028036833780820191505090505b507f0f0000000000000000000000000000000000000000000000000000000000000095949392919097509750975097509750975097505090919293949596565b600080610943611892565b90508060000160009054906101000a900473ffffffffffffffffffffffffffffffffffffffff1691505090565b6060600061097c610f4d565b905080600401805461098d90613095565b80601f01602080910402602001604051908101604052809291908181526020018280546109b990613095565b8015610a065780601f106109db57610100808354040283529160200191610a06565b820191906000526020600020905b8154815290600101906020018083116109e957829003601f168201915b505050505091505090565b600080610a1c610f75565b9050610a29818585611023565b600191505092915050565b6040518060400160405280600581526020017f352e302e3000000000000000000000000000000000000000000000000000000081525081565b6000610a776118ba565b905060008160000160089054906101000a900460ff1615905060008260000160009054906101000a900467ffffffffffffffff1690506000808267ffffffffffffffff16148015610ac55750825b9050600060018367ffffffffffffffff16148015610afa575060003073ffffffffffffffffffffffffffffffffffffffff163b145b905081158015610b08575080155b15610b3f576040517ff92ee8a900000000000000000000000000000000000000000000000000000000815260040160405180910390fd5b60018560000160006101000a81548167ffffffffffffffff021916908367ffffffffffffffff1602179055508315610b8f5760018560000160086101000a81548160ff0219169083151502179055505b610c036040518060400160405280600981526020017f41784b20546f6b656e00000000000000000000000000000000000000000000008152506040518060400160405280600381526020017f41584b00000000000000000000000000000000000000000000000000000000008152506118e2565b610c2f610c0e6106c8565b600a610c1a9190613294565b64ba43b74000610c2a91906132df565b6118f8565b610c3761190c565b610c408661191e565b610c7e6040518060400160405280600381526020017f41584b0000000000000000000000000000000000000000000000000000000000815250611932565b610c8661197c565b8315610ce25760008560000160086101000a81548160ff0219169083151502179055507fc7f505b2f371ae2175ee4913f4499e1f2633a7b5936321eed1cdaeb6115181d26001604051610cd9919061337a565b60405180910390a15b505050505050565b83421115610d2f57836040517f62791302000000000000000000000000000000000000000000000000000000008152600401610d269190612aee565b60405180910390fd5b60007f6e71edae12b1b97f4d1f60370fef10105fa2faae0126114a169c64845d6126c9888888610d5e8c611986565b89604051602001610d7496959493929190613395565b6040516020818303038152906040528051906020012090506000610d97826119eb565b90506000610da782878787611a05565b90508973ffffffffffffffffffffffffffffffffffffffff168173ffffffffffffffffffffffffffffffffffffffff1614610e1b57808a6040517f4b800e46000000000000000000000000000000000000000000000000000000008152600401610e129291906133f6565b60405180910390fd5b610e268a8a8a610f7d565b50505050505050505050565b600080610e3d610f4d565b90508060010160008573ffffffffffffffffffffffffffffffffffffffff1673ffffffffffffffffffffffffffffffffffffffff16815260200190815260200160002060008473ffffffffffffffffffffffffffffffffffffffff1673ffffffffffffffffffffffffffffffffffffffff1681526020019081526020016000205491505092915050565b610ecf61114e565b600073ffffffffffffffffffffffffffffffffffffffff168173ffffffffffffffffffffffffffffffffffffffff1603610f415760006040517f1e4fbdf7000000000000000000000000000000000000000000000000000000008152600401610f389190612f11565b60405180910390fd5b610f4a81611588565b50565b60007f52c63247e1f47db19d5ce0460030c497f067ca4cebf71ba98eeadabe20bace00905090565b600033905090565b610f8a8383836001611a35565b505050565b6000610f9b8484610e32565b90507fffffffffffffffffffffffffffffffffffffffffffffffffffffffffffffffff811461101d578181101561100d578281836040517ffb8f41b20000000000000000000000000000000000000000000000000000000081526004016110049392919061341f565b60405180910390fd5b61101c84848484036000611a35565b5b50505050565b600073ffffffffffffffffffffffffffffffffffffffff168373ffffffffffffffffffffffffffffffffffffffff16036110955760006040517f96c6fd1e00000000000000000000000000000000000000000000000000000000815260040161108c9190612f11565b60405180910390fd5b600073ffffffffffffffffffffffffffffffffffffffff168273ffffffffffffffffffffffffffffffffffffffff16036111075760006040517fec442f050000000000000000000000000000000000000000000000000000000081526004016110fe9190612f11565b60405180910390fd5b611112838383611c1b565b505050565b60007f0f070392f17d5f958cc1ac31867dabecfc5c9758b4a419a200803226d7155d00905090565b6000611149611c2b565b905090565b611156610f75565b73ffffffffffffffffffffffffffffffffffffffff16611174610938565b73ffffffffffffffffffffffffffffffffffffffff16146111d357611197610f75565b6040517f118cdaa70000000000000000000000000000000000000000000000000000000081526004016111ca9190612f11565b60405180910390fd5b565b6111dd611c8f565b60006111e7611560565b905060008160000160006101000a81548160ff0219169083151502179055507f5db9ee0a495bf2e6ff9c91a7834c1ba4fdd244a5e8aa4e537bd38aeae4b073aa61122f610f75565b60405161123c9190612f11565b60405180910390a150565b600073ffffffffffffffffffffffffffffffffffffffff168273ffffffffffffffffffffffffffffffffffffffff16036112b95760006040517fec442f050000000000000000000000000000000000000000000000000000000081526004016112b09190612f11565b60405180910390fd5b6112c560008383611c1b565b5050565b7f000000000000000000000000000000000000000000000000000000000000000073ffffffffffffffffffffffffffffffffffffffff163073ffffffffffffffffffffffffffffffffffffffff16148061137657507f000000000000000000000000000000000000000000000000000000000000000073ffffffffffffffffffffffffffffffffffffffff1661135d611ccf565b73ffffffffffffffffffffffffffffffffffffffff1614155b156113ad576040517fe07c8dba00000000000000000000000000000000000000000000000000000000815260040160405180910390fd5b565b6113b761114e565b50565b8173ffffffffffffffffffffffffffffffffffffffff166352d1902d6040518163ffffffff1660e01b8152600401602060405180830381865afa92505050801561142257506040513d601f19601f8201168201806040525081019061141f919061346b565b60015b61146357816040517f4c9c8ce300000000000000000000000000000000000000000000000000000000815260040161145a9190612f11565b60405180910390fd5b7f360894a13ba1a3210667c828492db98dca3e2076cc3735a920a3ca505d382bbc60001b81146114ca57806040517faa1d49a40000000000000000000000000000000000000000000000000000000081526004016114c19190612bac565b60405180910390fd5b6114d48383611d26565b505050565b7f000000000000000000000000000000000000000000000000000000000000000073ffffffffffffffffffffffffffffffffffffffff163073ffffffffffffffffffffffffffffffffffffffff161461155e576040517fe07c8dba00000000000000000000000000000000000000000000000000000000815260040160405180910390fd5b565b60007fcd5ed15c6e187e77e9aee88184c21f4f2182ab5827cb3b7e07fbedcd63f03300905090565b6000611592611892565b905060008160000160009054906101000a900473ffffffffffffffffffffffffffffffffffffffff169050828260000160006101000a81548173ffffffffffffffffffffffffffffffffffffffff021916908373ffffffffffffffffffffffffffffffffffffffff1602179055508273ffffffffffffffffffffffffffffffffffffffff168173ffffffffffffffffffffffffffffffffffffffff167f8be0079c531659141344cd1fd0a4f28419497f9722a3daafe3b4186f6b6457e060405160405180910390a3505050565b60008061166a611d99565b90508060000160008473ffffffffffffffffffffffffffffffffffffffff1673ffffffffffffffffffffffffffffffffffffffff16815260200190815260200160002054915050919050565b6116be611dc1565b60006116c8611560565b905060018160000160006101000a81548160ff0219169083151502179055507f62e78cea01bee320cd4e420270b5ea74000d11b0c9f74754ebdbfc544b05a258611710610f75565b60405161171d9190612f11565b60405180910390a150565b60007fa16a46d94261c7517cc8ff89f61c0ce93598e3c849801011dee649a6a557d100905090565b6060600061175c611728565b905080600201805461176d90613095565b80601f016020809104026020016040519081016040528092919081815260200182805461179990613095565b80156117e65780601f106117bb576101008083540402835291602001916117e6565b820191906000526020600020905b8154815290600101906020018083116117c957829003601f168201915b505050505091505090565b606060006117fd611728565b905080600301805461180e90613095565b80601f016020809104026020016040519081016040528092919081815260200182805461183a90613095565b80156118875780601f1061185c57610100808354040283529160200191611887565b820191906000526020600020905b81548152906001019060200180831161186a57829003601f168201915b505050505091505090565b60007f9016d09d72d40fdae2fd8ceac6b6234c7706214fd39c1cd1e609a0528c199300905090565b60007ff0c57e16840df040f15088dc2f81fe391c3923bec73e23a9662efc9c229c6a00905090565b6118ea611e02565b6118f48282611e42565b5050565b611900611e02565b61190981611e7f565b50565b611914611e02565b61191c611ee6565b565b611926611e02565b61192f81611f1a565b50565b61193a611e02565b611979816040518060400160405280600181526020017f3100000000000000000000000000000000000000000000000000000000000000815250611fa0565b50565b611984611e02565b565b600080611991611d99565b90508060000160008473ffffffffffffffffffffffffffffffffffffffff1673ffffffffffffffffffffffffffffffffffffffff168152602001908152602001600020600081548092919060010191905055915050919050565b60006119fe6119f861113f565b83611ff5565b9050919050565b600080600080611a1788888888612036565b925092509250611a27828261212a565b829350505050949350505050565b6000611a3f610f4d565b9050600073ffffffffffffffffffffffffffffffffffffffff168573ffffffffffffffffffffffffffffffffffffffff1603611ab35760006040517fe602df05000000000000000000000000000000000000000000000000000000008152600401611aaa9190612f11565b60405180910390fd5b600073ffffffffffffffffffffffffffffffffffffffff168473ffffffffffffffffffffffffffffffffffffffff1603611b255760006040517f94280d62000000000000000000000000000000000000000000000000000000008152600401611b1c9190612f11565b60405180910390fd5b828160010160008773ffffffffffffffffffffffffffffffffffffffff1673ffffffffffffffffffffffffffffffffffffffff16815260200190815260200160002060008673ffffffffffffffffffffffffffffffffffffffff1673ffffffffffffffffffffffffffffffffffffffff168152602001908152602001600020819055508115611c14578373ffffffffffffffffffffffffffffffffffffffff168573ffffffffffffffffffffffffffffffffffffffff167f8c5be1e5ebec7d5bd14f71427d1e84f3dd0314c0f7b2291e5b200ac8c7c3b92585604051611c0b9190612aee565b60405180910390a35b5050505050565b611c2683838361228e565b505050565b60007f8b73c3c69bb8fe3d512ecc4cf759cc79239f7b179b0ffacaa9a75d522b39400f611c56612334565b611c5e6123b0565b4630604051602001611c74959493929190613498565b60405160208183030381529060405280519060200120905090565b611c97610772565b611ccd576040517f8dfc202b00000000000000000000000000000000000000000000000000000000815260040160405180910390fd5b565b6000611cfd7f360894a13ba1a3210667c828492db98dca3e2076cc3735a920a3ca505d382bbc60001b61242c565b60000160009054906101000a900473ffffffffffffffffffffffffffffffffffffffff16905090565b611d2f82612436565b8173ffffffffffffffffffffffffffffffffffffffff167fbc7cd75a20ee27fd9adebab32041f755214dbc6bffa90cc0225b39da2e5c2d3b60405160405180910390a2600081511115611d8c57611d868282612503565b50611d95565b611d94612587565b5b5050565b60007f5ab42ced628888259c08ac98db1eb0cf702fc1501344311d8b100cd1bfe4bb00905090565b611dc9610772565b15611e00576040517fd93c066500000000000000000000000000000000000000000000000000000000815260040160405180910390fd5b565b611e0a6125c4565b611e40576040517fd7e6bcf800000000000000000000000000000000000000000000000000000000815260040160405180910390fd5b565b611e4a611e02565b6000611e54610f4d565b905082816003019081611e67919061368d565b5081816004019081611e79919061368d565b50505050565b611e87611e02565b6000611e91611117565b905060008203611ed95760006040517f392e1e27000000000000000000000000000000000000000000000000000000008152600401611ed0919061379a565b60405180910390fd5b8181600001819055505050565b611eee611e02565b6000611ef8611560565b905060008160000160006101000a81548160ff02191690831515021790555050565b611f22611e02565b600073ffffffffffffffffffffffffffffffffffffffff168173ffffffffffffffffffffffffffffffffffffffff1603611f945760006040517f1e4fbdf7000000000000000000000000000000000000000000000000000000008152600401611f8b9190612f11565b60405180910390fd5b611f9d81611588565b50565b611fa8611e02565b6000611fb2611728565b905082816002019081611fc5919061368d565b5081816003019081611fd7919061368d565b506000801b81600001819055506000801b8160010181905550505050565b60006040517f190100000000000000000000000000000000000000000000000000000000000081528360028201528260228201526042812091505092915050565b60008060007f7fffffffffffffffffffffffffffffff5d576e7357a4501ddfe92f46681b20a08460001c1115612076576000600385925092509250612120565b60006001888888886040516000815260200160405260405161209b94939291906137b5565b6020604051602081039080840390855afa1580156120bd573d6000803e3d6000fd5b505050602060405103519050600073ffffffffffffffffffffffffffffffffffffffff168173ffffffffffffffffffffffffffffffffffffffff160361211157600060016000801b93509350935050612120565b8060008060001b935093509350505b9450945094915050565b6000600381111561213e5761213d6137fa565b5b826003811115612151576121506137fa565b5b031561228a576001600381111561216b5761216a6137fa565b5b82600381111561217e5761217d6137fa565b5b036121b5576040517ff645eedf00000000000000000000000000000000000000000000000000000000815260040160405180910390fd5b600260038111156121c9576121c86137fa565b5b8260038111156121dc576121db6137fa565b5b03612221578060001c6040517ffce698f70000000000000000000000000000000000000000000000000000000081526004016122189190612aee565b60405180910390fd5b600380811115612234576122336137fa565b5b826003811115612247576122466137fa565b5b0361228957806040517fd78bce0c0000000000000000000000000000000000000000000000000000000081526004016122809190612bac565b60405180910390fd5b5b5050565b6122998383836125e4565b600073ffffffffffffffffffffffffffffffffffffffff168373ffffffffffffffffffffffffffffffffffffffff160361232f5760006122d76106d1565b905060006122e3610681565b90508181111561232c5780826040517f9e79f854000000000000000000000000000000000000000000000000000000008152600401612323929190613829565b60405180910390fd5b50505b505050565b60008061233f611728565b9050600061234b611750565b9050600081511115612368578080519060200120925050506123ad565b6000826000015490506000801b8114612386578093505050506123ad565b7fc5d2460186f7233c927e7db2dcc703c0e500b653ca82273b7bfad8045d85a47093505050505b90565b6000806123bb611728565b905060006123c76117f1565b90506000815111156123e457808051906020012092505050612429565b6000826001015490506000801b811461240257809350505050612429565b7fc5d2460186f7233c927e7db2dcc703c0e500b653ca82273b7bfad8045d85a47093505050505b90565b6000819050919050565b60008173ffffffffffffffffffffffffffffffffffffffff163b0361249257806040517f4c9c8ce30000000000000000000000000000000000000000000000000000000081526004016124899190612f11565b60405180910390fd5b806124bf7f360894a13ba1a3210667c828492db98dca3e2076cc3735a920a3ca505d382bbc60001b61242c565b60000160006101000a81548173ffffffffffffffffffffffffffffffffffffffff021916908373ffffffffffffffffffffffffffffffffffffffff16021790555050565b60606000808473ffffffffffffffffffffffffffffffffffffffff168460405161252d9190613899565b600060405180830381855af49150503d8060008114612568576040519150601f19603f3d011682016040523d82523d6000602084013e61256d565b606091505b509150915061257d8583836125fc565b9250505092915050565b60003411156125c2576040517fb398979f00000000000000000000000000000000000000000000000000000000815260040160405180910390fd5b565b60006125ce6118ba565b60000160089054906101000a900460ff16905090565b6125ec611dc1565b6125f783838361268b565b505050565b6060826126115761260c826128ca565b612683565b60008251148015612639575060008473ffffffffffffffffffffffffffffffffffffffff163b145b1561267b57836040517f9996b3150000000000000000000000000000000000000000000000000000000081526004016126729190612f11565b60405180910390fd5b819050612684565b5b9392505050565b6000612695610f4d565b9050600073ffffffffffffffffffffffffffffffffffffffff168473ffffffffffffffffffffffffffffffffffffffff16036126eb57818160020160008282546126df91906138b0565b925050819055506127c4565b60008160000160008673ffffffffffffffffffffffffffffffffffffffff1673ffffffffffffffffffffffffffffffffffffffff1681526020019081526020016000205490508281101561277a578481846040517fe450d38c0000000000000000000000000000000000000000000000000000000081526004016127719392919061341f565b60405180910390fd5b8281038260000160008773ffffffffffffffffffffffffffffffffffffffff1673ffffffffffffffffffffffffffffffffffffffff16815260200190815260200160002081905550505b600073ffffffffffffffffffffffffffffffffffffffff168373ffffffffffffffffffffffffffffffffffffffff160361280f5781816002016000828254039250508190555061285f565b818160000160008573ffffffffffffffffffffffffffffffffffffffff1673ffffffffffffffffffffffffffffffffffffffff168152602001908152602001600020600082825401925050819055505b8273ffffffffffffffffffffffffffffffffffffffff168473ffffffffffffffffffffffffffffffffffffffff167fddf252ad1be2c89b69c2b068fc378daa952ba7f163c4a11628f55a4df523b3ef846040516128bc9190612aee565b60405180910390a350505050565b6000815111156128dd5780518082602001fd5b6040517f1425ea4200000000000000000000000000000000000000000000000000000000815260040160405180910390fd5b600081519050919050565b600082825260208201905092915050565b60005b8381101561294957808201518184015260208101905061292e565b60008484015250505050565b6000601f19601f8301169050919050565b60006129718261290f565b61297b818561291a565b935061298b81856020860161292b565b61299481612955565b840191505092915050565b600060208201905081810360008301526129b98184612966565b905092915050565b6000604051905090565b600080fd5b600080fd5b600073ffffffffffffffffffffffffffffffffffffffff82169050919050565b6000612a00826129d5565b9050919050565b612a10816129f5565b8114612a1b57600080fd5b50565b600081359050612a2d81612a07565b92915050565b6000819050919050565b612a4681612a33565b8114612a5157600080fd5b50565b600081359050612a6381612a3d565b92915050565b60008060408385031215612a8057612a7f6129cb565b5b6000612a8e85828601612a1e565b9250506020612a9f85828601612a54565b9150509250929050565b60008115159050919050565b612abe81612aa9565b82525050565b6000602082019050612ad96000830184612ab5565b92915050565b612ae881612a33565b82525050565b6000602082019050612b036000830184612adf565b92915050565b600080600060608486031215612b2257612b216129cb565b5b6000612b3086828701612a1e565b9350506020612b4186828701612a1e565b9250506040612b5286828701612a54565b9150509250925092565b600060ff82169050919050565b612b7281612b5c565b82525050565b6000602082019050612b8d6000830184612b69565b92915050565b6000819050919050565b612ba681612b93565b82525050565b6000602082019050612bc16000830184612b9d565b92915050565b600080fd5b600080fd5b7f4e487b7100000000000000000000000000000000000000000000000000000000600052604160045260246000fd5b612c0982612955565b810181811067ffffffffffffffff82111715612c2857612c27612bd1565b5b80604052505050565b6000612c3b6129c1565b9050612c478282612c00565b919050565b600067ffffffffffffffff821115612c6757612c66612bd1565b5b612c7082612955565b9050602081019050919050565b82818337600083830152505050565b6000612c9f612c9a84612c4c565b612c31565b905082815260208101848484011115612cbb57612cba612bcc565b5b612cc6848285612c7d565b509392505050565b600082601f830112612ce357612ce2612bc7565b5b8135612cf3848260208601612c8c565b91505092915050565b60008060408385031215612d1357612d126129cb565b5b6000612d2185828601612a1e565b925050602083013567ffffffffffffffff811115612d4257612d416129d0565b5b612d4e85828601612cce565b9150509250929050565b600060208284031215612d6e57612d6d6129cb565b5b6000612d7c84828501612a1e565b91505092915050565b60007fff0000000000000000000000000000000000000000000000000000000000000082169050919050565b612dba81612d85565b82525050565b612dc9816129f5565b82525050565b600081519050919050565b600082825260208201905092915050565b6000819050602082019050919050565b612e0481612a33565b82525050565b6000612e168383612dfb565b60208301905092915050565b6000602082019050919050565b6000612e3a82612dcf565b612e448185612dda565b9350612e4f83612deb565b8060005b83811015612e80578151612e678882612e0a565b9750612e7283612e22565b925050600181019050612e53565b5085935050505092915050565b600060e082019050612ea2600083018a612db1565b8181036020830152612eb48189612966565b90508181036040830152612ec88188612966565b9050612ed76060830187612adf565b612ee46080830186612dc0565b612ef160a0830185612b9d565b81810360c0830152612f038184612e2f565b905098975050505050505050565b6000602082019050612f266000830184612dc0565b92915050565b612f3581612b5c565b8114612f4057600080fd5b50565b600081359050612f5281612f2c565b92915050565b612f6181612b93565b8114612f6c57600080fd5b50565b600081359050612f7e81612f58565b92915050565b600080600080600080600060e0888a031215612fa357612fa26129cb565b5b6000612fb18a828b01612a1e565b9750506020612fc28a828b01612a1e565b9650506040612fd38a828b01612a54565b9550506060612fe48a828b01612a54565b9450506080612ff58a828b01612f43565b93505060a06130068a828b01612f6f565b92505060c06130178a828b01612f6f565b91505092959891949750929550565b6000806040838503121561303d5761303c6129cb565b5b600061304b85828601612a1e565b925050602061305c85828601612a1e565b9150509250929050565b7f4e487b7100000000000000000000000000000000000000000000000000000000600052602260045260246000fd5b600060028204905060018216806130ad57607f821691505b6020821081036130c0576130bf613066565b5b50919050565b7f4549503731323a20556e696e697469616c697a65640000000000000000000000600082015250565b60006130fc60158361291a565b9150613107826130c6565b602082019050919050565b6000602082019050818103600083015261312b816130ef565b9050919050565b7f4e487b7100000000000000000000000000000000000000000000000000000000600052601160045260246000fd5b60008160011c9050919050565b6000808291508390505b60018511156131b85780860481111561319457613193613132565b5b60018516156131a35780820291505b80810290506131b185613161565b9450613178565b94509492505050565b6000826131d1576001905061328d565b816131df576000905061328d565b81600181146131f557600281146131ff5761322e565b600191505061328d565b60ff84111561321157613210613132565b5b8360020a91508482111561322857613227613132565b5b5061328d565b5060208310610133831016604e8410600b84101617156132635782820a90508381111561325e5761325d613132565b5b61328d565b613270848484600161316e565b9250905081840481111561328757613286613132565b5b81810290505b9392505050565b600061329f82612a33565b91506132aa83612b5c565b92506132d77fffffffffffffffffffffffffffffffffffffffffffffffffffffffffffffffff84846131c1565b905092915050565b60006132ea82612a33565b91506132f583612a33565b925082820261330381612a33565b9150828204841483151761331a57613319613132565b5b5092915050565b6000819050919050565b600067ffffffffffffffff82169050919050565b6000819050919050565b600061336461335f61335a84613321565b61333f565b61332b565b9050919050565b61337481613349565b82525050565b600060208201905061338f600083018461336b565b92915050565b600060c0820190506133aa6000830189612b9d565b6133b76020830188612dc0565b6133c46040830187612dc0565b6133d16060830186612adf565b6133de6080830185612adf565b6133eb60a0830184612adf565b979650505050505050565b600060408201905061340b6000830185612dc0565b6134186020830184612dc0565b9392505050565b60006060820190506134346000830186612dc0565b6134416020830185612adf565b61344e6040830184612adf565b949350505050565b60008151905061346581612f58565b92915050565b600060208284031215613481576134806129cb565b5b600061348f84828501613456565b91505092915050565b600060a0820190506134ad6000830188612b9d565b6134ba6020830187612b9d565b6134c76040830186612b9d565b6134d46060830185612adf565b6134e16080830184612dc0565b9695505050505050565b60008190508160005260206000209050919050565b60006020601f8301049050919050565b600082821b905092915050565b60006008830261354d7fffffffffffffffffffffffffffffffffffffffffffffffffffffffffffffffff82613510565b6135578683613510565b95508019841693508086168417925050509392505050565b600061358a61358561358084612a33565b61333f565b612a33565b9050919050565b6000819050919050565b6135a48361356f565b6135b86135b082613591565b84845461351d565b825550505050565b600090565b6135cd6135c0565b6135d881848461359b565b505050565b5b818110156135fc576135f16000826135c5565b6001810190506135de565b5050565b601f82111561364157613612816134eb565b61361b84613500565b8101602085101561362a578190505b61363e61363685613500565b8301826135dd565b50505b505050565b600082821c905092915050565b600061366460001984600802613646565b1980831691505092915050565b600061367d8383613653565b9150826002028217905092915050565b6136968261290f565b67ffffffffffffffff8111156136af576136ae612bd1565b5b6136b98254613095565b6136c4828285613600565b600060209050601f8311600181146136f757600084156136e5578287015190505b6136ef8582613671565b865550613757565b601f198416613705866134eb565b60005b8281101561372d57848901518255600182019150602085019450602081019050613708565b8683101561374a5784890151613746601f891682613653565b8355505b6001600288020188555050505b505050505050565b6000819050919050565b600061378461377f61377a8461375f565b61333f565b612a33565b9050919050565b61379481613769565b82525050565b60006020820190506137af600083018461378b565b92915050565b60006080820190506137ca6000830187612b9d565b6137d76020830186612b69565b6137e46040830185612b9d565b6137f16060830184612b9d565b95945050505050565b7f4e487b7100000000000000000000000000000000000000000000000000000000600052602160045260246000fd5b600060408201905061383e6000830185612adf565b61384b6020830184612adf565b9392505050565b600081519050919050565b600081905092915050565b600061387382613852565b61387d818561385d565b935061388d81856020860161292b565b80840191505092915050565b60006138a58284613868565b915081905092915050565b60006138bb82612a33565b91506138c683612a33565b92508282019050808211156138de576138dd613132565b5b9291505056fea26469706673582212208ec41e22b3292028af460cc816fe84d7b9c72caabadac13a1cad0c39bf7f3fe964736f6c63430008180033",
  "linkReferences": {},
  "deployedLinkReferences": {}
}