{
  "_format": "hh-sol-artifact-1",
  "contractName": "ProduceOwnershipV1",
  "sourceName": "contracts/ProduceOwnershipV1.sol",
  "abi": [
    {
      "inputs": [
        {
          "internalType": "address",
          "name": "prod_contract_addr",
          "type": "address"
        }
      ],
      "stateMutability": "nonpayable",
      "type": "constructor"
    },
    {
      "anonymous": false,
      "inputs": [
        {
          "indexed": true,
          "internalType": "bytes32",
          "name": "p",
          "type": "bytes32"
        },
        {
          "indexed": true,
          "internalType": "address",
          "name": "account",
          "type": "address"
        }
      ],
      "name": "TransferConsignmentOwnership",
      "type": "event"
    },
    {
      "anonymous": false,
      "inputs": [
        {
          "indexed": true,
          "internalType": "bytes32",
          "name": "p",
          "type": "bytes32"
        },
        {
          "indexed": true,
          "internalType": "address",
          "name": "account",
          "type": "address"
        }
      ],
      "name": "TransferProduceOwnership",
      "type": "event"
    },
    {
      "inputs": [
        {
          "internalType": "address",
          "name": "owner",
          "type": "address"
        },
        {
          "internalType": "uint256",
          "name": "op_type",
          "type": "uint256"
        },
        {
          "internalType": "bytes32",
          "name": "p_hash",
          "type": "bytes32"
        }
      ],
      "name": "addOwnership",
      "outputs": [
        {
          "internalType": "bool",
          "name": "",
          "type": "bool"
        }
      ],
      "stateMutability": "nonpayable",
      "type": "function"
    },
    {
      "inputs": [
        {
          "internalType": "address",
          "name": "owner",
          "type": "address"
        },
        {
          "internalType": "uint256",
          "name": "op_type",
          "type": "uint256"
        },
        {
          "internalType": "bytes32",
          "name": "p_hash",
          "type": "bytes32"
        },
        {
          "internalType": "address",
          "name": "to",
          "type": "address"
        }
      ],
      "name": "changeOwnership",
      "outputs": [
        {
          "internalType": "bool",
          "name": "",
          "type": "bool"
        }
      ],
      "stateMutability": "nonpayable",
      "type": "function"
    },
    {
      "inputs": [
        {
          "internalType": "bytes32",
          "name": "",
          "type": "bytes32"
        }
      ],
      "name": "currentConsignmentOwner",
      "outputs": [
        {
          "internalType": "address",
          "name": "",
          "type": "address"
        }
      ],
      "stateMutability": "view",
      "type": "function"
    },
    {
      "inputs": [
        {
          "internalType": "bytes32",
          "name": "",
          "type": "bytes32"
        }
      ],
      "name": "currentProduceOwner",
      "outputs": [
        {
          "internalType": "address",
          "name": "",
          "type": "address"
        }
      ],
      "stateMutability": "view",
      "type": "function"
    },
    {
      "inputs": [],
      "name": "pm",
      "outputs": [
        {
          "internalType": "contract ProduceManagement",
          "name": "",
          "type": "address"
        }
      ],
      "stateMutability": "view",
      "type": "function"
    }
  ],
  "bytecode": "0x60806040523480156200001157600080fd5b5060405162001a5838038062001a588339818101604052810190620000379190620000e9565b80600260006101000a81548173ffffffffffffffffffffffffffffffffffffffff021916908373ffffffffffffffffffffffffffffffffffffffff160217905550506200011b565b600080fd5b600073ffffffffffffffffffffffffffffffffffffffff82169050919050565b6000620000b18262000084565b9050919050565b620000c381620000a4565b8114620000cf57600080fd5b50565b600081519050620000e381620000b8565b92915050565b6000602082840312156200010257620001016200007f565b5b60006200011284828501620000d2565b91505092915050565b61192d806200012b6000396000f3fe608060405234801561001057600080fd5b50600436106100575760003560e01c80631f2d8ecc1461005c5780635599e05a1461008c5780638970cdff146100bc5780639c843c78146100da5780639e30ef741461010a575b600080fd5b61007660048036038101906100719190610ec2565b61013a565b6040516100839190610f30565b60405180910390f35b6100a660048036038101906100a19190610fad565b61016d565b6040516100b3919061101b565b60405180910390f35b6100c46107a8565b6040516100d19190611095565b60405180910390f35b6100f460048036038101906100ef9190610ec2565b6107ce565b6040516101019190610f30565b60405180910390f35b610124600480360381019061011f91906110b0565b610801565b604051610131919061101b565b60405180910390f35b60016020528060005260406000206000915054906101000a900473ffffffffffffffffffffffffffffffffffffffff1681565b600080600090506000600181111561018857610187611117565b5b8403610489576000600260009054906101000a900473ffffffffffffffffffffffffffffffffffffffff1673ffffffffffffffffffffffffffffffffffffffff166389a0138e856040518263ffffffff1660e01b81526004016101eb9190611155565b600060405180830381865afa158015610208573d6000803e3d6000fd5b505050506040513d6000823e3d601f19601f8201168201806040525081019061023191906112e6565b909150905050809150508073ffffffffffffffffffffffffffffffffffffffff168673ffffffffffffffffffffffffffffffffffffffff16146102a9576040517f08c379a00000000000000000000000000000000000000000000000000000000081526004016102a0906113fe565b60405180910390fd5b600073ffffffffffffffffffffffffffffffffffffffff1660008086815260200190815260200160002060009054906101000a900473ffffffffffffffffffffffffffffffffffffffff1673ffffffffffffffffffffffffffffffffffffffff161461034a576040517f08c379a000000000000000000000000000000000000000000000000000000000815260040161034190611490565b60405180910390fd5b3373ffffffffffffffffffffffffffffffffffffffff1660008086815260200190815260200160002060009054906101000a900473ffffffffffffffffffffffffffffffffffffffff1673ffffffffffffffffffffffffffffffffffffffff16146103ea576040517f08c379a00000000000000000000000000000000000000000000000000000000081526004016103e190611522565b60405180910390fd5b8560008086815260200190815260200160002060006101000a81548173ffffffffffffffffffffffffffffffffffffffff021916908373ffffffffffffffffffffffffffffffffffffffff1602179055508573ffffffffffffffffffffffffffffffffffffffff16847f9709ec28f0d6ad3727643633caa69ba103c9779bc7ac3b592b1d42ab7134169b60405160405180910390a3600191505061079d565b60018081111561049c5761049b611117565b5b840361079c576000600260009054906101000a900473ffffffffffffffffffffffffffffffffffffffff1673ffffffffffffffffffffffffffffffffffffffff1663b0627de1856040518263ffffffff1660e01b81526004016104ff9190611155565b600060405180830381865afa15801561051c573d6000803e3d6000fd5b505050506040513d6000823e3d601f19601f8201168201806040525081019061054591906112e6565b909150905050809150508073ffffffffffffffffffffffffffffffffffffffff168673ffffffffffffffffffffffffffffffffffffffff16146105bd576040517f08c379a00000000000000000000000000000000000000000000000000000000081526004016105b49061158e565b60405180910390fd5b600073ffffffffffffffffffffffffffffffffffffffff166001600086815260200190815260200160002060009054906101000a900473ffffffffffffffffffffffffffffffffffffffff1673ffffffffffffffffffffffffffffffffffffffff161461065f576040517f08c379a0000000000000000000000000000000000000000000000000000000008152600401610656906115fa565b60405180910390fd5b3373ffffffffffffffffffffffffffffffffffffffff166001600086815260200190815260200160002060009054906101000a900473ffffffffffffffffffffffffffffffffffffffff1673ffffffffffffffffffffffffffffffffffffffff1614610700576040517f08c379a00000000000000000000000000000000000000000000000000000000081526004016106f79061168c565b60405180910390fd5b856001600086815260200190815260200160002060006101000a81548173ffffffffffffffffffffffffffffffffffffffff021916908373ffffffffffffffffffffffffffffffffffffffff1602179055508573ffffffffffffffffffffffffffffffffffffffff16847f91f7a5995890c0f3857436d23188c722dec986b8ff286d73c67cadae34c28dde60405160405180910390a360019150505b5b809150509392505050565b600260009054906101000a900473ffffffffffffffffffffffffffffffffffffffff1681565b60006020528060005260406000206000915054906101000a900473ffffffffffffffffffffffffffffffffffffffff1681565b600080600090506000600181111561081c5761081b611117565b5b8503610a7c576000600260009054906101000a900473ffffffffffffffffffffffffffffffffffffffff1673ffffffffffffffffffffffffffffffffffffffff166389a0138e866040518263ffffffff1660e01b815260040161087f9190611155565b600060405180830381865afa15801561089c573d6000803e3d6000fd5b505050506040513d6000823e3d601f19601f820116820180604052508101906108c591906112e6565b909150905050809150508073ffffffffffffffffffffffffffffffffffffffff168773ffffffffffffffffffffffffffffffffffffffff161461093d576040517f08c379a0000000000000000000000000000000000000000000000000000000008152600401610934906113fe565b60405180910390fd5b3373ffffffffffffffffffffffffffffffffffffffff1660008087815260200190815260200160002060009054906101000a900473ffffffffffffffffffffffffffffffffffffffff1673ffffffffffffffffffffffffffffffffffffffff16146109dd576040517f08c379a00000000000000000000000000000000000000000000000000000000081526004016109d49061171e565b60405180910390fd5b8360008087815260200190815260200160002060006101000a81548173ffffffffffffffffffffffffffffffffffffffff021916908373ffffffffffffffffffffffffffffffffffffffff1602179055508373ffffffffffffffffffffffffffffffffffffffff16857f9709ec28f0d6ad3727643633caa69ba103c9779bc7ac3b592b1d42ab7134169b60405160405180910390a36001915050610e6c565b600180811115610a8f57610a8e611117565b5b8503610e6b576000600260009054906101000a900473ffffffffffffffffffffffffffffffffffffffff1673ffffffffffffffffffffffffffffffffffffffff1663b0627de1866040518263ffffffff1660e01b8152600401610af29190611155565b600060405180830381865afa158015610b0f573d6000803e3d6000fd5b505050506040513d6000823e3d601f19601f82011682018060405250810190610b3891906112e6565b909150905050809150508073ffffffffffffffffffffffffffffffffffffffff168773ffffffffffffffffffffffffffffffffffffffff1614610bb0576040517f08c379a0000000000000000000000000000000000000000000000000000000008152600401610ba79061158e565b60405180910390fd5b3373ffffffffffffffffffffffffffffffffffffffff166001600087815260200190815260200160002060009054906101000a900473ffffffffffffffffffffffffffffffffffffffff1673ffffffffffffffffffffffffffffffffffffffff1614610c51576040517f08c379a0000000000000000000000000000000000000000000000000000000008152600401610c48906117b0565b60405180910390fd5b836001600087815260200190815260200160002060006101000a81548173ffffffffffffffffffffffffffffffffffffffff021916908373ffffffffffffffffffffffffffffffffffffffff1602179055508373ffffffffffffffffffffffffffffffffffffffff16857f91f7a5995890c0f3857436d23188c722dec986b8ff286d73c67cadae34c28dde60405160405180910390a36000600260009054906101000a900473ffffffffffffffffffffffffffffffffffffffff1673ffffffffffffffffffffffffffffffffffffffff16633bc7834e876040518263ffffffff1660e01b8152600401610d449190611155565b60c060405180830381865afa158015610d61573d6000803e3d6000fd5b505050506040513d601f19601f82011682018060405250810190610d85919061189b565b905060005b6006811015610e635785600080848460068110610daa57610da96118c8565b5b6020020151815260200190815260200160002060006101000a81548173ffffffffffffffffffffffffffffffffffffffff021916908373ffffffffffffffffffffffffffffffffffffffff1602179055508573ffffffffffffffffffffffffffffffffffffffff16828260068110610e2557610e246118c8565b5b60200201517f9709ec28f0d6ad3727643633caa69ba103c9779bc7ac3b592b1d42ab7134169b60405160405180910390a38080600101915050610d8a565b506001925050505b5b80915050949350505050565b6000604051905090565b600080fd5b600080fd5b6000819050919050565b610e9f81610e8c565b8114610eaa57600080fd5b50565b600081359050610ebc81610e96565b92915050565b600060208284031215610ed857610ed7610e82565b5b6000610ee684828501610ead565b91505092915050565b600073ffffffffffffffffffffffffffffffffffffffff82169050919050565b6000610f1a82610eef565b9050919050565b610f2a81610f0f565b82525050565b6000602082019050610f456000830184610f21565b92915050565b610f5481610f0f565b8114610f5f57600080fd5b50565b600081359050610f7181610f4b565b92915050565b6000819050919050565b610f8a81610f77565b8114610f9557600080fd5b50565b600081359050610fa781610f81565b92915050565b600080600060608486031215610fc657610fc5610e82565b5b6000610fd486828701610f62565b9350506020610fe586828701610f98565b9250506040610ff686828701610ead565b9150509250925092565b60008115159050919050565b61101581611000565b82525050565b6000602082019050611030600083018461100c565b92915050565b6000819050919050565b600061105b61105661105184610eef565b611036565b610eef565b9050919050565b600061106d82611040565b9050919050565b600061107f82611062565b9050919050565b61108f81611074565b82525050565b60006020820190506110aa6000830184611086565b92915050565b600080600080608085870312156110ca576110c9610e82565b5b60006110d887828801610f62565b94505060206110e987828801610f98565b93505060406110fa87828801610ead565b925050606061110b87828801610f62565b91505092959194509250565b7f4e487b7100000000000000000000000000000000000000000000000000000000600052602160045260246000fd5b61114f81610e8c565b82525050565b600060208201905061116a6000830184611146565b92915050565b60008151905061117f81610f4b565b92915050565b600080fd5b600080fd5b6000601f19601f8301169050919050565b7f4e487b7100000000000000000000000000000000000000000000000000000000600052604160045260246000fd5b6111d88261118f565b810181811067ffffffffffffffff821117156111f7576111f66111a0565b5b80604052505050565b600061120a610e78565b905061121682826111cf565b919050565b600067ffffffffffffffff821115611236576112356111a0565b5b61123f8261118f565b9050602081019050919050565b60005b8381101561126a57808201518184015260208101905061124f565b60008484015250505050565b60006112896112848461121b565b611200565b9050828152602081018484840111156112a5576112a461118a565b5b6112b084828561124c565b509392505050565b600082601f8301126112cd576112cc611185565b5b81516112dd848260208601611276565b91505092915050565b60008060008060808587031215611300576112ff610e82565b5b600061130e87828801611170565b945050602085015167ffffffffffffffff81111561132f5761132e610e87565b5b61133b878288016112b8565b935050604085015167ffffffffffffffff81111561135c5761135b610e87565b5b611368878288016112b8565b925050606085015167ffffffffffffffff81111561138957611388610e87565b5b611395878288016112b8565b91505092959194509250565b600082825260208201905092915050565b7f436f6e7369676e6d656e74206f776e6572206d69736d61746368000000000000600082015250565b60006113e8601a836113a1565b91506113f3826113b2565b602082019050919050565b60006020820190508181036000830152611417816113db565b9050919050565b7f436f6e7369676e6d656e742077617320616c726561647920726567697374657260008201527f6564000000000000000000000000000000000000000000000000000000000000602082015250565b600061147a6022836113a1565b91506114858261141e565b604082019050919050565b600060208201905081810360008301526114a98161146d565b9050919050565b7f436f6e7369676e6d656e7420776173206e6f74206d616465206279207265717560008201527f6573746572000000000000000000000000000000000000000000000000000000602082015250565b600061150c6025836113a1565b9150611517826114b0565b604082019050919050565b6000602082019050818103600083015261153b816114ff565b9050919050565b7f50726f64756365206f776e6572206d69736d6174636800000000000000000000600082015250565b60006115786016836113a1565b915061158382611542565b602082019050919050565b600060208201905081810360008301526115a78161156b565b9050919050565b7f50726f647563652077617320616c726561647920726567697374657265640000600082015250565b60006115e4601e836113a1565b91506115ef826115ae565b602082019050919050565b60006020820190508181036000830152611613816115d7565b9050919050565b7f50726f6475636520776173206e6f74206d61646520627920726571756573746560008201527f7200000000000000000000000000000000000000000000000000000000000000602082015250565b60006116766021836113a1565b91506116818261161a565b604082019050919050565b600060208201905081810360008301526116a581611669565b9050919050565b7f436f6e7369676e6d656e74206973206e6f74206f776e6564206279207265717560008201527f6573746572000000000000000000000000000000000000000000000000000000602082015250565b60006117086025836113a1565b9150611713826116ac565b604082019050919050565b60006020820190508181036000830152611737816116fb565b9050919050565b7f50726f64756365206973206e6f74206f776e656420627920726571756573746560008201527f7200000000000000000000000000000000000000000000000000000000000000602082015250565b600061179a6021836113a1565b91506117a58261173e565b604082019050919050565b600060208201905081810360008301526117c98161178d565b9050919050565b600067ffffffffffffffff8211156117eb576117ea6111a0565b5b602082029050919050565b600080fd5b60008151905061180a81610e96565b92915050565b600061182361181e846117d0565b611200565b9050806020840283018581111561183d5761183c6117f6565b5b835b81811015611866578061185288826117fb565b84526020840193505060208101905061183f565b5050509392505050565b600082601f83011261188557611884611185565b5b6006611892848285611810565b91505092915050565b600060c082840312156118b1576118b0610e82565b5b60006118bf84828501611870565b91505092915050565b7f4e487b7100000000000000000000000000000000000000000000000000000000600052603260045260246000fdfea2646970667358221220528c0cd7d27db46316904b52c1a2e7bd5a114a2fab2a5cfb4a524a9d90c36c4164736f6c63430008180033",
  "linkReferences": {},
  "deployedLinkReferences": {}
}