{
  "_format": "hh-sol-artifact-1",
  "contractName": "ProduceOwnershipV2",
  "sourceName": "contracts/ProduceOwnershipV2.sol",
  "abi": [
    {
      "inputs": [
        {
          "internalType": "address",
          "name": "prod_contract_address",
          "type": "address"
        }
      ],
      "stateMutability": "nonpayable",
      "type": "constructor"
    },
    {
      "anonymous": false,
      "inputs": [
        {
          "indexed": true,
          "internalType": "bytes32",
          "name": "p",
          "type": "bytes32"
        },
        {
          "indexed": true,
          "internalType": "address",
          "name": "account",
          "type": "address"
        }
      ],
      "name": "TransferConsignmentOwnership",
      "type": "event"
    },
    {
      "anonymous": false,
      "inputs": [
        {
          "indexed": true,
          "internalType": "bytes32",
          "name": "p",
          "type": "bytes32"
        },
        {
          "indexed": true,
          "internalType": "address",
          "name": "account",
          "type": "address"
        }
      ],
      "name": "TransferProduceOwnership",
      "type": "event"
    },
    {
      "inputs": [
        {
          "internalType": "address",
          "name": "owner",
          "type": "address"
        },
        {
          "internalType": "uint256",
          "name": "op_type",
          "type": "uint256"
        },
        {
          "internalType": "bytes32",
          "name": "p_hash",
          "type": "bytes32"
        }
      ],
      "name": "addOwnership",
      "outputs": [
        {
          "internalType": "bool",
          "name": "",
          "type": "bool"
        }
      ],
      "stateMutability": "nonpayable",
      "type": "function"
    },
    {
      "inputs": [
        {
          "internalType": "address",
          "name": "owner",
          "type": "address"
        },
        {
          "internalType": "uint256",
          "name": "op_type",
          "type": "uint256"
        },
        {
          "internalType": "bytes32",
          "name": "p_hash",
          "type": "bytes32"
        },
        {
          "internalType": "address",
          "name": "to",
          "type": "address"
        }
      ],
      "name": "changeOwnership",
      "outputs": [
        {
          "internalType": "bool",
          "name": "",
          "type": "bool"
        }
      ],
      "stateMutability": "nonpayable",
      "type": "function"
    },
    {
      "inputs": [
        {
          "internalType": "bytes32",
          "name": "",
          "type": "bytes32"
        }
      ],
      "name": "currentConsignmentOwner",
      "outputs": [
        {
          "internalType": "address",
          "name": "",
          "type": "address"
        }
      ],
      "stateMutability": "view",
      "type": "function"
    },
    {
      "inputs": [
        {
          "internalType": "bytes32",
          "name": "",
          "type": "bytes32"
        }
      ],
      "name": "currentProduceOwner",
      "outputs": [
        {
          "internalType": "address",
          "name": "",
          "type": "address"
        }
      ],
      "stateMutability": "view",
      "type": "function"
    },
    {
      "inputs": [],
      "name": "promg",
      "outputs": [
        {
          "internalType": "contract ProduceManagement",
          "name": "",
          "type": "address"
        }
      ],
      "stateMutability": "view",
      "type": "function"
    }
  ],
  "bytecode": "0x60806040523480156200001157600080fd5b50604051620017f3380380620017f38339818101604052810190620000379190620000e9565b80600260006101000a81548173ffffffffffffffffffffffffffffffffffffffff021916908373ffffffffffffffffffffffffffffffffffffffff160217905550506200011b565b600080fd5b600073ffffffffffffffffffffffffffffffffffffffff82169050919050565b6000620000b18262000084565b9050919050565b620000c381620000a4565b8114620000cf57600080fd5b50565b600081519050620000e381620000b8565b92915050565b6000602082840312156200010257620001016200007f565b5b60006200011284828501620000d2565b91505092915050565b6116c8806200012b6000396000f3fe608060405234801561001057600080fd5b50600436106100575760003560e01c80631d323ad91461005c5780631f2d8ecc1461007a5780635599e05a146100aa5780639c843c78146100da5780639e30ef741461010a575b600080fd5b61006461013a565b6040516100719190610db6565b60405180910390f35b610094600480360381019061008f9190610e1b565b610160565b6040516100a19190610e69565b60405180910390f35b6100c460048036038101906100bf9190610ee6565b610193565b6040516100d19190610f54565b60405180910390f35b6100f460048036038101906100ef9190610e1b565b61068d565b6040516101019190610e69565b60405180910390f35b610124600480360381019061011f9190610f6f565b6106c0565b6040516101319190610f54565b60405180910390f35b600260009054906101000a900473ffffffffffffffffffffffffffffffffffffffff1681565b60016020528060005260406000206000915054906101000a900473ffffffffffffffffffffffffffffffffffffffff1681565b60008060009050600060018111156101ae576101ad610fd6565b5b840361040f576000600260009054906101000a900473ffffffffffffffffffffffffffffffffffffffff1673ffffffffffffffffffffffffffffffffffffffff166389a0138e856040518263ffffffff1660e01b81526004016102119190611014565b600060405180830381865afa15801561022e573d6000803e3d6000fd5b505050506040513d6000823e3d601f19601f8201168201806040525081019061025791906111a5565b909150905050809150508073ffffffffffffffffffffffffffffffffffffffff168673ffffffffffffffffffffffffffffffffffffffff16146102cf576040517f08c379a00000000000000000000000000000000000000000000000000000000081526004016102c6906112bd565b60405180910390fd5b600073ffffffffffffffffffffffffffffffffffffffff1660008086815260200190815260200160002060009054906101000a900473ffffffffffffffffffffffffffffffffffffffff1673ffffffffffffffffffffffffffffffffffffffff1614610370576040517f08c379a00000000000000000000000000000000000000000000000000000000081526004016103679061134f565b60405180910390fd5b8560008086815260200190815260200160002060006101000a81548173ffffffffffffffffffffffffffffffffffffffff021916908373ffffffffffffffffffffffffffffffffffffffff1602179055508573ffffffffffffffffffffffffffffffffffffffff16847f9709ec28f0d6ad3727643633caa69ba103c9779bc7ac3b592b1d42ab7134169b60405160405180910390a36001915050610682565b60018081111561042257610421610fd6565b5b8403610681576000600260009054906101000a900473ffffffffffffffffffffffffffffffffffffffff1673ffffffffffffffffffffffffffffffffffffffff1663b0627de1856040518263ffffffff1660e01b81526004016104859190611014565b600060405180830381865afa1580156104a2573d6000803e3d6000fd5b505050506040513d6000823e3d601f19601f820116820180604052508101906104cb91906111a5565b909150905050809150508073ffffffffffffffffffffffffffffffffffffffff168673ffffffffffffffffffffffffffffffffffffffff1614610543576040517f08c379a000000000000000000000000000000000000000000000000000000000815260040161053a906113bb565b60405180910390fd5b600073ffffffffffffffffffffffffffffffffffffffff166001600086815260200190815260200160002060009054906101000a900473ffffffffffffffffffffffffffffffffffffffff1673ffffffffffffffffffffffffffffffffffffffff16146105e5576040517f08c379a00000000000000000000000000000000000000000000000000000000081526004016105dc90611427565b60405180910390fd5b856001600086815260200190815260200160002060006101000a81548173ffffffffffffffffffffffffffffffffffffffff021916908373ffffffffffffffffffffffffffffffffffffffff1602179055508573ffffffffffffffffffffffffffffffffffffffff16847f91f7a5995890c0f3857436d23188c722dec986b8ff286d73c67cadae34c28dde60405160405180910390a360019150505b5b809150509392505050565b60006020528060005260406000206000915054906101000a900473ffffffffffffffffffffffffffffffffffffffff1681565b60008060009050600060018111156106db576106da610fd6565b5b850361093b576000600260009054906101000a900473ffffffffffffffffffffffffffffffffffffffff1673ffffffffffffffffffffffffffffffffffffffff166389a0138e866040518263ffffffff1660e01b815260040161073e9190611014565b600060405180830381865afa15801561075b573d6000803e3d6000fd5b505050506040513d6000823e3d601f19601f8201168201806040525081019061078491906111a5565b909150905050809150508073ffffffffffffffffffffffffffffffffffffffff168773ffffffffffffffffffffffffffffffffffffffff16146107fc576040517f08c379a00000000000000000000000000000000000000000000000000000000081526004016107f3906112bd565b60405180910390fd5b8673ffffffffffffffffffffffffffffffffffffffff1660008087815260200190815260200160002060009054906101000a900473ffffffffffffffffffffffffffffffffffffffff1673ffffffffffffffffffffffffffffffffffffffff161461089c576040517f08c379a0000000000000000000000000000000000000000000000000000000008152600401610893906114b9565b60405180910390fd5b8360008087815260200190815260200160002060006101000a81548173ffffffffffffffffffffffffffffffffffffffff021916908373ffffffffffffffffffffffffffffffffffffffff1602179055508373ffffffffffffffffffffffffffffffffffffffff16857f9709ec28f0d6ad3727643633caa69ba103c9779bc7ac3b592b1d42ab7134169b60405160405180910390a36001915050610d2b565b60018081111561094e5761094d610fd6565b5b8503610d2a576000600260009054906101000a900473ffffffffffffffffffffffffffffffffffffffff1673ffffffffffffffffffffffffffffffffffffffff1663b0627de1866040518263ffffffff1660e01b81526004016109b19190611014565b600060405180830381865afa1580156109ce573d6000803e3d6000fd5b505050506040513d6000823e3d601f19601f820116820180604052508101906109f791906111a5565b909150905050809150508073ffffffffffffffffffffffffffffffffffffffff168773ffffffffffffffffffffffffffffffffffffffff1614610a6f576040517f08c379a0000000000000000000000000000000000000000000000000000000008152600401610a66906113bb565b60405180910390fd5b8673ffffffffffffffffffffffffffffffffffffffff166001600087815260200190815260200160002060009054906101000a900473ffffffffffffffffffffffffffffffffffffffff1673ffffffffffffffffffffffffffffffffffffffff1614610b10576040517f08c379a0000000000000000000000000000000000000000000000000000000008152600401610b079061154b565b60405180910390fd5b836001600087815260200190815260200160002060006101000a81548173ffffffffffffffffffffffffffffffffffffffff021916908373ffffffffffffffffffffffffffffffffffffffff1602179055508373ffffffffffffffffffffffffffffffffffffffff16857f91f7a5995890c0f3857436d23188c722dec986b8ff286d73c67cadae34c28dde60405160405180910390a36000600260009054906101000a900473ffffffffffffffffffffffffffffffffffffffff1673ffffffffffffffffffffffffffffffffffffffff16633bc7834e876040518263ffffffff1660e01b8152600401610c039190611014565b60c060405180830381865afa158015610c20573d6000803e3d6000fd5b505050506040513d601f19601f82011682018060405250810190610c449190611636565b905060005b6006811015610d225785600080848460068110610c6957610c68611663565b5b6020020151815260200190815260200160002060006101000a81548173ffffffffffffffffffffffffffffffffffffffff021916908373ffffffffffffffffffffffffffffffffffffffff1602179055508573ffffffffffffffffffffffffffffffffffffffff16828260068110610ce457610ce3611663565b5b60200201517f9709ec28f0d6ad3727643633caa69ba103c9779bc7ac3b592b1d42ab7134169b60405160405180910390a38080600101915050610c49565b506001925050505b5b80915050949350505050565b600073ffffffffffffffffffffffffffffffffffffffff82169050919050565b6000819050919050565b6000610d7c610d77610d7284610d37565b610d57565b610d37565b9050919050565b6000610d8e82610d61565b9050919050565b6000610da082610d83565b9050919050565b610db081610d95565b82525050565b6000602082019050610dcb6000830184610da7565b92915050565b6000604051905090565b600080fd5b600080fd5b6000819050919050565b610df881610de5565b8114610e0357600080fd5b50565b600081359050610e1581610def565b92915050565b600060208284031215610e3157610e30610ddb565b5b6000610e3f84828501610e06565b91505092915050565b6000610e5382610d37565b9050919050565b610e6381610e48565b82525050565b6000602082019050610e7e6000830184610e5a565b92915050565b610e8d81610e48565b8114610e9857600080fd5b50565b600081359050610eaa81610e84565b92915050565b6000819050919050565b610ec381610eb0565b8114610ece57600080fd5b50565b600081359050610ee081610eba565b92915050565b600080600060608486031215610eff57610efe610ddb565b5b6000610f0d86828701610e9b565b9350506020610f1e86828701610ed1565b9250506040610f2f86828701610e06565b9150509250925092565b60008115159050919050565b610f4e81610f39565b82525050565b6000602082019050610f696000830184610f45565b92915050565b60008060008060808587031215610f8957610f88610ddb565b5b6000610f9787828801610e9b565b9450506020610fa887828801610ed1565b9350506040610fb987828801610e06565b9250506060610fca87828801610e9b565b91505092959194509250565b7f4e487b7100000000000000000000000000000000000000000000000000000000600052602160045260246000fd5b61100e81610de5565b82525050565b60006020820190506110296000830184611005565b92915050565b60008151905061103e81610e84565b92915050565b600080fd5b600080fd5b6000601f19601f8301169050919050565b7f4e487b7100000000000000000000000000000000000000000000000000000000600052604160045260246000fd5b6110978261104e565b810181811067ffffffffffffffff821117156110b6576110b561105f565b5b80604052505050565b60006110c9610dd1565b90506110d5828261108e565b919050565b600067ffffffffffffffff8211156110f5576110f461105f565b5b6110fe8261104e565b9050602081019050919050565b60005b8381101561112957808201518184015260208101905061110e565b60008484015250505050565b6000611148611143846110da565b6110bf565b90508281526020810184848401111561116457611163611049565b5b61116f84828561110b565b509392505050565b600082601f83011261118c5761118b611044565b5b815161119c848260208601611135565b91505092915050565b600080600080608085870312156111bf576111be610ddb565b5b60006111cd8782880161102f565b945050602085015167ffffffffffffffff8111156111ee576111ed610de0565b5b6111fa87828801611177565b935050604085015167ffffffffffffffff81111561121b5761121a610de0565b5b61122787828801611177565b925050606085015167ffffffffffffffff81111561124857611247610de0565b5b61125487828801611177565b91505092959194509250565b600082825260208201905092915050565b7f436f6e7369676e6d656e74206f776e6572206d69736d61746368000000000000600082015250565b60006112a7601a83611260565b91506112b282611271565b602082019050919050565b600060208201905081810360008301526112d68161129a565b9050919050565b7f436f6e7369676e6d656e742077617320616c726561647920726567697374657260008201527f6564000000000000000000000000000000000000000000000000000000000000602082015250565b6000611339602283611260565b9150611344826112dd565b604082019050919050565b600060208201905081810360008301526113688161132c565b9050919050565b7f50726f64756365206f776e6572206d69736d6174636800000000000000000000600082015250565b60006113a5601683611260565b91506113b08261136f565b602082019050919050565b600060208201905081810360008301526113d481611398565b9050919050565b7f50726f647563652077617320616c726561647920726567697374657265640000600082015250565b6000611411601e83611260565b915061141c826113db565b602082019050919050565b6000602082019050818103600083015261144081611404565b9050919050565b7f436f6e7369676e6d656e74206973206e6f74206f776e6564206279207265717560008201527f6573746572000000000000000000000000000000000000000000000000000000602082015250565b60006114a3602583611260565b91506114ae82611447565b604082019050919050565b600060208201905081810360008301526114d281611496565b9050919050565b7f50726f64756365206973206e6f74206f776e656420627920726571756573746560008201527f7200000000000000000000000000000000000000000000000000000000000000602082015250565b6000611535602183611260565b9150611540826114d9565b604082019050919050565b6000602082019050818103600083015261156481611528565b9050919050565b600067ffffffffffffffff8211156115865761158561105f565b5b602082029050919050565b600080fd5b6000815190506115a581610def565b92915050565b60006115be6115b98461156b565b6110bf565b905080602084028301858111156115d8576115d7611591565b5b835b8181101561160157806115ed8882611596565b8452602084019350506020810190506115da565b5050509392505050565b600082601f8301126116205761161f611044565b5b600661162d8482856115ab565b91505092915050565b600060c0828403121561164c5761164b610ddb565b5b600061165a8482850161160b565b91505092915050565b7f4e487b7100000000000000000000000000000000000000000000000000000000600052603260045260246000fdfea264697066735822122071ae4fc6831d07c459af3853ba6f089107a1613f58d8efd748f40e1d061d087864736f6c63430008180033",
  "linkReferences": {},
  "deployedLinkReferences": {}
}