{
  "_format": "hh-sol-artifact-1",
  "contractName": "ProduceTraceabilityV8",
  "sourceName": "contracts/ProduceTraceabilityV8.sol",
  "abi": [
    {
      "inputs": [
        {
          "internalType": "address",
          "name": "product_own_address",
          "type": "address"
        },
        {
          "internalType": "address",
          "name": "product_mgmt_address",
          "type": "address"
        }
      ],
      "stateMutability": "nonpayable",
      "type": "constructor"
    },
    {
      "anonymous": false,
      "inputs": [
        {
          "indexed": false,
          "internalType": "string",
          "name": "name",
          "type": "string"
        },
        {
          "indexed": true,
          "internalType": "address",
          "name": "ethAddress",
          "type": "address"
        },
        {
          "indexed": false,
          "internalType": "uint256",
          "name": "timestamp",
          "type": "uint256"
        }
      ],
      "name": "FarmerRegistered",
      "type": "event"
    },
    {
      "anonymous": false,
      "inputs": [
        {
          "indexed": true,
          "internalType": "address",
          "name": "ethAddress",
          "type": "address"
        },
        {
          "indexed": false,
          "internalType": "uint256",
          "name": "timestamp",
          "type": "uint256"
        }
      ],
      "name": "FarmerVerified",
      "type": "event"
    },
    {
      "anonymous": false,
      "inputs": [
        {
          "indexed": true,
          "internalType": "address",
          "name": "farmer",
          "type": "address"
        },
        {
          "indexed": false,
          "internalType": "bytes32",
          "name": "produce_hash",
          "type": "bytes32"
        },
        {
          "indexed": false,
          "internalType": "string",
          "name": "produce_name",
          "type": "string"
        },
        {
          "indexed": false,
          "internalType": "uint256",
          "name": "timestamp",
          "type": "uint256"
        }
      ],
      "name": "ProduceAdded",
      "type": "event"
    },
    {
      "anonymous": false,
      "inputs": [
        {
          "indexed": true,
          "internalType": "address",
          "name": "source",
          "type": "address"
        },
        {
          "indexed": false,
          "internalType": "bytes32",
          "name": "produce_hash",
          "type": "bytes32"
        },
        {
          "indexed": false,
          "internalType": "uint256",
          "name": "referenceNumber",
          "type": "uint256"
        },
        {
          "indexed": false,
          "internalType": "uint256",
          "name": "timestamp",
          "type": "uint256"
        }
      ],
      "name": "ProduceSold",
      "type": "event"
    },
    {
      "inputs": [
        {
          "internalType": "uint256",
          "name": "",
          "type": "uint256"
        }
      ],
      "name": "FarmProduces",
      "outputs": [
        {
          "internalType": "bytes32",
          "name": "produceHash",
          "type": "bytes32"
        },
        {
          "internalType": "string",
          "name": "produce",
          "type": "string"
        },
        {
          "internalType": "address",
          "name": "farmer",
          "type": "address"
        },
        {
          "internalType": "uint256",
          "name": "quantity",
          "type": "uint256"
        }
      ],
      "stateMutability": "view",
      "type": "function"
    },
    {
      "inputs": [
        {
          "internalType": "uint256",
          "name": "",
          "type": "uint256"
        }
      ],
      "name": "FarmerAddresses",
      "outputs": [
        {
          "internalType": "address",
          "name": "",
          "type": "address"
        }
      ],
      "stateMutability": "view",
      "type": "function"
    },
    {
      "inputs": [
        {
          "internalType": "uint256",
          "name": "",
          "type": "uint256"
        }
      ],
      "name": "ProduceSales",
      "outputs": [
        {
          "internalType": "bytes32",
          "name": "consignmentHash",
          "type": "bytes32"
        },
        {
          "internalType": "uint256",
          "name": "referenceNumber",
          "type": "uint256"
        },
        {
          "internalType": "address",
          "name": "buyer",
          "type": "address"
        },
        {
          "internalType": "uint256",
          "name": "amount",
          "type": "uint256"
        },
        {
          "internalType": "uint256",
          "name": "price",
          "type": "uint256"
        },
        {
          "internalType": "string",
          "name": "time",
          "type": "string"
        }
      ],
      "stateMutability": "view",
      "type": "function"
    },
    {
      "inputs": [
        {
          "internalType": "address",
          "name": "farmer",
          "type": "address"
        },
        {
          "internalType": "string",
          "name": "lot_number",
          "type": "string"
        },
        {
          "internalType": "string",
          "name": "weight",
          "type": "string"
        },
        {
          "internalType": "string",
          "name": "storage_date",
          "type": "string"
        }
      ],
      "name": "addConsignment",
      "outputs": [
        {
          "internalType": "bytes32",
          "name": "",
          "type": "bytes32"
        }
      ],
      "stateMutability": "nonpayable",
      "type": "function"
    },
    {
      "inputs": [
        {
          "internalType": "string",
          "name": "_produce_name",
          "type": "string"
        },
        {
          "internalType": "string",
          "name": "_lot_number",
          "type": "string"
        },
        {
          "internalType": "string",
          "name": "_weight",
          "type": "string"
        },
        {
          "internalType": "uint256",
          "name": "_quantity",
          "type": "uint256"
        },
        {
          "internalType": "string",
          "name": "_storage_date",
          "type": "string"
        },
        {
          "internalType": "address",
          "name": "_farmer",
          "type": "address"
        },
        {
          "internalType": "address[]",
          "name": "_agents",
          "type": "address[]"
        }
      ],
      "name": "addFarmProduce",
      "outputs": [],
      "stateMutability": "nonpayable",
      "type": "function"
    },
    {
      "inputs": [
        {
          "internalType": "address",
          "name": "farmer",
          "type": "address"
        },
        {
          "internalType": "string",
          "name": "lot_number",
          "type": "string"
        },
        {
          "internalType": "string",
          "name": "produce",
          "type": "string"
        },
        {
          "internalType": "string",
          "name": "storage_date",
          "type": "string"
        }
      ],
      "name": "addProduct",
      "outputs": [
        {
          "internalType": "bytes32",
          "name": "",
          "type": "bytes32"
        }
      ],
      "stateMutability": "nonpayable",
      "type": "function"
    },
    {
      "inputs": [
        {
          "internalType": "bytes32",
          "name": "",
          "type": "bytes32"
        }
      ],
      "name": "currentconsignment",
      "outputs": [
        {
          "internalType": "bytes32",
          "name": "",
          "type": "bytes32"
        }
      ],
      "stateMutability": "view",
      "type": "function"
    },
    {
      "inputs": [
        {
          "internalType": "bytes32",
          "name": "",
          "type": "bytes32"
        }
      ],
      "name": "currentproduct",
      "outputs": [
        {
          "internalType": "bytes32",
          "name": "",
          "type": "bytes32"
        }
      ],
      "stateMutability": "view",
      "type": "function"
    },
    {
      "inputs": [
        {
          "internalType": "address",
          "name": "",
          "type": "address"
        }
      ],
      "name": "farmers",
      "outputs": [
        {
          "internalType": "string",
          "name": "name",
          "type": "string"
        },
        {
          "internalType": "string",
          "name": "location",
          "type": "string"
        },
        {
          "internalType": "address",
          "name": "ethAddress",
          "type": "address"
        },
        {
          "internalType": "bool",
          "name": "isVerified",
          "type": "bool"
        }
      ],
      "stateMutability": "view",
      "type": "function"
    },
    {
      "inputs": [
        {
          "internalType": "bytes32",
          "name": "",
          "type": "bytes32"
        }
      ],
      "name": "farmproduct",
      "outputs": [
        {
          "internalType": "bytes32",
          "name": "produceHash",
          "type": "bytes32"
        },
        {
          "internalType": "string",
          "name": "produce",
          "type": "string"
        },
        {
          "internalType": "address",
          "name": "farmer",
          "type": "address"
        },
        {
          "internalType": "uint256",
          "name": "quantity",
          "type": "uint256"
        }
      ],
      "stateMutability": "view",
      "type": "function"
    },
    {
      "inputs": [
        {
          "internalType": "string",
          "name": "lot_number",
          "type": "string"
        },
        {
          "internalType": "address",
          "name": "farmer",
          "type": "address"
        }
      ],
      "name": "getConsignmentHash",
      "outputs": [
        {
          "internalType": "bytes32",
          "name": "",
          "type": "bytes32"
        }
      ],
      "stateMutability": "view",
      "type": "function"
    },
    {
      "inputs": [
        {
          "internalType": "address",
          "name": "_ethAddress",
          "type": "address"
        }
      ],
      "name": "getFarmer",
      "outputs": [
        {
          "internalType": "string",
          "name": "",
          "type": "string"
        },
        {
          "internalType": "string",
          "name": "",
          "type": "string"
        },
        {
          "internalType": "address",
          "name": "",
          "type": "address"
        },
        {
          "internalType": "bool",
          "name": "",
          "type": "bool"
        }
      ],
      "stateMutability": "view",
      "type": "function"
    },
    {
      "inputs": [],
      "name": "getFarmerCount",
      "outputs": [
        {
          "internalType": "uint256",
          "name": "",
          "type": "uint256"
        }
      ],
      "stateMutability": "view",
      "type": "function"
    },
    {
      "inputs": [
        {
          "internalType": "uint256",
          "name": "index",
          "type": "uint256"
        }
      ],
      "name": "getProduce",
      "outputs": [
        {
          "internalType": "bytes32",
          "name": "",
          "type": "bytes32"
        },
        {
          "internalType": "string",
          "name": "",
          "type": "string"
        },
        {
          "internalType": "address",
          "name": "",
          "type": "address"
        },
        {
          "internalType": "uint256",
          "name": "",
          "type": "uint256"
        },
        {
          "internalType": "address[]",
          "name": "",
          "type": "address[]"
        }
      ],
      "stateMutability": "view",
      "type": "function"
    },
    {
      "inputs": [],
      "name": "getProduceCount",
      "outputs": [
        {
          "internalType": "uint256",
          "name": "",
          "type": "uint256"
        }
      ],
      "stateMutability": "view",
      "type": "function"
    },
    {
      "inputs": [
        {
          "internalType": "string",
          "name": "lot_number",
          "type": "string"
        },
        {
          "internalType": "address",
          "name": "farmer",
          "type": "address"
        }
      ],
      "name": "getProduceHash",
      "outputs": [
        {
          "internalType": "bytes32",
          "name": "",
          "type": "bytes32"
        }
      ],
      "stateMutability": "view",
      "type": "function"
    },
    {
      "inputs": [
        {
          "internalType": "bytes32",
          "name": "_produceHash",
          "type": "bytes32"
        }
      ],
      "name": "getProduceIndex",
      "outputs": [
        {
          "internalType": "uint256",
          "name": "",
          "type": "uint256"
        }
      ],
      "stateMutability": "view",
      "type": "function"
    },
    {
      "inputs": [
        {
          "internalType": "uint256",
          "name": "index",
          "type": "uint256"
        }
      ],
      "name": "getProduceSale",
      "outputs": [
        {
          "internalType": "bytes32",
          "name": "",
          "type": "bytes32"
        },
        {
          "internalType": "uint256",
          "name": "",
          "type": "uint256"
        },
        {
          "internalType": "address",
          "name": "",
          "type": "address"
        },
        {
          "internalType": "uint256",
          "name": "",
          "type": "uint256"
        },
        {
          "internalType": "uint256",
          "name": "",
          "type": "uint256"
        }
      ],
      "stateMutability": "view",
      "type": "function"
    },
    {
      "inputs": [],
      "name": "getProduceSaleCount",
      "outputs": [
        {
          "internalType": "uint256",
          "name": "",
          "type": "uint256"
        }
      ],
      "stateMutability": "view",
      "type": "function"
    },
    {
      "inputs": [
        {
          "internalType": "uint256",
          "name": "_referenceNumber",
          "type": "uint256"
        }
      ],
      "name": "getProduceSaleIndex",
      "outputs": [
        {
          "internalType": "uint256",
          "name": "",
          "type": "uint256"
        }
      ],
      "stateMutability": "view",
      "type": "function"
    },
    {
      "inputs": [],
      "name": "owner",
      "outputs": [
        {
          "internalType": "address",
          "name": "",
          "type": "address"
        }
      ],
      "stateMutability": "view",
      "type": "function"
    },
    {
      "inputs": [],
      "name": "pomg",
      "outputs": [
        {
          "internalType": "contract ProduceManagement",
          "name": "",
          "type": "address"
        }
      ],
      "stateMutability": "view",
      "type": "function"
    },
    {
      "inputs": [],
      "name": "pown",
      "outputs": [
        {
          "internalType": "contract ProduceOwnershipV2",
          "name": "",
          "type": "address"
        }
      ],
      "stateMutability": "view",
      "type": "function"
    },
    {
      "inputs": [
        {
          "internalType": "bytes32",
          "name": "",
          "type": "bytes32"
        }
      ],
      "name": "producedata",
      "outputs": [
        {
          "internalType": "bytes32",
          "name": "productHash",
          "type": "bytes32"
        }
      ],
      "stateMutability": "view",
      "type": "function"
    },
    {
      "inputs": [
        {
          "internalType": "uint256",
          "name": "",
          "type": "uint256"
        }
      ],
      "name": "productdata",
      "outputs": [
        {
          "internalType": "bytes32",
          "name": "",
          "type": "bytes32"
        }
      ],
      "stateMutability": "view",
      "type": "function"
    },
    {
      "inputs": [
        {
          "internalType": "bytes32",
          "name": "",
          "type": "bytes32"
        }
      ],
      "name": "productindex",
      "outputs": [
        {
          "internalType": "uint256",
          "name": "",
          "type": "uint256"
        }
      ],
      "stateMutability": "view",
      "type": "function"
    },
    {
      "inputs": [
        {
          "internalType": "bytes32",
          "name": "",
          "type": "bytes32"
        }
      ],
      "name": "productsales",
      "outputs": [
        {
          "internalType": "bytes32",
          "name": "consignmentHash",
          "type": "bytes32"
        },
        {
          "internalType": "uint256",
          "name": "referenceNumber",
          "type": "uint256"
        },
        {
          "internalType": "address",
          "name": "buyer",
          "type": "address"
        },
        {
          "internalType": "uint256",
          "name": "amount",
          "type": "uint256"
        },
        {
          "internalType": "uint256",
          "name": "price",
          "type": "uint256"
        },
        {
          "internalType": "string",
          "name": "time",
          "type": "string"
        }
      ],
      "stateMutability": "view",
      "type": "function"
    },
    {
      "inputs": [
        {
          "internalType": "string",
          "name": "_name",
          "type": "string"
        },
        {
          "internalType": "string",
          "name": "_location",
          "type": "string"
        },
        {
          "internalType": "address",
          "name": "_ethAddress",
          "type": "address"
        }
      ],
      "name": "registerFarmer",
      "outputs": [],
      "stateMutability": "nonpayable",
      "type": "function"
    },
    {
      "inputs": [
        {
          "internalType": "uint256",
          "name": "",
          "type": "uint256"
        }
      ],
      "name": "saleindex",
      "outputs": [
        {
          "internalType": "uint256",
          "name": "",
          "type": "uint256"
        }
      ],
      "stateMutability": "view",
      "type": "function"
    },
    {
      "inputs": [
        {
          "internalType": "bytes32",
          "name": "_consignmentHash",
          "type": "bytes32"
        },
        {
          "internalType": "uint256",
          "name": "_referenceNumber",
          "type": "uint256"
        },
        {
          "internalType": "address",
          "name": "_buyer",
          "type": "address"
        },
        {
          "internalType": "uint256",
          "name": "_amount",
          "type": "uint256"
        },
        {
          "internalType": "uint256",
          "name": "_price",
          "type": "uint256"
        },
        {
          "internalType": "string",
          "name": "_timestamp",
          "type": "string"
        }
      ],
      "name": "sellFarmProduce",
      "outputs": [],
      "stateMutability": "nonpayable",
      "type": "function"
    },
    {
      "inputs": [
        {
          "internalType": "address",
          "name": "_ethAddress",
          "type": "address"
        }
      ],
      "name": "verifyFarmer",
      "outputs": [],
      "stateMutability": "nonpayable",
      "type": "function"
    }
  ],
  "bytecode": "0x60806040523480156200001157600080fd5b50604051620040693803806200406983398181016040528101906200003791906200016c565b33601160006101000a81548173ffffffffffffffffffffffffffffffffffffffff021916908373ffffffffffffffffffffffffffffffffffffffff16021790555081601260006101000a81548173ffffffffffffffffffffffffffffffffffffffff021916908373ffffffffffffffffffffffffffffffffffffffff16021790555080601360006101000a81548173ffffffffffffffffffffffffffffffffffffffff021916908373ffffffffffffffffffffffffffffffffffffffff1602179055505050620001b3565b600080fd5b600073ffffffffffffffffffffffffffffffffffffffff82169050919050565b6000620001348262000107565b9050919050565b620001468162000127565b81146200015257600080fd5b50565b60008151905062000166816200013b565b92915050565b6000806040838503121562000186576200018562000102565b5b6000620001968582860162000155565b9250506020620001a98582860162000155565b9150509250929050565b613ea680620001c36000396000f3fe608060405234801561001057600080fd5b50600436106101e55760003560e01c80638e6c4db21161010f578063c7bb4b87116100a2578063d070377c11610071578063d070377c1461067f578063e0e3d6311461069d578063e149c4e3146106b9578063e7609c16146106e9576101e5565b8063c7bb4b87146105d1578063ce0ed6ad146105ef578063cf3d42c81461061f578063d01a26b91461064f576101e5565b8063a12b67f1116100de578063a12b67f11461051e578063a7d697ed1461054e578063ac7fc9351461057e578063c4a8b5d5146105b3576101e5565b80638e6c4db21461046d57806391ef8f661461048b5780639c00cb65146104bb5780639f1405b9146104eb576101e5565b8063401b216811610187578063797cc64a11610156578063797cc64a146103cb5780638c09a573146103e75780638da5cb5b1461041c5780638e0d02f61461043a576101e5565b8063401b2168146103185780634e977be71461034b5780635c0b1acd1461037b57806363a3cd8814610397576101e5565b80631fac4fc9116101c35780631fac4fc91461027a578063235db9f51461029857806330ebdddd146102b4578063389b8066146102e4576101e5565b80630d24acb6146101ea5780630d8032901461021a57806312e33b821461024a575b600080fd5b61020460048036038101906101ff919061285e565b61071c565b604051610211919061289a565b60405180910390f35b610234600480360381019061022f919061285e565b61073a565b60405161024191906128ce565b60405180910390f35b610264600480360381019061025f919061285e565b610752565b604051610271919061289a565b60405180910390f35b61028261076a565b60405161028f91906128ce565b60405180910390f35b6102b260048036038101906102ad9190612947565b610777565b005b6102ce60048036038101906102c99190612aba565b610982565b6040516102db919061289a565b60405180910390f35b6102fe60048036038101906102f99190612ba1565b610bfa565b60405161030f959493929190612d1a565b60405180910390f35b610332600480360381019061032d9190612947565b610dcf565b6040516103429493929190612d96565b60405180910390f35b61036560048036038101906103609190612de9565b610f3c565b604051610372919061289a565b60405180910390f35b61039560048036038101906103909190612e45565b61101f565b005b6103b160048036038101906103ac9190612ba1565b61125a565b6040516103c2959493929190612ed0565b60405180910390f35b6103e560048036038101906103e09190612f23565b61131c565b005b61040160048036038101906103fc9190612ba1565b6117d5565b60405161041396959493929190612fcc565b60405180910390f35b6104246118c9565b6040516104319190613034565b60405180910390f35b610454600480360381019061044f9190612ba1565b6118ef565b604051610464949392919061304f565b60405180910390f35b6104756119d7565b60405161048291906130fa565b60405180910390f35b6104a560048036038101906104a09190612de9565b6119fd565b6040516104b2919061289a565b60405180910390f35b6104d560048036038101906104d09190612ba1565b611ae0565b6040516104e29190613034565b60405180910390f35b6105056004803603810190610500919061285e565b611b1f565b604051610515949392919061304f565b60405180910390f35b6105386004803603810190610533919061285e565b611bf7565b60405161054591906128ce565b60405180910390f35b61056860048036038101906105639190612aba565b611c14565b604051610575919061289a565b60405180910390f35b6105986004803603810190610593919061285e565b611e05565b6040516105aa96959493929190612fcc565b60405180910390f35b6105bb611ee9565b6040516105c891906128ce565b60405180910390f35b6105d9611ef6565b6040516105e69190613136565b60405180910390f35b61060960048036038101906106049190612ba1565b611f1c565b60405161061691906128ce565b60405180910390f35b61063960048036038101906106349190612ba1565b611f34565b604051610646919061289a565b60405180910390f35b6106696004803603810190610664919061285e565b611f4f565b604051610676919061289a565b60405180910390f35b610687611f67565b60405161069491906128ce565b60405180910390f35b6106b760048036038101906106b29190613219565b611f74565b005b6106d360048036038101906106ce9190612ba1565b612496565b6040516106e091906128ce565b60405180910390f35b61070360048036038101906106fe9190612947565b6124b3565b6040516107139493929190612d96565b60405180910390f35b60076020528060005260406000206000915090508060000154905081565b60016020528060005260406000206000915090505481565b60066020528060005260406000206000915090505481565b6000600f80549050905090565b601160009054906101000a900473ffffffffffffffffffffffffffffffffffffffff1673ffffffffffffffffffffffffffffffffffffffff163373ffffffffffffffffffffffffffffffffffffffff1614610807576040517f08c379a00000000000000000000000000000000000000000000000000000000081526004016107fe906133b9565b60405180910390fd5b600073ffffffffffffffffffffffffffffffffffffffff166000808373ffffffffffffffffffffffffffffffffffffffff1673ffffffffffffffffffffffffffffffffffffffff16815260200190815260200160002060020160009054906101000a900473ffffffffffffffffffffffffffffffffffffffff1673ffffffffffffffffffffffffffffffffffffffff16036108d7576040517f08c379a00000000000000000000000000000000000000000000000000000000081526004016108ce90613425565b60405180910390fd5b60016000808373ffffffffffffffffffffffffffffffffffffffff1673ffffffffffffffffffffffffffffffffffffffff16815260200190815260200160002060020160146101000a81548160ff0219169083151502179055508073ffffffffffffffffffffffffffffffffffffffff167fea8fb419111481ddf23f46f716977ce4313705081e37049fda136377a3a6a9294260405161097791906128ce565b60405180910390a250565b600084600115156000808373ffffffffffffffffffffffffffffffffffffffff1673ffffffffffffffffffffffffffffffffffffffff16815260200190815260200160002060020160149054906101000a900460ff16151514610a1a576040517f08c379a0000000000000000000000000000000000000000000000000000000008152600401610a11906134b7565b60405180910390fd5b60008587604051602001610a2f92919061355b565b604051602081830303815290604052805190602001209050600060076000838152602001908152602001600020600101600680602002604051908101604052809291908260068015610a96576020028201915b815481526020019060010190808311610a82575b505050505090506000601360009054906101000a900473ffffffffffffffffffffffffffffffffffffffff1673ffffffffffffffffffffffffffffffffffffffff16637d78dfbd8a8a8a8a876040518663ffffffff1660e01b8152600401610b0295949392919061362e565b6020604051808303816000875af1158015610b21573d6000803e3d6000fd5b505050506040513d601f19601f82011682018060405250810190610b4591906136ac565b9050601260009054906101000a900473ffffffffffffffffffffffffffffffffffffffff1673ffffffffffffffffffffffffffffffffffffffff16635599e05a8a6001846040518463ffffffff1660e01b8152600401610ba793929190613714565b6020604051808303816000875af1158015610bc6573d6000803e3d6000fd5b505050506040513d601f19601f82011682018060405250810190610bea9190613777565b5080945050505050949350505050565b600060606000806060600f805490508610610c4a576040517f08c379a0000000000000000000000000000000000000000000000000000000008152600401610c41906137f0565b60405180910390fd5b6000600f8781548110610c6057610c5f613810565b5b906000526020600020906005020190508060000154816001018260020160009054906101000a900473ffffffffffffffffffffffffffffffffffffffff16836003015484600401838054610cb39061386e565b80601f0160208091040260200160405190810160405280929190818152602001828054610cdf9061386e565b8015610d2c5780601f10610d0157610100808354040283529160200191610d2c565b820191906000526020600020905b815481529060010190602001808311610d0f57829003601f168201915b5050505050935080805480602002602001604051908101604052809291908181526020018280548015610db457602002820191906000526020600020905b8160009054906101000a900473ffffffffffffffffffffffffffffffffffffffff1673ffffffffffffffffffffffffffffffffffffffff1681526020019060010190808311610d6a575b50505050509050955095509550955095505091939590929450565b6000602052806000526040600020600091509050806000018054610df29061386e565b80601f0160208091040260200160405190810160405280929190818152602001828054610e1e9061386e565b8015610e6b5780601f10610e4057610100808354040283529160200191610e6b565b820191906000526020600020905b815481529060010190602001808311610e4e57829003601f168201915b505050505090806001018054610e809061386e565b80601f0160208091040260200160405190810160405280929190818152602001828054610eac9061386e565b8015610ef95780601f10610ece57610100808354040283529160200191610ef9565b820191906000526020600020905b815481529060010190602001808311610edc57829003601f168201915b5050505050908060020160009054906101000a900473ffffffffffffffffffffffffffffffffffffffff16908060020160149054906101000a900460ff16905084565b600081600115156000808373ffffffffffffffffffffffffffffffffffffffff1673ffffffffffffffffffffffffffffffffffffffff16815260200190815260200160002060020160149054906101000a900460ff16151514610fd4576040517f08c379a0000000000000000000000000000000000000000000000000000000008152600401610fcb906134b7565b60405180910390fd5b60008484604051602001610fe992919061355b565b60405160208183030381529060405280519060200120905060066000828152602001908152602001600020549250505092915050565b600073ffffffffffffffffffffffffffffffffffffffff168173ffffffffffffffffffffffffffffffffffffffff160361108e576040517f08c379a0000000000000000000000000000000000000000000000000000000008152600401611085906138eb565b60405180910390fd5b600060405180608001604052808581526020018481526020018373ffffffffffffffffffffffffffffffffffffffff168152602001600015158152509050806000808473ffffffffffffffffffffffffffffffffffffffff1673ffffffffffffffffffffffffffffffffffffffff16815260200190815260200160002060008201518160000190816111209190613aad565b5060208201518160010190816111369190613aad565b5060408201518160020160006101000a81548173ffffffffffffffffffffffffffffffffffffffff021916908373ffffffffffffffffffffffffffffffffffffffff16021790555060608201518160020160146101000a81548160ff0219169083151502179055509050506008829080600181540180825580915050600190039060005260206000200160009091909190916101000a81548173ffffffffffffffffffffffffffffffffffffffff021916908373ffffffffffffffffffffffffffffffffffffffff1602179055508173ffffffffffffffffffffffffffffffffffffffff167f410a9489a5427585a7b8116b854cd41394a92f728eba3846cf87d4ce92386432854260405161124c929190613b7f565b60405180910390a250505050565b600080600080600060108054905086106112a9576040517f08c379a00000000000000000000000000000000000000000000000000000000081526004016112a0906137f0565b60405180910390fd5b6000601087815481106112bf576112be613810565b5b90600052602060002090600602019050806000015481600101548260020160009054906101000a900473ffffffffffffffffffffffffffffffffffffffff1683600301548460040154955095509550955095505091939590929450565b60006006600088815260200190815260200160002054905060006002600083815260200190815260200160002060020160009054906101000a900473ffffffffffffffffffffffffffffffffffffffff169050600073ffffffffffffffffffffffffffffffffffffffff168673ffffffffffffffffffffffffffffffffffffffff16141580156113d95750600073ffffffffffffffffffffffffffffffffffffffff168173ffffffffffffffffffffffffffffffffffffffff1614155b611418576040517f08c379a000000000000000000000000000000000000000000000000000000000815260040161140f90613bfb565b60405180910390fd5b600061142383611bf7565b90506000600f828154811061143b5761143a613810565b5b906000526020600020906005020160030154905080871115611492576040517f08c379a000000000000000000000000000000000000000000000000000000000815260040161148990613c67565b60405180910390fd5b60006040518060c001604052808c81526020018b81526020018a73ffffffffffffffffffffffffffffffffffffffff1681526020018981526020018881526020018781525090506010819080600181540180825580915050600190039060005260206000209060060201600090919091909150600082015181600001556020820151816001015560408201518160020160006101000a81548173ffffffffffffffffffffffffffffffffffffffff021916908373ffffffffffffffffffffffffffffffffffffffff160217905550606082015181600301556080820151816004015560a08201518160050190816115899190613aad565b505050601260009054906101000a900473ffffffffffffffffffffffffffffffffffffffff1673ffffffffffffffffffffffffffffffffffffffff16639e30ef748560008e8d6040518563ffffffff1660e01b81526004016115ee9493929190613cc2565b6020604051808303816000875af115801561160d573d6000803e3d6000fd5b505050506040513d601f19601f820116820180604052508101906116319190613777565b5087600f848154811061164757611646613810565b5b906000526020600020906005020160030160008282546116679190613d36565b925050819055506000611678611f67565b90506000811115611693576001816116909190613d36565b90505b80600360008d8152602001908152602001600020819055508a600460008e81526020019081526020016000206001018190555089600460008e815260200190815260200160002060020160006101000a81548173ffffffffffffffffffffffffffffffffffffffff021916908373ffffffffffffffffffffffffffffffffffffffff16021790555088600460008e81526020019081526020016000206003018190555087600460008e81526020019081526020016000206004018190555086600460008e815260200190815260200160002060050190816117749190613aad565b508473ffffffffffffffffffffffffffffffffffffffff167fd8e472d3dd76781849890d81c5b0566a834d86725e397b82689592634841c0758d8d426040516117bf93929190613d6a565b60405180910390a2505050505050505050505050565b601081815481106117e557600080fd5b90600052602060002090600602016000915090508060000154908060010154908060020160009054906101000a900473ffffffffffffffffffffffffffffffffffffffff16908060030154908060040154908060050180546118469061386e565b80601f01602080910402602001604051908101604052809291908181526020018280546118729061386e565b80156118bf5780601f10611894576101008083540402835291602001916118bf565b820191906000526020600020905b8154815290600101906020018083116118a257829003601f168201915b5050505050905086565b601160009054906101000a900473ffffffffffffffffffffffffffffffffffffffff1681565b600f81815481106118ff57600080fd5b90600052602060002090600502016000915090508060000154908060010180546119289061386e565b80601f01602080910402602001604051908101604052809291908181526020018280546119549061386e565b80156119a15780601f10611976576101008083540402835291602001916119a1565b820191906000526020600020905b81548152906001019060200180831161198457829003601f168201915b5050505050908060020160009054906101000a900473ffffffffffffffffffffffffffffffffffffffff16908060030154905084565b601260009054906101000a900473ffffffffffffffffffffffffffffffffffffffff1681565b600081600115156000808373ffffffffffffffffffffffffffffffffffffffff1673ffffffffffffffffffffffffffffffffffffffff16815260200190815260200160002060020160149054906101000a900460ff16151514611a95576040517f08c379a0000000000000000000000000000000000000000000000000000000008152600401611a8c906134b7565b60405180910390fd5b60008484604051602001611aaa92919061355b565b60405160208183030381529060405280519060200120905060056000828152602001908152602001600020549250505092915050565b60088181548110611af057600080fd5b906000526020600020016000915054906101000a900473ffffffffffffffffffffffffffffffffffffffff1681565b6002602052806000526040600020600091509050806000015490806001018054611b489061386e565b80601f0160208091040260200160405190810160405280929190818152602001828054611b749061386e565b8015611bc15780601f10611b9657610100808354040283529160200191611bc1565b820191906000526020600020905b815481529060010190602001808311611ba457829003601f168201915b5050505050908060020160009054906101000a900473ffffffffffffffffffffffffffffffffffffffff16908060030154905084565b600060016000838152602001908152602001600020549050919050565b600084600115156000808373ffffffffffffffffffffffffffffffffffffffff1673ffffffffffffffffffffffffffffffffffffffff16815260200190815260200160002060020160149054906101000a900460ff16151514611cac576040517f08c379a0000000000000000000000000000000000000000000000000000000008152600401611ca3906134b7565b60405180910390fd5b6000601360009054906101000a900473ffffffffffffffffffffffffffffffffffffffff1673ffffffffffffffffffffffffffffffffffffffff16633dd5d5c7888888886040518563ffffffff1660e01b8152600401611d0f9493929190613da1565b6020604051808303816000875af1158015611d2e573d6000803e3d6000fd5b505050506040513d601f19601f82011682018060405250810190611d5291906136ac565b9050601260009054906101000a900473ffffffffffffffffffffffffffffffffffffffff1673ffffffffffffffffffffffffffffffffffffffff16635599e05a886000846040518463ffffffff1660e01b8152600401611db493929190613dfb565b6020604051808303816000875af1158015611dd3573d6000803e3d6000fd5b505050506040513d601f19601f82011682018060405250810190611df79190613777565b508092505050949350505050565b60046020528060005260406000206000915090508060000154908060010154908060020160009054906101000a900473ffffffffffffffffffffffffffffffffffffffff1690806003015490806004015490806005018054611e669061386e565b80601f0160208091040260200160405190810160405280929190818152602001828054611e929061386e565b8015611edf5780601f10611eb457610100808354040283529160200191611edf565b820191906000526020600020905b815481529060010190602001808311611ec257829003601f168201915b5050505050905086565b6000600880549050905090565b601360009054906101000a900473ffffffffffffffffffffffffffffffffffffffff1681565b60036020528060005260406000206000915090505481565b60098160068110611f4457600080fd5b016000915090505481565b60056020528060005260406000206000915090505481565b6000601080549050905090565b601160009054906101000a900473ffffffffffffffffffffffffffffffffffffffff1673ffffffffffffffffffffffffffffffffffffffff163373ffffffffffffffffffffffffffffffffffffffff1614612004576040517f08c379a0000000000000000000000000000000000000000000000000000000008152600401611ffb906133b9565b60405180910390fd5b81600115156000808373ffffffffffffffffffffffffffffffffffffffff1673ffffffffffffffffffffffffffffffffffffffff16815260200190815260200160002060020160149054906101000a900460ff1615151461209a576040517f08c379a0000000000000000000000000000000000000000000000000000000008152600401612091906134b7565b60405180910390fd5b60006120a884898988611c14565b90506000601360009054906101000a900473ffffffffffffffffffffffffffffffffffffffff1673ffffffffffffffffffffffffffffffffffffffff16632e408ef0868b8d8a6040518563ffffffff1660e01b815260040161210d9493929190613da1565b602060405180830381865afa15801561212a573d6000803e3d6000fd5b505050506040513d601f19601f8201168201806040525081019061214e91906136ac565b90508060056000848152602001908152602001600020819055506000898660405160200161217d92919061355b565b6040516020818303038152906040528051906020012090508260056000838152602001908152602001600020819055508260096000600681106121c3576121c2613810565b5b01819055508160096001600681106121de576121dd613810565b5b01819055508060096002600681106121f9576121f8613810565b5b018190555080600760008381526020019081526020016000206000018190555060096007600083815260200190815260200160002060010190600661223f929190612713565b5060006040518060a001604052808481526020018d81526020018873ffffffffffffffffffffffffffffffffffffffff1681526020018a8152602001878152509050600f8190806001815401808255809150506001900390600052602060002090600502016000909190919091506000820151816000015560208201518160010190816122cc9190613aad565b5060408201518160020160006101000a81548173ffffffffffffffffffffffffffffffffffffffff021916908373ffffffffffffffffffffffffffffffffffffffff16021790555060608201518160030155608082015181600401908051906020019061233a929190612750565b505050600061234761076a565b905060008111156123625760018161235f9190613d36565b90505b806001600086815260200190815260200160002081905550836002600086815260200190815260200160002060000181905550876002600086815260200190815260200160002060020160006101000a81548173ffffffffffffffffffffffffffffffffffffffff021916908373ffffffffffffffffffffffffffffffffffffffff1602179055508460046000878152602001908152602001600020600001819055508360066000858152602001908152602001600020819055508360066000878152602001908152602001600020819055508773ffffffffffffffffffffffffffffffffffffffff167f69f424df462d3aab52240ab26d892e9353148a6587bbabaca097a7b88f4698b1858f4260405161247f93929190613e32565b60405180910390a250505050505050505050505050565b600060036000838152602001908152602001600020549050919050565b6060806000806000808673ffffffffffffffffffffffffffffffffffffffff1673ffffffffffffffffffffffffffffffffffffffff1681526020019081526020016000206000016000808773ffffffffffffffffffffffffffffffffffffffff1673ffffffffffffffffffffffffffffffffffffffff1681526020019081526020016000206001016000808873ffffffffffffffffffffffffffffffffffffffff1673ffffffffffffffffffffffffffffffffffffffff16815260200190815260200160002060020160009054906101000a900473ffffffffffffffffffffffffffffffffffffffff166000808973ffffffffffffffffffffffffffffffffffffffff1673ffffffffffffffffffffffffffffffffffffffff16815260200190815260200160002060020160149054906101000a900460ff168380546125f89061386e565b80601f01602080910402602001604051908101604052809291908181526020018280546126249061386e565b80156126715780601f1061264657610100808354040283529160200191612671565b820191906000526020600020905b81548152906001019060200180831161265457829003601f168201915b505050505093508280546126849061386e565b80601f01602080910402602001604051908101604052809291908181526020018280546126b09061386e565b80156126fd5780601f106126d2576101008083540402835291602001916126fd565b820191906000526020600020905b8154815290600101906020018083116126e057829003601f168201915b5050505050925093509350935093509193509193565b826006810192821561273f579182015b8281111561273e578254825591600101919060010190612723565b5b50905061274c91906127da565b5090565b8280548282559060005260206000209081019282156127c9579160200282015b828111156127c85782518260006101000a81548173ffffffffffffffffffffffffffffffffffffffff021916908373ffffffffffffffffffffffffffffffffffffffff16021790555091602001919060010190612770565b5b5090506127d691906127f7565b5090565b5b808211156127f35760008160009055506001016127db565b5090565b5b808211156128105760008160009055506001016127f8565b5090565b6000604051905090565b600080fd5b600080fd5b6000819050919050565b61283b81612828565b811461284657600080fd5b50565b60008135905061285881612832565b92915050565b6000602082840312156128745761287361281e565b5b600061288284828501612849565b91505092915050565b61289481612828565b82525050565b60006020820190506128af600083018461288b565b92915050565b6000819050919050565b6128c8816128b5565b82525050565b60006020820190506128e360008301846128bf565b92915050565b600073ffffffffffffffffffffffffffffffffffffffff82169050919050565b6000612914826128e9565b9050919050565b61292481612909565b811461292f57600080fd5b50565b6000813590506129418161291b565b92915050565b60006020828403121561295d5761295c61281e565b5b600061296b84828501612932565b91505092915050565b600080fd5b600080fd5b6000601f19601f8301169050919050565b7f4e487b7100000000000000000000000000000000000000000000000000000000600052604160045260246000fd5b6129c78261297e565b810181811067ffffffffffffffff821117156129e6576129e561298f565b5b80604052505050565b60006129f9612814565b9050612a0582826129be565b919050565b600067ffffffffffffffff821115612a2557612a2461298f565b5b612a2e8261297e565b9050602081019050919050565b82818337600083830152505050565b6000612a5d612a5884612a0a565b6129ef565b905082815260208101848484011115612a7957612a78612979565b5b612a84848285612a3b565b509392505050565b600082601f830112612aa157612aa0612974565b5b8135612ab1848260208601612a4a565b91505092915050565b60008060008060808587031215612ad457612ad361281e565b5b6000612ae287828801612932565b945050602085013567ffffffffffffffff811115612b0357612b02612823565b5b612b0f87828801612a8c565b935050604085013567ffffffffffffffff811115612b3057612b2f612823565b5b612b3c87828801612a8c565b925050606085013567ffffffffffffffff811115612b5d57612b5c612823565b5b612b6987828801612a8c565b91505092959194509250565b612b7e816128b5565b8114612b8957600080fd5b50565b600081359050612b9b81612b75565b92915050565b600060208284031215612bb757612bb661281e565b5b6000612bc584828501612b8c565b91505092915050565b600081519050919050565b600082825260208201905092915050565b60005b83811015612c08578082015181840152602081019050612bed565b60008484015250505050565b6000612c1f82612bce565b612c298185612bd9565b9350612c39818560208601612bea565b612c428161297e565b840191505092915050565b612c5681612909565b82525050565b600081519050919050565b600082825260208201905092915050565b6000819050602082019050919050565b612c9181612909565b82525050565b6000612ca38383612c88565b60208301905092915050565b6000602082019050919050565b6000612cc782612c5c565b612cd18185612c67565b9350612cdc83612c78565b8060005b83811015612d0d578151612cf48882612c97565b9750612cff83612caf565b925050600181019050612ce0565b5085935050505092915050565b600060a082019050612d2f600083018861288b565b8181036020830152612d418187612c14565b9050612d506040830186612c4d565b612d5d60608301856128bf565b8181036080830152612d6f8184612cbc565b90509695505050505050565b60008115159050919050565b612d9081612d7b565b82525050565b60006080820190508181036000830152612db08187612c14565b90508181036020830152612dc48186612c14565b9050612dd36040830185612c4d565b612de06060830184612d87565b95945050505050565b60008060408385031215612e0057612dff61281e565b5b600083013567ffffffffffffffff811115612e1e57612e1d612823565b5b612e2a85828601612a8c565b9250506020612e3b85828601612932565b9150509250929050565b600080600060608486031215612e5e57612e5d61281e565b5b600084013567ffffffffffffffff811115612e7c57612e7b612823565b5b612e8886828701612a8c565b935050602084013567ffffffffffffffff811115612ea957612ea8612823565b5b612eb586828701612a8c565b9250506040612ec686828701612932565b9150509250925092565b600060a082019050612ee5600083018861288b565b612ef260208301876128bf565b612eff6040830186612c4d565b612f0c60608301856128bf565b612f1960808301846128bf565b9695505050505050565b60008060008060008060c08789031215612f4057612f3f61281e565b5b6000612f4e89828a01612849565b9650506020612f5f89828a01612b8c565b9550506040612f7089828a01612932565b9450506060612f8189828a01612b8c565b9350506080612f9289828a01612b8c565b92505060a087013567ffffffffffffffff811115612fb357612fb2612823565b5b612fbf89828a01612a8c565b9150509295509295509295565b600060c082019050612fe1600083018961288b565b612fee60208301886128bf565b612ffb6040830187612c4d565b61300860608301866128bf565b61301560808301856128bf565b81810360a08301526130278184612c14565b9050979650505050505050565b60006020820190506130496000830184612c4d565b92915050565b6000608082019050613064600083018761288b565b81810360208301526130768186612c14565b90506130856040830185612c4d565b61309260608301846128bf565b95945050505050565b6000819050919050565b60006130c06130bb6130b6846128e9565b61309b565b6128e9565b9050919050565b60006130d2826130a5565b9050919050565b60006130e4826130c7565b9050919050565b6130f4816130d9565b82525050565b600060208201905061310f60008301846130eb565b92915050565b6000613120826130c7565b9050919050565b61313081613115565b82525050565b600060208201905061314b6000830184613127565b92915050565b600067ffffffffffffffff82111561316c5761316b61298f565b5b602082029050602081019050919050565b600080fd5b600061319561319084613151565b6129ef565b905080838252602082019050602084028301858111156131b8576131b761317d565b5b835b818110156131e157806131cd8882612932565b8452602084019350506020810190506131ba565b5050509392505050565b600082601f830112613200576131ff612974565b5b8135613210848260208601613182565b91505092915050565b600080600080600080600060e0888a0312156132385761323761281e565b5b600088013567ffffffffffffffff81111561325657613255612823565b5b6132628a828b01612a8c565b975050602088013567ffffffffffffffff81111561328357613282612823565b5b61328f8a828b01612a8c565b965050604088013567ffffffffffffffff8111156132b0576132af612823565b5b6132bc8a828b01612a8c565b95505060606132cd8a828b01612b8c565b945050608088013567ffffffffffffffff8111156132ee576132ed612823565b5b6132fa8a828b01612a8c565b93505060a061330b8a828b01612932565b92505060c088013567ffffffffffffffff81111561332c5761332b612823565b5b6133388a828b016131eb565b91505092959891949750929550565b7f4f6e6c7920746865206f776e65722063616e20706572666f726d20746869732060008201527f616374696f6e0000000000000000000000000000000000000000000000000000602082015250565b60006133a3602683612bd9565b91506133ae82613347565b604082019050919050565b600060208201905081810360008301526133d281613396565b9050919050565b7f4661726d6572206e6f7420726567697374657265640000000000000000000000600082015250565b600061340f601583612bd9565b915061341a826133d9565b602082019050919050565b6000602082019050818103600083015261343e81613402565b9050919050565b7f4f6e6c7920746865206661726d65722063616e2073656c6c207468697320707260008201527f6f64756374000000000000000000000000000000000000000000000000000000602082015250565b60006134a1602583612bd9565b91506134ac82613445565b604082019050919050565b600060208201905081810360008301526134d081613494565b9050919050565b600081905092915050565b60006134ed82612bce565b6134f781856134d7565b9350613507818560208601612bea565b80840191505092915050565b60008160601b9050919050565b600061352b82613513565b9050919050565b600061353d82613520565b9050919050565b61355561355082612909565b613532565b82525050565b600061356782856134e2565b91506135738284613544565b6014820191508190509392505050565b600060069050919050565b600081905092915050565b6000819050919050565b6135ac81612828565b82525050565b60006135be83836135a3565b60208301905092915050565b6000602082019050919050565b6135e081613583565b6135ea818461358e565b92506135f582613599565b8060005b8381101561362657815161360d87826135b2565b9650613618836135ca565b9250506001810190506135f9565b505050505050565b6000610140820190506136446000830188612c4d565b81810360208301526136568187612c14565b9050818103604083015261366a8186612c14565b9050818103606083015261367e8185612c14565b905061368d60808301846135d7565b9695505050505050565b6000815190506136a681612832565b92915050565b6000602082840312156136c2576136c161281e565b5b60006136d084828501613697565b91505092915050565b6000819050919050565b60006136fe6136f96136f4846136d9565b61309b565b6128b5565b9050919050565b61370e816136e3565b82525050565b60006060820190506137296000830186612c4d565b6137366020830185613705565b613743604083018461288b565b949350505050565b61375481612d7b565b811461375f57600080fd5b50565b6000815190506137718161374b565b92915050565b60006020828403121561378d5761378c61281e565b5b600061379b84828501613762565b91505092915050565b7f496e76616c696420696e64657800000000000000000000000000000000000000600082015250565b60006137da600d83612bd9565b91506137e5826137a4565b602082019050919050565b60006020820190508181036000830152613809816137cd565b9050919050565b7f4e487b7100000000000000000000000000000000000000000000000000000000600052603260045260246000fd5b7f4e487b7100000000000000000000000000000000000000000000000000000000600052602260045260246000fd5b6000600282049050600182168061388657607f821691505b6020821081036138995761389861383f565b5b50919050565b7f4661726d6572206164647265737320696e76616c696400000000000000000000600082015250565b60006138d5601683612bd9565b91506138e08261389f565b602082019050919050565b60006020820190508181036000830152613904816138c8565b9050919050565b60008190508160005260206000209050919050565b60006020601f8301049050919050565b600082821b905092915050565b60006008830261396d7fffffffffffffffffffffffffffffffffffffffffffffffffffffffffffffffff82613930565b6139778683613930565b95508019841693508086168417925050509392505050565b60006139aa6139a56139a0846128b5565b61309b565b6128b5565b9050919050565b6000819050919050565b6139c48361398f565b6139d86139d0826139b1565b84845461393d565b825550505050565b600090565b6139ed6139e0565b6139f88184846139bb565b505050565b5b81811015613a1c57613a116000826139e5565b6001810190506139fe565b5050565b601f821115613a6157613a328161390b565b613a3b84613920565b81016020851015613a4a578190505b613a5e613a5685613920565b8301826139fd565b50505b505050565b600082821c905092915050565b6000613a8460001984600802613a66565b1980831691505092915050565b6000613a9d8383613a73565b9150826002028217905092915050565b613ab682612bce565b67ffffffffffffffff811115613acf57613ace61298f565b5b613ad9825461386e565b613ae4828285613a20565b600060209050601f831160018114613b175760008415613b05578287015190505b613b0f8582613a91565b865550613b77565b601f198416613b258661390b565b60005b82811015613b4d57848901518255600182019150602085019450602081019050613b28565b86831015613b6a5784890151613b66601f891682613a73565b8355505b6001600288020188555050505b505050505050565b60006040820190508181036000830152613b998185612c14565b9050613ba860208301846128bf565b9392505050565b7f4275796572206f72204661726d6572206164647265737320696e76616c696400600082015250565b6000613be5601f83612bd9565b9150613bf082613baf565b602082019050919050565b60006020820190508181036000830152613c1481613bd8565b9050919050565b7f496e73756666696369656e742070726f6475636520746f2073656c6c00000000600082015250565b6000613c51601c83612bd9565b9150613c5c82613c1b565b602082019050919050565b60006020820190508181036000830152613c8081613c44565b9050919050565b6000819050919050565b6000613cac613ca7613ca284613c87565b61309b565b6128b5565b9050919050565b613cbc81613c91565b82525050565b6000608082019050613cd76000830187612c4d565b613ce46020830186613cb3565b613cf1604083018561288b565b613cfe6060830184612c4d565b95945050505050565b7f4e487b7100000000000000000000000000000000000000000000000000000000600052601160045260246000fd5b6000613d41826128b5565b9150613d4c836128b5565b9250828203905081811115613d6457613d63613d07565b5b92915050565b6000606082019050613d7f600083018661288b565b613d8c60208301856128bf565b613d9960408301846128bf565b949350505050565b6000608082019050613db66000830187612c4d565b8181036020830152613dc88186612c14565b90508181036040830152613ddc8185612c14565b90508181036060830152613df08184612c14565b905095945050505050565b6000606082019050613e106000830186612c4d565b613e1d6020830185613cb3565b613e2a604083018461288b565b949350505050565b6000606082019050613e47600083018661288b565b8181036020830152613e598185612c14565b9050613e6860408301846128bf565b94935050505056fea264697066735822122067ca5b60c02fd68ef97e189a133010d5e98f478509d5fd3a44eccb56278cc41964736f6c63430008180033",
  "linkReferences": {},
  "deployedLinkReferences": {}
}