{
  "_format": "hh-sol-artifact-1",
  "contractName": "ProduceManagement",
  "sourceName": "contracts/supply chain/ProduceManagement.sol",
  "abi": [
    {
      "inputs": [],
      "stateMutability": "nonpayable",
      "type": "constructor"
    },
    {
      "inputs": [
        {
          "internalType": "bytes32",
          "name": "",
          "type": "bytes32"
        }
      ],
      "name": "consignments",
      "outputs": [
        {
          "internalType": "address",
          "name": "farmer",
          "type": "address"
        },
        {
          "internalType": "string",
          "name": "consz_lot_number",
          "type": "string"
        },
        {
          "internalType": "string",
          "name": "consignment_weight",
          "type": "string"
        },
        {
          "internalType": "string",
          "name": "creation_date",
          "type": "string"
        }
      ],
      "stateMutability": "view",
      "type": "function"
    },
    {
      "inputs": [
        {
          "internalType": "address",
          "name": "a1",
          "type": "address"
        },
        {
          "internalType": "string",
          "name": "s1",
          "type": "string"
        },
        {
          "internalType": "string",
          "name": "s2",
          "type": "string"
        },
        {
          "internalType": "string",
          "name": "s3",
          "type": "string"
        }
      ],
      "name": "createHashFromInfo",
      "outputs": [
        {
          "internalType": "bytes32",
          "name": "",
          "type": "bytes32"
        }
      ],
      "stateMutability": "pure",
      "type": "function"
    },
    {
      "inputs": [
        {
          "internalType": "bytes32",
          "name": "produce_hash",
          "type": "bytes32"
        }
      ],
      "name": "getConsignments",
      "outputs": [
        {
          "internalType": "bytes32[6]",
          "name": "",
          "type": "bytes32[6]"
        }
      ],
      "stateMutability": "view",
      "type": "function"
    },
    {
      "inputs": [
        {
          "internalType": "bytes32",
          "name": "",
          "type": "bytes32"
        }
      ],
      "name": "produces",
      "outputs": [
        {
          "internalType": "address",
          "name": "farmer",
          "type": "address"
        },
        {
          "internalType": "string",
          "name": "consz_lot_number",
          "type": "string"
        },
        {
          "internalType": "string",
          "name": "produce_type",
          "type": "string"
        },
        {
          "internalType": "string",
          "name": "creation_date",
          "type": "string"
        }
      ],
      "stateMutability": "view",
      "type": "function"
    },
    {
      "inputs": [
        {
          "internalType": "address",
          "name": "farmer",
          "type": "address"
        },
        {
          "internalType": "string",
          "name": "consz_lot_number",
          "type": "string"
        },
        {
          "internalType": "string",
          "name": "consignment_weight",
          "type": "string"
        },
        {
          "internalType": "string",
          "name": "creation_date",
          "type": "string"
        }
      ],
      "name": "registerConsignment",
      "outputs": [
        {
          "internalType": "bytes32",
          "name": "",
          "type": "bytes32"
        }
      ],
      "stateMutability": "nonpayable",
      "type": "function"
    },
    {
      "inputs": [
        {
          "internalType": "address",
          "name": "farmer",
          "type": "address"
        },
        {
          "internalType": "string",
          "name": "consz_lot_number",
          "type": "string"
        },
        {
          "internalType": "string",
          "name": "produce_type",
          "type": "string"
        },
        {
          "internalType": "string",
          "name": "creation_date",
          "type": "string"
        },
        {
          "internalType": "bytes32[6]",
          "name": "unit_array",
          "type": "bytes32[6]"
        }
      ],
      "name": "registerProduce",
      "outputs": [
        {
          "internalType": "bytes32",
          "name": "",
          "type": "bytes32"
        }
      ],
      "stateMutability": "nonpayable",
      "type": "function"
    }
  ],
  "bytecode": "0x608060405234801561001057600080fd5b506119dd806100206000396000f3fe608060405234801561001057600080fd5b50600436106100625760003560e01c80632e408ef0146100675780633bc7834e146100975780633dd5d5c7146100c75780637d78dfbd146100f757806389a0138e14610127578063b0627de11461015a575b600080fd5b610081600480360381019061007c9190610f93565b61018d565b60405161008e9190611067565b60405180910390f35b6100b160048036038101906100ac91906110ae565b610454565b6040516100be9190611186565b60405180910390f35b6100e160048036038101906100dc9190610f93565b61055a565b6040516100ee9190611067565b60405180910390f35b610111600480360381019061010c9190611257565b6106f6565b60405161011e9190611067565b60405180910390f35b610141600480360381019061013c91906110ae565b61098c565b60405161015194939291906113b5565b60405180910390f35b610174600480360381019061016f91906110ae565b610b74565b60405161018494939291906113b5565b60405180910390f35b6000808560601b90506000859050600085905060008590506000815183518551601460ff166101bc9190611448565b6101c69190611448565b6101d09190611448565b67ffffffffffffffff8111156101e9576101e8610e68565b5b6040519080825280601f01601f19166020018201604052801561021b5781602001600182028036833780820191505090505b50905060008190506000805b601460ff168110156102a5578781601481106102465761024561147c565b5b1a60f81b838380610256906114ab565b9450815181106102695761026861147c565b5b60200101907effffffffffffffffffffffffffffffffffffffffffffffffffffffffffffff1916908160001a9053508080600101915050610227565b600090505b865181101561032c578681815181106102c6576102c561147c565b5b602001015160f81c60f81b8383806102dd906114ab565b9450815181106102f0576102ef61147c565b5b60200101907effffffffffffffffffffffffffffffffffffffffffffffffffffffffffffff1916908160001a90535080806001019150506102aa565b600090505b85518110156103b35785818151811061034d5761034c61147c565b5b602001015160f81c60f81b838380610364906114ab565b9450815181106103775761037661147c565b5b60200101907effffffffffffffffffffffffffffffffffffffffffffffffffffffffffffff1916908160001a9053508080600101915050610331565b600090505b845181101561043a578481815181106103d4576103d361147c565b5b602001015160f81c60f81b8383806103eb906114ab565b9450815181106103fe576103fd61147c565b5b60200101907effffffffffffffffffffffffffffffffffffffffffffffffffffffffffffff1916908160001a90535080806001019150506103b8565b828051906020012098505050505050505050949350505050565b61045c610d5c565b600073ffffffffffffffffffffffffffffffffffffffff166001600084815260200190815260200160002060000160009054906101000a900473ffffffffffffffffffffffffffffffffffffffff1673ffffffffffffffffffffffffffffffffffffffff1603610501576040517f08c379a00000000000000000000000000000000000000000000000000000000081526004016104f89061153f565b60405180910390fd5b6001600083815260200190815260200160002060040160068060200260405190810160405280929190826006801561054e576020028201915b81548152602001906001019080831161053a575b50505050509050919050565b6000806105698686868661018d565b9050600073ffffffffffffffffffffffffffffffffffffffff1660008083815260200190815260200160002060000160009054906101000a900473ffffffffffffffffffffffffffffffffffffffff1673ffffffffffffffffffffffffffffffffffffffff161461060f576040517f08c379a0000000000000000000000000000000000000000000000000000000008152600401610606906115ab565b60405180910390fd5b600060405180608001604052808873ffffffffffffffffffffffffffffffffffffffff1681526020018781526020018681526020018581525090508060008084815260200190815260200160002060008201518160000160006101000a81548173ffffffffffffffffffffffffffffffffffffffff021916908373ffffffffffffffffffffffffffffffffffffffff16021790555060208201518160010190816106b991906117d7565b5060408201518160020190816106cf91906117d7565b5060608201518160030190816106e591906117d7565b509050508192505050949350505050565b600080600090505b60068110156107cf57600073ffffffffffffffffffffffffffffffffffffffff166000808584600681106107355761073461147c565b5b6020020151815260200190815260200160002060000160009054906101000a900473ffffffffffffffffffffffffffffffffffffffff1673ffffffffffffffffffffffffffffffffffffffff16036107c2576040517f08c379a00000000000000000000000000000000000000000000000000000000081526004016107b99061191b565b60405180910390fd5b80806001019150506106fe565b60006107dd8888888861018d565b9050600073ffffffffffffffffffffffffffffffffffffffff166001600083815260200190815260200160002060000160009054906101000a900473ffffffffffffffffffffffffffffffffffffffff1673ffffffffffffffffffffffffffffffffffffffff1614610884576040517f08c379a000000000000000000000000000000000000000000000000000000000815260040161087b90611987565b60405180910390fd5b60006040518060a001604052808a73ffffffffffffffffffffffffffffffffffffffff168152602001898152602001888152602001878152602001868152509050806001600084815260200190815260200160002060008201518160000160006101000a81548173ffffffffffffffffffffffffffffffffffffffff021916908373ffffffffffffffffffffffffffffffffffffffff160217905550602082015181600101908161093591906117d7565b50604082015181600201908161094b91906117d7565b50606082015181600301908161096191906117d7565b50608082015181600401906006610979929190610d7e565b5090505081935050505095945050505050565b60006020528060005260406000206000915090508060000160009054906101000a900473ffffffffffffffffffffffffffffffffffffffff16908060010180546109d5906115fa565b80601f0160208091040260200160405190810160405280929190818152602001828054610a01906115fa565b8015610a4e5780601f10610a2357610100808354040283529160200191610a4e565b820191906000526020600020905b815481529060010190602001808311610a3157829003601f168201915b505050505090806002018054610a63906115fa565b80601f0160208091040260200160405190810160405280929190818152602001828054610a8f906115fa565b8015610adc5780601f10610ab157610100808354040283529160200191610adc565b820191906000526020600020905b815481529060010190602001808311610abf57829003601f168201915b505050505090806003018054610af1906115fa565b80601f0160208091040260200160405190810160405280929190818152602001828054610b1d906115fa565b8015610b6a5780601f10610b3f57610100808354040283529160200191610b6a565b820191906000526020600020905b815481529060010190602001808311610b4d57829003601f168201915b5050505050905084565b60016020528060005260406000206000915090508060000160009054906101000a900473ffffffffffffffffffffffffffffffffffffffff1690806001018054610bbd906115fa565b80601f0160208091040260200160405190810160405280929190818152602001828054610be9906115fa565b8015610c365780601f10610c0b57610100808354040283529160200191610c36565b820191906000526020600020905b815481529060010190602001808311610c1957829003601f168201915b505050505090806002018054610c4b906115fa565b80601f0160208091040260200160405190810160405280929190818152602001828054610c77906115fa565b8015610cc45780601f10610c9957610100808354040283529160200191610cc4565b820191906000526020600020905b815481529060010190602001808311610ca757829003601f168201915b505050505090806003018054610cd9906115fa565b80601f0160208091040260200160405190810160405280929190818152602001828054610d05906115fa565b8015610d525780601f10610d2757610100808354040283529160200191610d52565b820191906000526020600020905b815481529060010190602001808311610d3557829003601f168201915b5050505050905084565b6040518060c00160405280600690602082028036833780820191505090505090565b8260068101928215610dad579160200282015b82811115610dac578251825591602001919060010190610d91565b5b509050610dba9190610dbe565b5090565b5b80821115610dd7576000816000905550600101610dbf565b5090565b6000604051905090565b600080fd5b600080fd5b600073ffffffffffffffffffffffffffffffffffffffff82169050919050565b6000610e1a82610def565b9050919050565b610e2a81610e0f565b8114610e3557600080fd5b50565b600081359050610e4781610e21565b92915050565b600080fd5b600080fd5b6000601f19601f8301169050919050565b7f4e487b7100000000000000000000000000000000000000000000000000000000600052604160045260246000fd5b610ea082610e57565b810181811067ffffffffffffffff82111715610ebf57610ebe610e68565b5b80604052505050565b6000610ed2610ddb565b9050610ede8282610e97565b919050565b600067ffffffffffffffff821115610efe57610efd610e68565b5b610f0782610e57565b9050602081019050919050565b82818337600083830152505050565b6000610f36610f3184610ee3565b610ec8565b905082815260208101848484011115610f5257610f51610e52565b5b610f5d848285610f14565b509392505050565b600082601f830112610f7a57610f79610e4d565b5b8135610f8a848260208601610f23565b91505092915050565b60008060008060808587031215610fad57610fac610de5565b5b6000610fbb87828801610e38565b945050602085013567ffffffffffffffff811115610fdc57610fdb610dea565b5b610fe887828801610f65565b935050604085013567ffffffffffffffff81111561100957611008610dea565b5b61101587828801610f65565b925050606085013567ffffffffffffffff81111561103657611035610dea565b5b61104287828801610f65565b91505092959194509250565b6000819050919050565b6110618161104e565b82525050565b600060208201905061107c6000830184611058565b92915050565b61108b8161104e565b811461109657600080fd5b50565b6000813590506110a881611082565b92915050565b6000602082840312156110c4576110c3610de5565b5b60006110d284828501611099565b91505092915050565b600060069050919050565b600081905092915050565b6000819050919050565b6111048161104e565b82525050565b600061111683836110fb565b60208301905092915050565b6000602082019050919050565b611138816110db565b61114281846110e6565b925061114d826110f1565b8060005b8381101561117e578151611165878261110a565b965061117083611122565b925050600181019050611151565b505050505050565b600060c08201905061119b600083018461112f565b92915050565b600067ffffffffffffffff8211156111bc576111bb610e68565b5b602082029050919050565b600080fd5b60006111df6111da846111a1565b610ec8565b905080602084028301858111156111f9576111f86111c7565b5b835b81811015611222578061120e8882611099565b8452602084019350506020810190506111fb565b5050509392505050565b600082601f83011261124157611240610e4d565b5b600661124e8482856111cc565b91505092915050565b6000806000806000610140868803121561127457611273610de5565b5b600061128288828901610e38565b955050602086013567ffffffffffffffff8111156112a3576112a2610dea565b5b6112af88828901610f65565b945050604086013567ffffffffffffffff8111156112d0576112cf610dea565b5b6112dc88828901610f65565b935050606086013567ffffffffffffffff8111156112fd576112fc610dea565b5b61130988828901610f65565b925050608061131a8882890161122c565b9150509295509295909350565b61133081610e0f565b82525050565b600081519050919050565b600082825260208201905092915050565b60005b83811015611370578082015181840152602081019050611355565b60008484015250505050565b600061138782611336565b6113918185611341565b93506113a1818560208601611352565b6113aa81610e57565b840191505092915050565b60006080820190506113ca6000830187611327565b81810360208301526113dc818661137c565b905081810360408301526113f0818561137c565b90508181036060830152611404818461137c565b905095945050505050565b6000819050919050565b7f4e487b7100000000000000000000000000000000000000000000000000000000600052601160045260246000fd5b60006114538261140f565b915061145e8361140f565b925082820190508082111561147657611475611419565b5b92915050565b7f4e487b7100000000000000000000000000000000000000000000000000000000600052603260045260246000fd5b60006114b68261140f565b91507fffffffffffffffffffffffffffffffffffffffffffffffffffffffffffffffff82036114e8576114e7611419565b5b600182019050919050565b7f50726f6475636520696e6578697374656e740000000000000000000000000000600082015250565b6000611529601283611341565b9150611534826114f3565b602082019050919050565b600060208201905081810360008301526115588161151c565b9050919050565b7f436f6e7369676e6d656e7420494420616c726561647920757365640000000000600082015250565b6000611595601b83611341565b91506115a08261155f565b602082019050919050565b600060208201905081810360008301526115c481611588565b9050919050565b7f4e487b7100000000000000000000000000000000000000000000000000000000600052602260045260246000fd5b6000600282049050600182168061161257607f821691505b602082108103611625576116246115cb565b5b50919050565b60008190508160005260206000209050919050565b60006020601f8301049050919050565b600082821b905092915050565b60006008830261168d7fffffffffffffffffffffffffffffffffffffffffffffffffffffffffffffffff82611650565b6116978683611650565b95508019841693508086168417925050509392505050565b6000819050919050565b60006116d46116cf6116ca8461140f565b6116af565b61140f565b9050919050565b6000819050919050565b6116ee836116b9565b6117026116fa826116db565b84845461165d565b825550505050565b600090565b61171761170a565b6117228184846116e5565b505050565b5b818110156117465761173b60008261170f565b600181019050611728565b5050565b601f82111561178b5761175c8161162b565b61176584611640565b81016020851015611774578190505b61178861178085611640565b830182611727565b50505b505050565b600082821c905092915050565b60006117ae60001984600802611790565b1980831691505092915050565b60006117c7838361179d565b9150826002028217905092915050565b6117e082611336565b67ffffffffffffffff8111156117f9576117f8610e68565b5b61180382546115fa565b61180e82828561174a565b600060209050601f831160018114611841576000841561182f578287015190505b61183985826117bb565b8655506118a1565b601f19841661184f8661162b565b60005b8281101561187757848901518255600182019150602085019450602081019050611852565b868310156118945784890151611890601f89168261179d565b8355505b6001600288020188555050505b505050505050565b7f496e6578697374656e7420636f6e7369676e6d656e742075736564206f6e207060008201527f726f647563650000000000000000000000000000000000000000000000000000602082015250565b6000611905602683611341565b9150611910826118a9565b604082019050919050565b60006020820190508181036000830152611934816118f8565b9050919050565b7f50726f6475636520494420616c72656164792075736564000000000000000000600082015250565b6000611971601783611341565b915061197c8261193b565b602082019050919050565b600060208201905081810360008301526119a081611964565b905091905056fea2646970667358221220e039afc3090d7d0703194b4c17727be9f254f324bd8e2aa7014893d5cb297dfb64736f6c63430008180033",
  "linkReferences": {},
  "deployedLinkReferences": {}
}