{
  "_format": "hh-sol-artifact-1",
  "contractName": "ProduceTraceabilityV4",
  "sourceName": "contracts/ProduceTraceabilityV4.sol",
  "abi": [
    {
      "inputs": [
        {
          "internalType": "address",
          "name": "prod_own_address",
          "type": "address"
        },
        {
          "internalType": "address",
          "name": "prod_mgmt_address",
          "type": "address"
        }
      ],
      "stateMutability": "nonpayable",
      "type": "constructor"
    },
    {
      "anonymous": false,
      "inputs": [
        {
          "indexed": false,
          "internalType": "string",
          "name": "name",
          "type": "string"
        },
        {
          "indexed": true,
          "internalType": "address",
          "name": "ethAddress",
          "type": "address"
        },
        {
          "indexed": false,
          "internalType": "uint256",
          "name": "timestamp",
          "type": "uint256"
        }
      ],
      "name": "FarmerRegistered",
      "type": "event"
    },
    {
      "anonymous": false,
      "inputs": [
        {
          "indexed": true,
          "internalType": "address",
          "name": "ethAddress",
          "type": "address"
        },
        {
          "indexed": false,
          "internalType": "uint256",
          "name": "timestamp",
          "type": "uint256"
        }
      ],
      "name": "FarmerVerified",
      "type": "event"
    },
    {
      "anonymous": false,
      "inputs": [
        {
          "indexed": true,
          "internalType": "address",
          "name": "farmer",
          "type": "address"
        },
        {
          "indexed": false,
          "internalType": "bytes32",
          "name": "produce_hash",
          "type": "bytes32"
        },
        {
          "indexed": false,
          "internalType": "string",
          "name": "produce_name",
          "type": "string"
        },
        {
          "indexed": false,
          "internalType": "uint256",
          "name": "timestamp",
          "type": "uint256"
        }
      ],
      "name": "ProduceAdded",
      "type": "event"
    },
    {
      "anonymous": false,
      "inputs": [
        {
          "indexed": true,
          "internalType": "address",
          "name": "source",
          "type": "address"
        },
        {
          "indexed": false,
          "internalType": "bytes32",
          "name": "produce_hash",
          "type": "bytes32"
        },
        {
          "indexed": false,
          "internalType": "uint256",
          "name": "referenceNumber",
          "type": "uint256"
        },
        {
          "indexed": false,
          "internalType": "uint256",
          "name": "timestamp",
          "type": "uint256"
        }
      ],
      "name": "ProduceSold",
      "type": "event"
    },
    {
      "inputs": [
        {
          "internalType": "uint256",
          "name": "",
          "type": "uint256"
        }
      ],
      "name": "FarmProduces",
      "outputs": [
        {
          "internalType": "bytes32",
          "name": "produceHash",
          "type": "bytes32"
        },
        {
          "internalType": "string",
          "name": "produce",
          "type": "string"
        },
        {
          "internalType": "address",
          "name": "farmer",
          "type": "address"
        },
        {
          "internalType": "uint256",
          "name": "quantity",
          "type": "uint256"
        }
      ],
      "stateMutability": "view",
      "type": "function"
    },
    {
      "inputs": [
        {
          "internalType": "uint256",
          "name": "",
          "type": "uint256"
        }
      ],
      "name": "FarmerAddresses",
      "outputs": [
        {
          "internalType": "address",
          "name": "",
          "type": "address"
        }
      ],
      "stateMutability": "view",
      "type": "function"
    },
    {
      "inputs": [
        {
          "internalType": "uint256",
          "name": "",
          "type": "uint256"
        }
      ],
      "name": "ProduceSales",
      "outputs": [
        {
          "internalType": "bytes32",
          "name": "consignmentHash",
          "type": "bytes32"
        },
        {
          "internalType": "uint256",
          "name": "referenceNumber",
          "type": "uint256"
        },
        {
          "internalType": "address",
          "name": "buyer",
          "type": "address"
        },
        {
          "internalType": "uint256",
          "name": "amount",
          "type": "uint256"
        },
        {
          "internalType": "uint256",
          "name": "price",
          "type": "uint256"
        },
        {
          "internalType": "string",
          "name": "time",
          "type": "string"
        }
      ],
      "stateMutability": "view",
      "type": "function"
    },
    {
      "inputs": [
        {
          "internalType": "address",
          "name": "farmer",
          "type": "address"
        },
        {
          "internalType": "string",
          "name": "lot_number",
          "type": "string"
        },
        {
          "internalType": "string",
          "name": "weight",
          "type": "string"
        },
        {
          "internalType": "string",
          "name": "storage_date",
          "type": "string"
        }
      ],
      "name": "addConsignment",
      "outputs": [
        {
          "internalType": "bytes32",
          "name": "",
          "type": "bytes32"
        }
      ],
      "stateMutability": "nonpayable",
      "type": "function"
    },
    {
      "inputs": [
        {
          "internalType": "string",
          "name": "_produce_name",
          "type": "string"
        },
        {
          "internalType": "string",
          "name": "_lot_number",
          "type": "string"
        },
        {
          "internalType": "string",
          "name": "_weight",
          "type": "string"
        },
        {
          "internalType": "uint256",
          "name": "_quantity",
          "type": "uint256"
        },
        {
          "internalType": "string",
          "name": "_storage_date",
          "type": "string"
        },
        {
          "internalType": "address",
          "name": "_farmer",
          "type": "address"
        },
        {
          "internalType": "address[]",
          "name": "_agents",
          "type": "address[]"
        }
      ],
      "name": "addFarmProduce",
      "outputs": [],
      "stateMutability": "nonpayable",
      "type": "function"
    },
    {
      "inputs": [
        {
          "internalType": "address",
          "name": "farmer",
          "type": "address"
        },
        {
          "internalType": "string",
          "name": "lot_number",
          "type": "string"
        },
        {
          "internalType": "string",
          "name": "produce",
          "type": "string"
        },
        {
          "internalType": "string",
          "name": "weight",
          "type": "string"
        },
        {
          "internalType": "string",
          "name": "storage_date",
          "type": "string"
        }
      ],
      "name": "addProduct",
      "outputs": [
        {
          "internalType": "bytes32",
          "name": "",
          "type": "bytes32"
        }
      ],
      "stateMutability": "nonpayable",
      "type": "function"
    },
    {
      "inputs": [
        {
          "internalType": "address",
          "name": "",
          "type": "address"
        }
      ],
      "name": "currentconsignment",
      "outputs": [
        {
          "internalType": "bytes32",
          "name": "",
          "type": "bytes32"
        }
      ],
      "stateMutability": "view",
      "type": "function"
    },
    {
      "inputs": [
        {
          "internalType": "bytes32",
          "name": "",
          "type": "bytes32"
        }
      ],
      "name": "currentproduct",
      "outputs": [
        {
          "internalType": "bytes32",
          "name": "",
          "type": "bytes32"
        }
      ],
      "stateMutability": "view",
      "type": "function"
    },
    {
      "inputs": [
        {
          "internalType": "address",
          "name": "",
          "type": "address"
        }
      ],
      "name": "farmers",
      "outputs": [
        {
          "internalType": "string",
          "name": "name",
          "type": "string"
        },
        {
          "internalType": "string",
          "name": "location",
          "type": "string"
        },
        {
          "internalType": "address",
          "name": "ethAddress",
          "type": "address"
        },
        {
          "internalType": "bool",
          "name": "isVerified",
          "type": "bool"
        }
      ],
      "stateMutability": "view",
      "type": "function"
    },
    {
      "inputs": [
        {
          "internalType": "bytes32",
          "name": "",
          "type": "bytes32"
        }
      ],
      "name": "farmproduct",
      "outputs": [
        {
          "internalType": "bytes32",
          "name": "produceHash",
          "type": "bytes32"
        },
        {
          "internalType": "string",
          "name": "produce",
          "type": "string"
        },
        {
          "internalType": "address",
          "name": "farmer",
          "type": "address"
        },
        {
          "internalType": "uint256",
          "name": "quantity",
          "type": "uint256"
        }
      ],
      "stateMutability": "view",
      "type": "function"
    },
    {
      "inputs": [
        {
          "internalType": "address",
          "name": "_ethAddress",
          "type": "address"
        }
      ],
      "name": "getFarmer",
      "outputs": [
        {
          "internalType": "string",
          "name": "",
          "type": "string"
        },
        {
          "internalType": "string",
          "name": "",
          "type": "string"
        },
        {
          "internalType": "address",
          "name": "",
          "type": "address"
        },
        {
          "internalType": "bool",
          "name": "",
          "type": "bool"
        }
      ],
      "stateMutability": "view",
      "type": "function"
    },
    {
      "inputs": [],
      "name": "getFarmerCount",
      "outputs": [
        {
          "internalType": "uint256",
          "name": "",
          "type": "uint256"
        }
      ],
      "stateMutability": "view",
      "type": "function"
    },
    {
      "inputs": [
        {
          "internalType": "uint256",
          "name": "index",
          "type": "uint256"
        }
      ],
      "name": "getProduce",
      "outputs": [
        {
          "internalType": "bytes32",
          "name": "",
          "type": "bytes32"
        },
        {
          "internalType": "string",
          "name": "",
          "type": "string"
        },
        {
          "internalType": "address",
          "name": "",
          "type": "address"
        },
        {
          "internalType": "uint256",
          "name": "",
          "type": "uint256"
        },
        {
          "internalType": "address[]",
          "name": "",
          "type": "address[]"
        }
      ],
      "stateMutability": "view",
      "type": "function"
    },
    {
      "inputs": [],
      "name": "getProduceCount",
      "outputs": [
        {
          "internalType": "uint256",
          "name": "",
          "type": "uint256"
        }
      ],
      "stateMutability": "view",
      "type": "function"
    },
    {
      "inputs": [
        {
          "internalType": "bytes32",
          "name": "_produceHash",
          "type": "bytes32"
        }
      ],
      "name": "getProduceIndex",
      "outputs": [
        {
          "internalType": "uint256",
          "name": "",
          "type": "uint256"
        }
      ],
      "stateMutability": "view",
      "type": "function"
    },
    {
      "inputs": [
        {
          "internalType": "uint256",
          "name": "index",
          "type": "uint256"
        }
      ],
      "name": "getProduceSale",
      "outputs": [
        {
          "internalType": "bytes32",
          "name": "",
          "type": "bytes32"
        },
        {
          "internalType": "uint256",
          "name": "",
          "type": "uint256"
        },
        {
          "internalType": "address",
          "name": "",
          "type": "address"
        },
        {
          "internalType": "uint256",
          "name": "",
          "type": "uint256"
        },
        {
          "internalType": "uint256",
          "name": "",
          "type": "uint256"
        }
      ],
      "stateMutability": "view",
      "type": "function"
    },
    {
      "inputs": [],
      "name": "getProduceSaleCount",
      "outputs": [
        {
          "internalType": "uint256",
          "name": "",
          "type": "uint256"
        }
      ],
      "stateMutability": "view",
      "type": "function"
    },
    {
      "inputs": [
        {
          "internalType": "uint256",
          "name": "_referenceNumber",
          "type": "uint256"
        }
      ],
      "name": "getProduceSaleIndex",
      "outputs": [
        {
          "internalType": "uint256",
          "name": "",
          "type": "uint256"
        }
      ],
      "stateMutability": "view",
      "type": "function"
    },
    {
      "inputs": [],
      "name": "owner",
      "outputs": [
        {
          "internalType": "address",
          "name": "",
          "type": "address"
        }
      ],
      "stateMutability": "view",
      "type": "function"
    },
    {
      "inputs": [
        {
          "internalType": "bytes32",
          "name": "",
          "type": "bytes32"
        }
      ],
      "name": "productindex",
      "outputs": [
        {
          "internalType": "uint256",
          "name": "",
          "type": "uint256"
        }
      ],
      "stateMutability": "view",
      "type": "function"
    },
    {
      "inputs": [
        {
          "internalType": "bytes32",
          "name": "",
          "type": "bytes32"
        }
      ],
      "name": "productsales",
      "outputs": [
        {
          "internalType": "bytes32",
          "name": "consignmentHash",
          "type": "bytes32"
        },
        {
          "internalType": "uint256",
          "name": "referenceNumber",
          "type": "uint256"
        },
        {
          "internalType": "address",
          "name": "buyer",
          "type": "address"
        },
        {
          "internalType": "uint256",
          "name": "amount",
          "type": "uint256"
        },
        {
          "internalType": "uint256",
          "name": "price",
          "type": "uint256"
        },
        {
          "internalType": "string",
          "name": "time",
          "type": "string"
        }
      ],
      "stateMutability": "view",
      "type": "function"
    },
    {
      "inputs": [],
      "name": "promg",
      "outputs": [
        {
          "internalType": "contract ProduceManagement",
          "name": "",
          "type": "address"
        }
      ],
      "stateMutability": "view",
      "type": "function"
    },
    {
      "inputs": [],
      "name": "prown",
      "outputs": [
        {
          "internalType": "contract ProduceOwnershipV1",
          "name": "",
          "type": "address"
        }
      ],
      "stateMutability": "view",
      "type": "function"
    },
    {
      "inputs": [
        {
          "internalType": "string",
          "name": "_name",
          "type": "string"
        },
        {
          "internalType": "string",
          "name": "_location",
          "type": "string"
        },
        {
          "internalType": "address",
          "name": "_ethAddress",
          "type": "address"
        }
      ],
      "name": "registerFarmer",
      "outputs": [],
      "stateMutability": "nonpayable",
      "type": "function"
    },
    {
      "inputs": [
        {
          "internalType": "uint256",
          "name": "",
          "type": "uint256"
        }
      ],
      "name": "saleindex",
      "outputs": [
        {
          "internalType": "uint256",
          "name": "",
          "type": "uint256"
        }
      ],
      "stateMutability": "view",
      "type": "function"
    },
    {
      "inputs": [
        {
          "internalType": "bytes32",
          "name": "_consignmentHash",
          "type": "bytes32"
        },
        {
          "internalType": "uint256",
          "name": "_referenceNumber",
          "type": "uint256"
        },
        {
          "internalType": "address",
          "name": "_buyer",
          "type": "address"
        },
        {
          "internalType": "uint256",
          "name": "_amount",
          "type": "uint256"
        },
        {
          "internalType": "uint256",
          "name": "_price",
          "type": "uint256"
        },
        {
          "internalType": "string",
          "name": "_timestamp",
          "type": "string"
        }
      ],
      "name": "sellFarmProduce",
      "outputs": [],
      "stateMutability": "nonpayable",
      "type": "function"
    },
    {
      "inputs": [
        {
          "internalType": "address",
          "name": "farmer",
          "type": "address"
        },
        {
          "internalType": "string",
          "name": "lot_number",
          "type": "string"
        },
        {
          "internalType": "string",
          "name": "weight",
          "type": "string"
        },
        {
          "internalType": "string",
          "name": "storage_date",
          "type": "string"
        }
      ],
      "name": "structToBytes32Array",
      "outputs": [
        {
          "internalType": "bytes32[6]",
          "name": "",
          "type": "bytes32[6]"
        }
      ],
      "stateMutability": "view",
      "type": "function"
    },
    {
      "inputs": [
        {
          "internalType": "address",
          "name": "_ethAddress",
          "type": "address"
        }
      ],
      "name": "verifyFarmer",
      "outputs": [],
      "stateMutability": "nonpayable",
      "type": "function"
    }
  ],
  "bytecode": "0x60806040523480156200001157600080fd5b5060405162003fba38038062003fba83398181016040528101906200003791906200016c565b33600a60006101000a81548173ffffffffffffffffffffffffffffffffffffffff021916908373ffffffffffffffffffffffffffffffffffffffff16021790555081600b60006101000a81548173ffffffffffffffffffffffffffffffffffffffff021916908373ffffffffffffffffffffffffffffffffffffffff16021790555080600c60006101000a81548173ffffffffffffffffffffffffffffffffffffffff021916908373ffffffffffffffffffffffffffffffffffffffff1602179055505050620001b3565b600080fd5b600073ffffffffffffffffffffffffffffffffffffffff82169050919050565b6000620001348262000107565b9050919050565b620001468162000127565b81146200015257600080fd5b50565b60008151905062000166816200013b565b92915050565b6000806040838503121562000186576200018562000102565b5b6000620001968582860162000155565b9250506020620001a98582860162000155565b9150509250929050565b613df780620001c36000396000f3fe608060405234801561001057600080fd5b50600436106101c45760003560e01c80638da5cb5b116100f9578063c4a8b5d511610097578063e0e3d63111610071578063e0e3d631146105bc578063e149c4e3146105d8578063e5e20ac914610608578063e7609c1614610638576101c4565b8063c4a8b5d514610550578063ce0ed6ad1461056e578063d070377c1461059e576101c4565b80639f1405b9116100d35780639f1405b914610488578063a12b67f1146104bb578063a7d697ed146104eb578063ac7fc9351461051b576101c4565b80638da5cb5b146104075780638e0d02f6146104255780639c00cb6514610458576101c4565b8063401b21681161016657806363a3cd881161014057806363a3cd881461035257806371e2d94214610386578063797cc64a146103b65780638c09a573146103d2576101c4565b8063401b2168146102d35780635c0b1acd14610306578063605ea98d14610322576101c4565b80631fac4fc9116101a25780631fac4fc914610247578063235db9f5146102655780632acc38d814610281578063389b80661461029f576101c4565b80630d803290146101c957806312e33b82146101f95780631d323ad914610229575b600080fd5b6101e360048036038101906101de91906126cc565b61066b565b6040516101f09190612712565b60405180910390f35b610213600480360381019061020e91906126cc565b610683565b604051610220919061273c565b60405180910390f35b61023161069b565b60405161023e91906127d6565b60405180910390f35b61024f6106c1565b60405161025c9190612712565b60405180910390f35b61027f600480360381019061027a919061282f565b6106ce565b005b6102896108d9565b604051610296919061287d565b60405180910390f35b6102b960048036038101906102b491906128c4565b6108ff565b6040516102ca959493929190612a4e565b60405180910390f35b6102ed60048036038101906102e8919061282f565b610ad4565b6040516102fd9493929190612aca565b60405180910390f35b610320600480360381019061031b9190612c52565b610c41565b005b61033c60048036038101906103379190612cdd565b610e7c565b6040516103499190612e43565b60405180910390f35b61036c600480360381019061036791906128c4565b61119f565b60405161037d959493929190612e5e565b60405180910390f35b6103a0600480360381019061039b919061282f565b611261565b6040516103ad919061273c565b60405180910390f35b6103d060048036038101906103cb9190612eb1565b611279565b005b6103ec60048036038101906103e791906128c4565b611732565b6040516103fe96959493929190612f5a565b60405180910390f35b61040f611826565b60405161041c9190612fc2565b60405180910390f35b61043f600480360381019061043a91906128c4565b61184c565b60405161044f9493929190612fdd565b60405180910390f35b610472600480360381019061046d91906128c4565b611934565b60405161047f9190612fc2565b60405180910390f35b6104a2600480360381019061049d91906126cc565b611973565b6040516104b29493929190612fdd565b60405180910390f35b6104d560048036038101906104d091906126cc565b611a4b565b6040516104e29190612712565b60405180910390f35b61050560048036038101906105009190612cdd565b611a68565b604051610512919061273c565b60405180910390f35b610535600480360381019061053091906126cc565b611c9d565b60405161054796959493929190612f5a565b60405180910390f35b610558611d81565b6040516105659190612712565b60405180910390f35b610588600480360381019061058391906128c4565b611d8e565b6040516105959190612712565b60405180910390f35b6105a6611da6565b6040516105b39190612712565b60405180910390f35b6105d660048036038101906105d191906130f1565b611db3565b005b6105f260048036038101906105ed91906128c4565b612137565b6040516105ff9190612712565b60405180910390f35b610622600480360381019061061d919061321f565b612154565b60405161062f919061273c565b60405180910390f35b610652600480360381019061064d919061282f565b612359565b6040516106629493929190612aca565b60405180910390f35b60016020528060005260406000206000915090505481565b60066020528060005260406000206000915090505481565b600c60009054906101000a900473ffffffffffffffffffffffffffffffffffffffff1681565b6000600880549050905090565b600a60009054906101000a900473ffffffffffffffffffffffffffffffffffffffff1673ffffffffffffffffffffffffffffffffffffffff163373ffffffffffffffffffffffffffffffffffffffff161461075e576040517f08c379a00000000000000000000000000000000000000000000000000000000081526004016107559061337c565b60405180910390fd5b600073ffffffffffffffffffffffffffffffffffffffff166000808373ffffffffffffffffffffffffffffffffffffffff1673ffffffffffffffffffffffffffffffffffffffff16815260200190815260200160002060020160009054906101000a900473ffffffffffffffffffffffffffffffffffffffff1673ffffffffffffffffffffffffffffffffffffffff160361082e576040517f08c379a0000000000000000000000000000000000000000000000000000000008152600401610825906133e8565b60405180910390fd5b60016000808373ffffffffffffffffffffffffffffffffffffffff1673ffffffffffffffffffffffffffffffffffffffff16815260200190815260200160002060020160146101000a81548160ff0219169083151502179055508073ffffffffffffffffffffffffffffffffffffffff167fea8fb419111481ddf23f46f716977ce4313705081e37049fda136377a3a6a929426040516108ce9190612712565b60405180910390a250565b600b60009054906101000a900473ffffffffffffffffffffffffffffffffffffffff1681565b600060606000806060600880549050861061094f576040517f08c379a000000000000000000000000000000000000000000000000000000000815260040161094690613454565b60405180910390fd5b60006008878154811061096557610964613474565b5b906000526020600020906005020190508060000154816001018260020160009054906101000a900473ffffffffffffffffffffffffffffffffffffffff168360030154846004018380546109b8906134d2565b80601f01602080910402602001604051908101604052809291908181526020018280546109e4906134d2565b8015610a315780601f10610a0657610100808354040283529160200191610a31565b820191906000526020600020905b815481529060010190602001808311610a1457829003601f168201915b5050505050935080805480602002602001604051908101604052809291908181526020018280548015610ab957602002820191906000526020600020905b8160009054906101000a900473ffffffffffffffffffffffffffffffffffffffff1673ffffffffffffffffffffffffffffffffffffffff1681526020019060010190808311610a6f575b50505050509050955095509550955095505091939590929450565b6000602052806000526040600020600091509050806000018054610af7906134d2565b80601f0160208091040260200160405190810160405280929190818152602001828054610b23906134d2565b8015610b705780601f10610b4557610100808354040283529160200191610b70565b820191906000526020600020905b815481529060010190602001808311610b5357829003601f168201915b505050505090806001018054610b85906134d2565b80601f0160208091040260200160405190810160405280929190818152602001828054610bb1906134d2565b8015610bfe5780601f10610bd357610100808354040283529160200191610bfe565b820191906000526020600020905b815481529060010190602001808311610be157829003601f168201915b5050505050908060020160009054906101000a900473ffffffffffffffffffffffffffffffffffffffff16908060020160149054906101000a900460ff16905084565b600073ffffffffffffffffffffffffffffffffffffffff168173ffffffffffffffffffffffffffffffffffffffff1603610cb0576040517f08c379a0000000000000000000000000000000000000000000000000000000008152600401610ca79061354f565b60405180910390fd5b600060405180608001604052808581526020018481526020018373ffffffffffffffffffffffffffffffffffffffff168152602001600015158152509050806000808473ffffffffffffffffffffffffffffffffffffffff1673ffffffffffffffffffffffffffffffffffffffff1681526020019081526020016000206000820151816000019081610d429190613711565b506020820151816001019081610d589190613711565b5060408201518160020160006101000a81548173ffffffffffffffffffffffffffffffffffffffff021916908373ffffffffffffffffffffffffffffffffffffffff16021790555060608201518160020160146101000a81548160ff0219169083151502179055509050506007829080600181540180825580915050600190039060005260206000200160009091909190916101000a81548173ffffffffffffffffffffffffffffffffffffffff021916908373ffffffffffffffffffffffffffffffffffffffff1602179055508173ffffffffffffffffffffffffffffffffffffffff167f410a9489a5427585a7b8116b854cd41394a92f728eba3846cf87d4ce923864328542604051610e6e9291906137e3565b60405180910390a250505050565b610e846125b9565b84600115156000808373ffffffffffffffffffffffffffffffffffffffff1673ffffffffffffffffffffffffffffffffffffffff16815260200190815260200160002060020160149054906101000a900460ff16151514610f1a576040517f08c379a0000000000000000000000000000000000000000000000000000000008152600401610f1190613885565b60405180910390fd5b6000600560008873ffffffffffffffffffffffffffffffffffffffff1673ffffffffffffffffffffffffffffffffffffffff16815260200190815260200160002054905060006006600083815260200190815260200160002054905060006002600083815260200190815260200160002060020160009054906101000a900473ffffffffffffffffffffffffffffffffffffffff1690508073ffffffffffffffffffffffffffffffffffffffff168973ffffffffffffffffffffffffffffffffffffffff161461101f576040517f08c379a000000000000000000000000000000000000000000000000000000000815260040161101690613917565b60405180910390fd5b6110276125b9565b60006110316106c1565b9050600081111561104c576001816110499190613966565b90505b8060001b8260006006811061106457611063613474565b5b602002018181525050848260016006811061108257611081613474565b5b6020020181815250508a73ffffffffffffffffffffffffffffffffffffffff1660001b826002600681106110b9576110b8613474565b5b602002018181525050896040516020016110d391906139d6565b60405160208183030381529060405280519060200120826003600681106110fd576110fc613474565b5b6020020181815250508860405160200161111791906139d6565b604051602081830303815290604052805190602001208260046006811061114157611140613474565b5b6020020181815250508760405160200161115b91906139d6565b604051602081830303815290604052805190602001208260056006811061118557611184613474565b5b602002018181525050819650505050505050949350505050565b600080600080600060098054905086106111ee576040517f08c379a00000000000000000000000000000000000000000000000000000000081526004016111e590613454565b60405180910390fd5b60006009878154811061120457611203613474565b5b90600052602060002090600602019050806000015481600101548260020160009054906101000a900473ffffffffffffffffffffffffffffffffffffffff1683600301548460040154955095509550955095505091939590929450565b60056020528060005260406000206000915090505481565b60006006600088815260200190815260200160002054905060006002600083815260200190815260200160002060020160009054906101000a900473ffffffffffffffffffffffffffffffffffffffff169050600073ffffffffffffffffffffffffffffffffffffffff168673ffffffffffffffffffffffffffffffffffffffff16141580156113365750600073ffffffffffffffffffffffffffffffffffffffff168173ffffffffffffffffffffffffffffffffffffffff1614155b611375576040517f08c379a000000000000000000000000000000000000000000000000000000000815260040161136c90613a39565b60405180910390fd5b600061138083611a4b565b905060006008828154811061139857611397613474565b5b9060005260206000209060050201600301549050808711156113ef576040517f08c379a00000000000000000000000000000000000000000000000000000000081526004016113e690613aa5565b60405180910390fd5b60006040518060c001604052808c81526020018b81526020018a73ffffffffffffffffffffffffffffffffffffffff1681526020018981526020018881526020018781525090506009819080600181540180825580915050600190039060005260206000209060060201600090919091909150600082015181600001556020820151816001015560408201518160020160006101000a81548173ffffffffffffffffffffffffffffffffffffffff021916908373ffffffffffffffffffffffffffffffffffffffff160217905550606082015181600301556080820151816004015560a08201518160050190816114e69190613711565b505050600b60009054906101000a900473ffffffffffffffffffffffffffffffffffffffff1673ffffffffffffffffffffffffffffffffffffffff16639e30ef748560008e8d6040518563ffffffff1660e01b815260040161154b9493929190613b00565b6020604051808303816000875af115801561156a573d6000803e3d6000fd5b505050506040513d601f19601f8201168201806040525081019061158e9190613b71565b5087600884815481106115a4576115a3613474565b5b906000526020600020906005020160030160008282546115c49190613966565b9250508190555060006115d5611da6565b905060008111156115f0576001816115ed9190613966565b90505b80600360008d8152602001908152602001600020819055508a600460008e81526020019081526020016000206001018190555089600460008e815260200190815260200160002060020160006101000a81548173ffffffffffffffffffffffffffffffffffffffff021916908373ffffffffffffffffffffffffffffffffffffffff16021790555088600460008e81526020019081526020016000206003018190555087600460008e81526020019081526020016000206004018190555086600460008e815260200190815260200160002060050190816116d19190613711565b508473ffffffffffffffffffffffffffffffffffffffff167fd8e472d3dd76781849890d81c5b0566a834d86725e397b82689592634841c0758d8d4260405161171c93929190613b9e565b60405180910390a2505050505050505050505050565b6009818154811061174257600080fd5b90600052602060002090600602016000915090508060000154908060010154908060020160009054906101000a900473ffffffffffffffffffffffffffffffffffffffff16908060030154908060040154908060050180546117a3906134d2565b80601f01602080910402602001604051908101604052809291908181526020018280546117cf906134d2565b801561181c5780601f106117f15761010080835404028352916020019161181c565b820191906000526020600020905b8154815290600101906020018083116117ff57829003601f168201915b5050505050905086565b600a60009054906101000a900473ffffffffffffffffffffffffffffffffffffffff1681565b6008818154811061185c57600080fd5b9060005260206000209060050201600091509050806000015490806001018054611885906134d2565b80601f01602080910402602001604051908101604052809291908181526020018280546118b1906134d2565b80156118fe5780601f106118d3576101008083540402835291602001916118fe565b820191906000526020600020905b8154815290600101906020018083116118e157829003601f168201915b5050505050908060020160009054906101000a900473ffffffffffffffffffffffffffffffffffffffff16908060030154905084565b6007818154811061194457600080fd5b906000526020600020016000915054906101000a900473ffffffffffffffffffffffffffffffffffffffff1681565b600260205280600052604060002060009150905080600001549080600101805461199c906134d2565b80601f01602080910402602001604051908101604052809291908181526020018280546119c8906134d2565b8015611a155780601f106119ea57610100808354040283529160200191611a15565b820191906000526020600020905b8154815290600101906020018083116119f857829003601f168201915b5050505050908060020160009054906101000a900473ffffffffffffffffffffffffffffffffffffffff16908060030154905084565b600060016000838152602001908152602001600020549050919050565b600084600115156000808373ffffffffffffffffffffffffffffffffffffffff1673ffffffffffffffffffffffffffffffffffffffff16815260200190815260200160002060020160149054906101000a900460ff16151514611b00576040517f08c379a0000000000000000000000000000000000000000000000000000000008152600401611af790613885565b60405180910390fd5b6000600c60009054906101000a900473ffffffffffffffffffffffffffffffffffffffff1673ffffffffffffffffffffffffffffffffffffffff16633dd5d5c7888888886040518563ffffffff1660e01b8152600401611b639493929190613bd5565b6020604051808303816000875af1158015611b82573d6000803e3d6000fd5b505050506040513d601f19601f82011682018060405250810190611ba69190613c44565b9050600b60009054906101000a900473ffffffffffffffffffffffffffffffffffffffff1673ffffffffffffffffffffffffffffffffffffffff16635599e05a886000846040518463ffffffff1660e01b8152600401611c0893929190613c71565b6020604051808303816000875af1158015611c27573d6000803e3d6000fd5b505050506040513d601f19601f82011682018060405250810190611c4b9190613b71565b5080600560008973ffffffffffffffffffffffffffffffffffffffff1673ffffffffffffffffffffffffffffffffffffffff168152602001908152602001600020819055508092505050949350505050565b60046020528060005260406000206000915090508060000154908060010154908060020160009054906101000a900473ffffffffffffffffffffffffffffffffffffffff1690806003015490806004015490806005018054611cfe906134d2565b80601f0160208091040260200160405190810160405280929190818152602001828054611d2a906134d2565b8015611d775780601f10611d4c57610100808354040283529160200191611d77565b820191906000526020600020905b815481529060010190602001808311611d5a57829003601f168201915b5050505050905086565b6000600780549050905090565b60036020528060005260406000206000915090505481565b6000600980549050905090565b600a60009054906101000a900473ffffffffffffffffffffffffffffffffffffffff1673ffffffffffffffffffffffffffffffffffffffff163373ffffffffffffffffffffffffffffffffffffffff1614611e43576040517f08c379a0000000000000000000000000000000000000000000000000000000008152600401611e3a9061337c565b60405180910390fd5b81600115156000808373ffffffffffffffffffffffffffffffffffffffff1673ffffffffffffffffffffffffffffffffffffffff16815260200190815260200160002060020160149054906101000a900460ff16151514611ed9576040517f08c379a0000000000000000000000000000000000000000000000000000000008152600401611ed090613885565b60405180910390fd5b6000611ee784898988611a68565b90506000611ef8858a8c8b8a612154565b905060006040518060a001604052808381526020018c81526020018773ffffffffffffffffffffffffffffffffffffffff1681526020018981526020018681525090506008819080600181540180825580915050600190039060005260206000209060050201600090919091909150600082015181600001556020820151816001019081611f869190613711565b5060408201518160020160006101000a81548173ffffffffffffffffffffffffffffffffffffffff021916908373ffffffffffffffffffffffffffffffffffffffff160217905550606082015181600301556080820151816004019080519060200190611ff49291906125db565b50505060006120016106c1565b9050600081111561201c576001816120199190613966565b90505b806001600085815260200190815260200160002081905550826002600085815260200190815260200160002060000181905550866002600085815260200190815260200160002060020160006101000a81548173ffffffffffffffffffffffffffffffffffffffff021916908373ffffffffffffffffffffffffffffffffffffffff1602179055508360046000868152602001908152602001600020600001819055508260066000868152602001908152602001600020819055508673ffffffffffffffffffffffffffffffffffffffff167f69f424df462d3aab52240ab26d892e9353148a6587bbabaca097a7b88f4698b1848e4260405161212193929190613ca8565b60405180910390a2505050505050505050505050565b600060036000838152602001908152602001600020549050919050565b600085600115156000808373ffffffffffffffffffffffffffffffffffffffff1673ffffffffffffffffffffffffffffffffffffffff16815260200190815260200160002060020160149054906101000a900460ff161515146121ec576040517f08c379a00000000000000000000000000000000000000000000000000000000081526004016121e390613885565b60405180910390fd5b60006121fa88888787610e7c565b90506000600c60009054906101000a900473ffffffffffffffffffffffffffffffffffffffff1673ffffffffffffffffffffffffffffffffffffffff16637d78dfbd8a8a8a89876040518663ffffffff1660e01b8152600401612261959493929190613ce6565b6020604051808303816000875af1158015612280573d6000803e3d6000fd5b505050506040513d601f19601f820116820180604052508101906122a49190613c44565b9050600b60009054906101000a900473ffffffffffffffffffffffffffffffffffffffff1673ffffffffffffffffffffffffffffffffffffffff16635599e05a8a6001846040518463ffffffff1660e01b815260040161230693929190613d8a565b6020604051808303816000875af1158015612325573d6000803e3d6000fd5b505050506040513d601f19601f820116820180604052508101906123499190613b71565b5080935050505095945050505050565b6060806000806000808673ffffffffffffffffffffffffffffffffffffffff1673ffffffffffffffffffffffffffffffffffffffff1681526020019081526020016000206000016000808773ffffffffffffffffffffffffffffffffffffffff1673ffffffffffffffffffffffffffffffffffffffff1681526020019081526020016000206001016000808873ffffffffffffffffffffffffffffffffffffffff1673ffffffffffffffffffffffffffffffffffffffff16815260200190815260200160002060020160009054906101000a900473ffffffffffffffffffffffffffffffffffffffff166000808973ffffffffffffffffffffffffffffffffffffffff1673ffffffffffffffffffffffffffffffffffffffff16815260200190815260200160002060020160149054906101000a900460ff1683805461249e906134d2565b80601f01602080910402602001604051908101604052809291908181526020018280546124ca906134d2565b80156125175780601f106124ec57610100808354040283529160200191612517565b820191906000526020600020905b8154815290600101906020018083116124fa57829003601f168201915b5050505050935082805461252a906134d2565b80601f0160208091040260200160405190810160405280929190818152602001828054612556906134d2565b80156125a35780601f10612578576101008083540402835291602001916125a3565b820191906000526020600020905b81548152906001019060200180831161258657829003601f168201915b5050505050925093509350935093509193509193565b6040518060c00160405280600690602082028036833780820191505090505090565b828054828255906000526020600020908101928215612654579160200282015b828111156126535782518260006101000a81548173ffffffffffffffffffffffffffffffffffffffff021916908373ffffffffffffffffffffffffffffffffffffffff160217905550916020019190600101906125fb565b5b5090506126619190612665565b5090565b5b8082111561267e576000816000905550600101612666565b5090565b6000604051905090565b600080fd5b600080fd5b6000819050919050565b6126a981612696565b81146126b457600080fd5b50565b6000813590506126c6816126a0565b92915050565b6000602082840312156126e2576126e161268c565b5b60006126f0848285016126b7565b91505092915050565b6000819050919050565b61270c816126f9565b82525050565b60006020820190506127276000830184612703565b92915050565b61273681612696565b82525050565b6000602082019050612751600083018461272d565b92915050565b600073ffffffffffffffffffffffffffffffffffffffff82169050919050565b6000819050919050565b600061279c61279761279284612757565b612777565b612757565b9050919050565b60006127ae82612781565b9050919050565b60006127c0826127a3565b9050919050565b6127d0816127b5565b82525050565b60006020820190506127eb60008301846127c7565b92915050565b60006127fc82612757565b9050919050565b61280c816127f1565b811461281757600080fd5b50565b60008135905061282981612803565b92915050565b6000602082840312156128455761284461268c565b5b60006128538482850161281a565b91505092915050565b6000612867826127a3565b9050919050565b6128778161285c565b82525050565b6000602082019050612892600083018461286e565b92915050565b6128a1816126f9565b81146128ac57600080fd5b50565b6000813590506128be81612898565b92915050565b6000602082840312156128da576128d961268c565b5b60006128e8848285016128af565b91505092915050565b600081519050919050565b600082825260208201905092915050565b60005b8381101561292b578082015181840152602081019050612910565b60008484015250505050565b6000601f19601f8301169050919050565b6000612953826128f1565b61295d81856128fc565b935061296d81856020860161290d565b61297681612937565b840191505092915050565b61298a816127f1565b82525050565b600081519050919050565b600082825260208201905092915050565b6000819050602082019050919050565b6129c5816127f1565b82525050565b60006129d783836129bc565b60208301905092915050565b6000602082019050919050565b60006129fb82612990565b612a05818561299b565b9350612a10836129ac565b8060005b83811015612a41578151612a2888826129cb565b9750612a33836129e3565b925050600181019050612a14565b5085935050505092915050565b600060a082019050612a63600083018861272d565b8181036020830152612a758187612948565b9050612a846040830186612981565b612a916060830185612703565b8181036080830152612aa381846129f0565b90509695505050505050565b60008115159050919050565b612ac481612aaf565b82525050565b60006080820190508181036000830152612ae48187612948565b90508181036020830152612af88186612948565b9050612b076040830185612981565b612b146060830184612abb565b95945050505050565b600080fd5b600080fd5b7f4e487b7100000000000000000000000000000000000000000000000000000000600052604160045260246000fd5b612b5f82612937565b810181811067ffffffffffffffff82111715612b7e57612b7d612b27565b5b80604052505050565b6000612b91612682565b9050612b9d8282612b56565b919050565b600067ffffffffffffffff821115612bbd57612bbc612b27565b5b612bc682612937565b9050602081019050919050565b82818337600083830152505050565b6000612bf5612bf084612ba2565b612b87565b905082815260208101848484011115612c1157612c10612b22565b5b612c1c848285612bd3565b509392505050565b600082601f830112612c3957612c38612b1d565b5b8135612c49848260208601612be2565b91505092915050565b600080600060608486031215612c6b57612c6a61268c565b5b600084013567ffffffffffffffff811115612c8957612c88612691565b5b612c9586828701612c24565b935050602084013567ffffffffffffffff811115612cb657612cb5612691565b5b612cc286828701612c24565b9250506040612cd38682870161281a565b9150509250925092565b60008060008060808587031215612cf757612cf661268c565b5b6000612d058782880161281a565b945050602085013567ffffffffffffffff811115612d2657612d25612691565b5b612d3287828801612c24565b935050604085013567ffffffffffffffff811115612d5357612d52612691565b5b612d5f87828801612c24565b925050606085013567ffffffffffffffff811115612d8057612d7f612691565b5b612d8c87828801612c24565b91505092959194509250565b600060069050919050565b600081905092915050565b6000819050919050565b612dc181612696565b82525050565b6000612dd38383612db8565b60208301905092915050565b6000602082019050919050565b612df581612d98565b612dff8184612da3565b9250612e0a82612dae565b8060005b83811015612e3b578151612e228782612dc7565b9650612e2d83612ddf565b925050600181019050612e0e565b505050505050565b600060c082019050612e586000830184612dec565b92915050565b600060a082019050612e73600083018861272d565b612e806020830187612703565b612e8d6040830186612981565b612e9a6060830185612703565b612ea76080830184612703565b9695505050505050565b60008060008060008060c08789031215612ece57612ecd61268c565b5b6000612edc89828a016126b7565b9650506020612eed89828a016128af565b9550506040612efe89828a0161281a565b9450506060612f0f89828a016128af565b9350506080612f2089828a016128af565b92505060a087013567ffffffffffffffff811115612f4157612f40612691565b5b612f4d89828a01612c24565b9150509295509295509295565b600060c082019050612f6f600083018961272d565b612f7c6020830188612703565b612f896040830187612981565b612f966060830186612703565b612fa36080830185612703565b81810360a0830152612fb58184612948565b9050979650505050505050565b6000602082019050612fd76000830184612981565b92915050565b6000608082019050612ff2600083018761272d565b81810360208301526130048186612948565b90506130136040830185612981565b6130206060830184612703565b95945050505050565b600067ffffffffffffffff82111561304457613043612b27565b5b602082029050602081019050919050565b600080fd5b600061306d61306884613029565b612b87565b905080838252602082019050602084028301858111156130905761308f613055565b5b835b818110156130b957806130a5888261281a565b845260208401935050602081019050613092565b5050509392505050565b600082601f8301126130d8576130d7612b1d565b5b81356130e884826020860161305a565b91505092915050565b600080600080600080600060e0888a0312156131105761310f61268c565b5b600088013567ffffffffffffffff81111561312e5761312d612691565b5b61313a8a828b01612c24565b975050602088013567ffffffffffffffff81111561315b5761315a612691565b5b6131678a828b01612c24565b965050604088013567ffffffffffffffff81111561318857613187612691565b5b6131948a828b01612c24565b95505060606131a58a828b016128af565b945050608088013567ffffffffffffffff8111156131c6576131c5612691565b5b6131d28a828b01612c24565b93505060a06131e38a828b0161281a565b92505060c088013567ffffffffffffffff81111561320457613203612691565b5b6132108a828b016130c3565b91505092959891949750929550565b600080600080600060a0868803121561323b5761323a61268c565b5b60006132498882890161281a565b955050602086013567ffffffffffffffff81111561326a57613269612691565b5b61327688828901612c24565b945050604086013567ffffffffffffffff81111561329757613296612691565b5b6132a388828901612c24565b935050606086013567ffffffffffffffff8111156132c4576132c3612691565b5b6132d088828901612c24565b925050608086013567ffffffffffffffff8111156132f1576132f0612691565b5b6132fd88828901612c24565b9150509295509295909350565b7f4f6e6c7920746865206f776e65722063616e20706572666f726d20746869732060008201527f616374696f6e0000000000000000000000000000000000000000000000000000602082015250565b60006133666026836128fc565b91506133718261330a565b604082019050919050565b6000602082019050818103600083015261339581613359565b9050919050565b7f4661726d6572206e6f7420726567697374657265640000000000000000000000600082015250565b60006133d26015836128fc565b91506133dd8261339c565b602082019050919050565b60006020820190508181036000830152613401816133c5565b9050919050565b7f496e76616c696420696e64657800000000000000000000000000000000000000600082015250565b600061343e600d836128fc565b915061344982613408565b602082019050919050565b6000602082019050818103600083015261346d81613431565b9050919050565b7f4e487b7100000000000000000000000000000000000000000000000000000000600052603260045260246000fd5b7f4e487b7100000000000000000000000000000000000000000000000000000000600052602260045260246000fd5b600060028204905060018216806134ea57607f821691505b6020821081036134fd576134fc6134a3565b5b50919050565b7f4661726d6572206164647265737320696e76616c696400000000000000000000600082015250565b60006135396016836128fc565b915061354482613503565b602082019050919050565b600060208201905081810360008301526135688161352c565b9050919050565b60008190508160005260206000209050919050565b60006020601f8301049050919050565b600082821b905092915050565b6000600883026135d17fffffffffffffffffffffffffffffffffffffffffffffffffffffffffffffffff82613594565b6135db8683613594565b95508019841693508086168417925050509392505050565b600061360e613609613604846126f9565b612777565b6126f9565b9050919050565b6000819050919050565b613628836135f3565b61363c61363482613615565b8484546135a1565b825550505050565b600090565b613651613644565b61365c81848461361f565b505050565b5b8181101561368057613675600082613649565b600181019050613662565b5050565b601f8211156136c5576136968161356f565b61369f84613584565b810160208510156136ae578190505b6136c26136ba85613584565b830182613661565b50505b505050565b600082821c905092915050565b60006136e8600019846008026136ca565b1980831691505092915050565b600061370183836136d7565b9150826002028217905092915050565b61371a826128f1565b67ffffffffffffffff81111561373357613732612b27565b5b61373d82546134d2565b613748828285613684565b600060209050601f83116001811461377b5760008415613769578287015190505b61377385826136f5565b8655506137db565b601f1984166137898661356f565b60005b828110156137b15784890151825560018201915060208501945060208101905061378c565b868310156137ce57848901516137ca601f8916826136d7565b8355505b6001600288020188555050505b505050505050565b600060408201905081810360008301526137fd8185612948565b905061380c6020830184612703565b9392505050565b7f4f6e6c7920746865206661726d65722063616e2073656c6c207468697320707260008201527f6f64756374000000000000000000000000000000000000000000000000000000602082015250565b600061386f6025836128fc565b915061387a82613813565b604082019050919050565b6000602082019050818103600083015261389e81613862565b9050919050565b7f6661726d65722061646472657373206f7220636f6e7369676e6d656e7420686160008201527f736820696e76616c696400000000000000000000000000000000000000000000602082015250565b6000613901602a836128fc565b915061390c826138a5565b604082019050919050565b60006020820190508181036000830152613930816138f4565b9050919050565b7f4e487b7100000000000000000000000000000000000000000000000000000000600052601160045260246000fd5b6000613971826126f9565b915061397c836126f9565b925082820390508181111561399457613993613937565b5b92915050565b600081905092915050565b60006139b0826128f1565b6139ba818561399a565b93506139ca81856020860161290d565b80840191505092915050565b60006139e282846139a5565b915081905092915050565b7f4275796572206f72204661726d6572206164647265737320696e76616c696400600082015250565b6000613a23601f836128fc565b9150613a2e826139ed565b602082019050919050565b60006020820190508181036000830152613a5281613a16565b9050919050565b7f496e73756666696369656e742070726f6475636520746f2073656c6c00000000600082015250565b6000613a8f601c836128fc565b9150613a9a82613a59565b602082019050919050565b60006020820190508181036000830152613abe81613a82565b9050919050565b6000819050919050565b6000613aea613ae5613ae084613ac5565b612777565b6126f9565b9050919050565b613afa81613acf565b82525050565b6000608082019050613b156000830187612981565b613b226020830186613af1565b613b2f604083018561272d565b613b3c6060830184612981565b95945050505050565b613b4e81612aaf565b8114613b5957600080fd5b50565b600081519050613b6b81613b45565b92915050565b600060208284031215613b8757613b8661268c565b5b6000613b9584828501613b5c565b91505092915050565b6000606082019050613bb3600083018661272d565b613bc06020830185612703565b613bcd6040830184612703565b949350505050565b6000608082019050613bea6000830187612981565b8181036020830152613bfc8186612948565b90508181036040830152613c108185612948565b90508181036060830152613c248184612948565b905095945050505050565b600081519050613c3e816126a0565b92915050565b600060208284031215613c5a57613c5961268c565b5b6000613c6884828501613c2f565b91505092915050565b6000606082019050613c866000830186612981565b613c936020830185613af1565b613ca0604083018461272d565b949350505050565b6000606082019050613cbd600083018661272d565b8181036020830152613ccf8185612948565b9050613cde6040830184612703565b949350505050565b600061014082019050613cfc6000830188612981565b8181036020830152613d0e8187612948565b90508181036040830152613d228186612948565b90508181036060830152613d368185612948565b9050613d456080830184612dec565b9695505050505050565b6000819050919050565b6000613d74613d6f613d6a84613d4f565b612777565b6126f9565b9050919050565b613d8481613d59565b82525050565b6000606082019050613d9f6000830186612981565b613dac6020830185613d7b565b613db9604083018461272d565b94935050505056fea2646970667358221220d39dd5227e4c9fcfba0229f391e5e3e31fd697b52e2b46e6e7e6d4041894c49964736f6c63430008180033",
  "linkReferences": {},
  "deployedLinkReferences": {}
}