{
  "_format": "hh-sol-artifact-1",
  "contractName": "ProduceTraceabilityV7",
  "sourceName": "contracts/ProduceTraceabilityV7.sol",
  "abi": [
    {
      "inputs": [
        {
          "internalType": "address",
          "name": "product_own_address",
          "type": "address"
        },
        {
          "internalType": "address",
          "name": "product_mgmt_address",
          "type": "address"
        }
      ],
      "stateMutability": "nonpayable",
      "type": "constructor"
    },
    {
      "anonymous": false,
      "inputs": [
        {
          "indexed": false,
          "internalType": "string",
          "name": "name",
          "type": "string"
        },
        {
          "indexed": true,
          "internalType": "address",
          "name": "ethAddress",
          "type": "address"
        },
        {
          "indexed": false,
          "internalType": "uint256",
          "name": "timestamp",
          "type": "uint256"
        }
      ],
      "name": "FarmerRegistered",
      "type": "event"
    },
    {
      "anonymous": false,
      "inputs": [
        {
          "indexed": true,
          "internalType": "address",
          "name": "ethAddress",
          "type": "address"
        },
        {
          "indexed": false,
          "internalType": "uint256",
          "name": "timestamp",
          "type": "uint256"
        }
      ],
      "name": "FarmerVerified",
      "type": "event"
    },
    {
      "anonymous": false,
      "inputs": [
        {
          "indexed": true,
          "internalType": "address",
          "name": "farmer",
          "type": "address"
        },
        {
          "indexed": false,
          "internalType": "bytes32",
          "name": "produce_hash",
          "type": "bytes32"
        },
        {
          "indexed": false,
          "internalType": "string",
          "name": "produce_name",
          "type": "string"
        },
        {
          "indexed": false,
          "internalType": "uint256",
          "name": "timestamp",
          "type": "uint256"
        }
      ],
      "name": "ProduceAdded",
      "type": "event"
    },
    {
      "anonymous": false,
      "inputs": [
        {
          "indexed": true,
          "internalType": "address",
          "name": "source",
          "type": "address"
        },
        {
          "indexed": false,
          "internalType": "bytes32",
          "name": "produce_hash",
          "type": "bytes32"
        },
        {
          "indexed": false,
          "internalType": "uint256",
          "name": "referenceNumber",
          "type": "uint256"
        },
        {
          "indexed": false,
          "internalType": "uint256",
          "name": "timestamp",
          "type": "uint256"
        }
      ],
      "name": "ProduceSold",
      "type": "event"
    },
    {
      "inputs": [
        {
          "internalType": "uint256",
          "name": "",
          "type": "uint256"
        }
      ],
      "name": "FarmProduces",
      "outputs": [
        {
          "internalType": "bytes32",
          "name": "produceHash",
          "type": "bytes32"
        },
        {
          "internalType": "string",
          "name": "produce",
          "type": "string"
        },
        {
          "internalType": "address",
          "name": "farmer",
          "type": "address"
        },
        {
          "internalType": "uint256",
          "name": "quantity",
          "type": "uint256"
        }
      ],
      "stateMutability": "view",
      "type": "function"
    },
    {
      "inputs": [
        {
          "internalType": "uint256",
          "name": "",
          "type": "uint256"
        }
      ],
      "name": "FarmerAddresses",
      "outputs": [
        {
          "internalType": "address",
          "name": "",
          "type": "address"
        }
      ],
      "stateMutability": "view",
      "type": "function"
    },
    {
      "inputs": [
        {
          "internalType": "uint256",
          "name": "",
          "type": "uint256"
        }
      ],
      "name": "ProduceSales",
      "outputs": [
        {
          "internalType": "bytes32",
          "name": "consignmentHash",
          "type": "bytes32"
        },
        {
          "internalType": "uint256",
          "name": "referenceNumber",
          "type": "uint256"
        },
        {
          "internalType": "address",
          "name": "buyer",
          "type": "address"
        },
        {
          "internalType": "uint256",
          "name": "amount",
          "type": "uint256"
        },
        {
          "internalType": "uint256",
          "name": "price",
          "type": "uint256"
        },
        {
          "internalType": "string",
          "name": "time",
          "type": "string"
        }
      ],
      "stateMutability": "view",
      "type": "function"
    },
    {
      "inputs": [
        {
          "internalType": "address",
          "name": "farmer",
          "type": "address"
        },
        {
          "internalType": "string",
          "name": "lot_number",
          "type": "string"
        },
        {
          "internalType": "string",
          "name": "weight",
          "type": "string"
        },
        {
          "internalType": "string",
          "name": "storage_date",
          "type": "string"
        }
      ],
      "name": "addConsignment",
      "outputs": [
        {
          "internalType": "bytes32",
          "name": "",
          "type": "bytes32"
        }
      ],
      "stateMutability": "nonpayable",
      "type": "function"
    },
    {
      "inputs": [
        {
          "internalType": "string",
          "name": "_produce_name",
          "type": "string"
        },
        {
          "internalType": "string",
          "name": "_lot_number",
          "type": "string"
        },
        {
          "internalType": "string",
          "name": "_weight",
          "type": "string"
        },
        {
          "internalType": "uint256",
          "name": "_quantity",
          "type": "uint256"
        },
        {
          "internalType": "string",
          "name": "_storage_date",
          "type": "string"
        },
        {
          "internalType": "address",
          "name": "_farmer",
          "type": "address"
        },
        {
          "internalType": "address[]",
          "name": "_agents",
          "type": "address[]"
        }
      ],
      "name": "addFarmProduce",
      "outputs": [],
      "stateMutability": "nonpayable",
      "type": "function"
    },
    {
      "inputs": [
        {
          "internalType": "address",
          "name": "farmer",
          "type": "address"
        },
        {
          "internalType": "string",
          "name": "lot_number",
          "type": "string"
        },
        {
          "internalType": "string",
          "name": "produce",
          "type": "string"
        },
        {
          "internalType": "string",
          "name": "weight",
          "type": "string"
        },
        {
          "internalType": "string",
          "name": "storage_date",
          "type": "string"
        }
      ],
      "name": "addProduct",
      "outputs": [
        {
          "internalType": "bytes32",
          "name": "",
          "type": "bytes32"
        }
      ],
      "stateMutability": "nonpayable",
      "type": "function"
    },
    {
      "inputs": [
        {
          "internalType": "address",
          "name": "",
          "type": "address"
        }
      ],
      "name": "currentconsignment",
      "outputs": [
        {
          "internalType": "bytes32",
          "name": "",
          "type": "bytes32"
        }
      ],
      "stateMutability": "view",
      "type": "function"
    },
    {
      "inputs": [
        {
          "internalType": "bytes32",
          "name": "",
          "type": "bytes32"
        }
      ],
      "name": "currentproduct",
      "outputs": [
        {
          "internalType": "bytes32",
          "name": "",
          "type": "bytes32"
        }
      ],
      "stateMutability": "view",
      "type": "function"
    },
    {
      "inputs": [
        {
          "internalType": "address",
          "name": "",
          "type": "address"
        }
      ],
      "name": "farmers",
      "outputs": [
        {
          "internalType": "string",
          "name": "name",
          "type": "string"
        },
        {
          "internalType": "string",
          "name": "location",
          "type": "string"
        },
        {
          "internalType": "address",
          "name": "ethAddress",
          "type": "address"
        },
        {
          "internalType": "bool",
          "name": "isVerified",
          "type": "bool"
        }
      ],
      "stateMutability": "view",
      "type": "function"
    },
    {
      "inputs": [
        {
          "internalType": "bytes32",
          "name": "",
          "type": "bytes32"
        }
      ],
      "name": "farmproduct",
      "outputs": [
        {
          "internalType": "bytes32",
          "name": "produceHash",
          "type": "bytes32"
        },
        {
          "internalType": "string",
          "name": "produce",
          "type": "string"
        },
        {
          "internalType": "address",
          "name": "farmer",
          "type": "address"
        },
        {
          "internalType": "uint256",
          "name": "quantity",
          "type": "uint256"
        }
      ],
      "stateMutability": "view",
      "type": "function"
    },
    {
      "inputs": [
        {
          "internalType": "address",
          "name": "_ethAddress",
          "type": "address"
        }
      ],
      "name": "getFarmer",
      "outputs": [
        {
          "internalType": "string",
          "name": "",
          "type": "string"
        },
        {
          "internalType": "string",
          "name": "",
          "type": "string"
        },
        {
          "internalType": "address",
          "name": "",
          "type": "address"
        },
        {
          "internalType": "bool",
          "name": "",
          "type": "bool"
        }
      ],
      "stateMutability": "view",
      "type": "function"
    },
    {
      "inputs": [],
      "name": "getFarmerCount",
      "outputs": [
        {
          "internalType": "uint256",
          "name": "",
          "type": "uint256"
        }
      ],
      "stateMutability": "view",
      "type": "function"
    },
    {
      "inputs": [
        {
          "internalType": "uint256",
          "name": "index",
          "type": "uint256"
        }
      ],
      "name": "getProduce",
      "outputs": [
        {
          "internalType": "bytes32",
          "name": "",
          "type": "bytes32"
        },
        {
          "internalType": "string",
          "name": "",
          "type": "string"
        },
        {
          "internalType": "address",
          "name": "",
          "type": "address"
        },
        {
          "internalType": "uint256",
          "name": "",
          "type": "uint256"
        },
        {
          "internalType": "address[]",
          "name": "",
          "type": "address[]"
        }
      ],
      "stateMutability": "view",
      "type": "function"
    },
    {
      "inputs": [],
      "name": "getProduceCount",
      "outputs": [
        {
          "internalType": "uint256",
          "name": "",
          "type": "uint256"
        }
      ],
      "stateMutability": "view",
      "type": "function"
    },
    {
      "inputs": [
        {
          "internalType": "bytes32",
          "name": "_produceHash",
          "type": "bytes32"
        }
      ],
      "name": "getProduceIndex",
      "outputs": [
        {
          "internalType": "uint256",
          "name": "",
          "type": "uint256"
        }
      ],
      "stateMutability": "view",
      "type": "function"
    },
    {
      "inputs": [
        {
          "internalType": "uint256",
          "name": "index",
          "type": "uint256"
        }
      ],
      "name": "getProduceSale",
      "outputs": [
        {
          "internalType": "bytes32",
          "name": "",
          "type": "bytes32"
        },
        {
          "internalType": "uint256",
          "name": "",
          "type": "uint256"
        },
        {
          "internalType": "address",
          "name": "",
          "type": "address"
        },
        {
          "internalType": "uint256",
          "name": "",
          "type": "uint256"
        },
        {
          "internalType": "uint256",
          "name": "",
          "type": "uint256"
        }
      ],
      "stateMutability": "view",
      "type": "function"
    },
    {
      "inputs": [],
      "name": "getProduceSaleCount",
      "outputs": [
        {
          "internalType": "uint256",
          "name": "",
          "type": "uint256"
        }
      ],
      "stateMutability": "view",
      "type": "function"
    },
    {
      "inputs": [
        {
          "internalType": "uint256",
          "name": "_referenceNumber",
          "type": "uint256"
        }
      ],
      "name": "getProduceSaleIndex",
      "outputs": [
        {
          "internalType": "uint256",
          "name": "",
          "type": "uint256"
        }
      ],
      "stateMutability": "view",
      "type": "function"
    },
    {
      "inputs": [],
      "name": "owner",
      "outputs": [
        {
          "internalType": "address",
          "name": "",
          "type": "address"
        }
      ],
      "stateMutability": "view",
      "type": "function"
    },
    {
      "inputs": [],
      "name": "pomg",
      "outputs": [
        {
          "internalType": "contract ProduceManagement",
          "name": "",
          "type": "address"
        }
      ],
      "stateMutability": "view",
      "type": "function"
    },
    {
      "inputs": [],
      "name": "pown",
      "outputs": [
        {
          "internalType": "contract ProduceOwnershipV2",
          "name": "",
          "type": "address"
        }
      ],
      "stateMutability": "view",
      "type": "function"
    },
    {
      "inputs": [
        {
          "internalType": "bytes32",
          "name": "",
          "type": "bytes32"
        }
      ],
      "name": "productindex",
      "outputs": [
        {
          "internalType": "uint256",
          "name": "",
          "type": "uint256"
        }
      ],
      "stateMutability": "view",
      "type": "function"
    },
    {
      "inputs": [
        {
          "internalType": "bytes32",
          "name": "",
          "type": "bytes32"
        }
      ],
      "name": "productsales",
      "outputs": [
        {
          "internalType": "bytes32",
          "name": "consignmentHash",
          "type": "bytes32"
        },
        {
          "internalType": "uint256",
          "name": "referenceNumber",
          "type": "uint256"
        },
        {
          "internalType": "address",
          "name": "buyer",
          "type": "address"
        },
        {
          "internalType": "uint256",
          "name": "amount",
          "type": "uint256"
        },
        {
          "internalType": "uint256",
          "name": "price",
          "type": "uint256"
        },
        {
          "internalType": "string",
          "name": "time",
          "type": "string"
        }
      ],
      "stateMutability": "view",
      "type": "function"
    },
    {
      "inputs": [
        {
          "internalType": "string",
          "name": "_name",
          "type": "string"
        },
        {
          "internalType": "string",
          "name": "_location",
          "type": "string"
        },
        {
          "internalType": "address",
          "name": "_ethAddress",
          "type": "address"
        }
      ],
      "name": "registerFarmer",
      "outputs": [],
      "stateMutability": "nonpayable",
      "type": "function"
    },
    {
      "inputs": [
        {
          "internalType": "uint256",
          "name": "",
          "type": "uint256"
        }
      ],
      "name": "saleindex",
      "outputs": [
        {
          "internalType": "uint256",
          "name": "",
          "type": "uint256"
        }
      ],
      "stateMutability": "view",
      "type": "function"
    },
    {
      "inputs": [
        {
          "internalType": "bytes32",
          "name": "_consignmentHash",
          "type": "bytes32"
        },
        {
          "internalType": "uint256",
          "name": "_referenceNumber",
          "type": "uint256"
        },
        {
          "internalType": "address",
          "name": "_buyer",
          "type": "address"
        },
        {
          "internalType": "uint256",
          "name": "_amount",
          "type": "uint256"
        },
        {
          "internalType": "uint256",
          "name": "_price",
          "type": "uint256"
        },
        {
          "internalType": "string",
          "name": "_timestamp",
          "type": "string"
        }
      ],
      "name": "sellFarmProduce",
      "outputs": [],
      "stateMutability": "nonpayable",
      "type": "function"
    },
    {
      "inputs": [
        {
          "internalType": "address",
          "name": "farmer",
          "type": "address"
        },
        {
          "internalType": "string",
          "name": "lot_number",
          "type": "string"
        },
        {
          "internalType": "string",
          "name": "weight",
          "type": "string"
        },
        {
          "internalType": "string",
          "name": "storage_date",
          "type": "string"
        }
      ],
      "name": "structToBytes32Array",
      "outputs": [
        {
          "internalType": "bytes32[6]",
          "name": "",
          "type": "bytes32[6]"
        }
      ],
      "stateMutability": "view",
      "type": "function"
    },
    {
      "inputs": [
        {
          "internalType": "address",
          "name": "_ethAddress",
          "type": "address"
        }
      ],
      "name": "verifyFarmer",
      "outputs": [],
      "stateMutability": "nonpayable",
      "type": "function"
    }
  ],
  "bytecode": "0x60806040523480156200001157600080fd5b5060405162003e6538038062003e6583398181016040528101906200003791906200016c565b33600a60006101000a81548173ffffffffffffffffffffffffffffffffffffffff021916908373ffffffffffffffffffffffffffffffffffffffff16021790555081600b60006101000a81548173ffffffffffffffffffffffffffffffffffffffff021916908373ffffffffffffffffffffffffffffffffffffffff16021790555080600c60006101000a81548173ffffffffffffffffffffffffffffffffffffffff021916908373ffffffffffffffffffffffffffffffffffffffff1602179055505050620001b3565b600080fd5b600073ffffffffffffffffffffffffffffffffffffffff82169050919050565b6000620001348262000107565b9050919050565b620001468162000127565b81146200015257600080fd5b50565b60008151905062000166816200013b565b92915050565b6000806040838503121562000186576200018562000102565b5b6000620001968582860162000155565b9250506020620001a98582860162000155565b9150509250929050565b613ca280620001c36000396000f3fe608060405234801561001057600080fd5b50600436106101c45760003560e01c80638e6c4db2116100f9578063c7bb4b8711610097578063e0e3d63111610071578063e0e3d631146105bc578063e149c4e3146105d8578063e5e20ac914610608578063e7609c1614610638576101c4565b8063c7bb4b8714610550578063ce0ed6ad1461056e578063d070377c1461059e576101c4565b8063a12b67f1116100d3578063a12b67f11461049d578063a7d697ed146104cd578063ac7fc935146104fd578063c4a8b5d514610532576101c4565b80638e6c4db21461041c5780639c00cb651461043a5780639f1405b91461046a576101c4565b8063605ea98d11610166578063797cc64a11610140578063797cc64a1461037a5780638c09a573146103965780638da5cb5b146103cb5780638e0d02f6146103e9576101c4565b8063605ea98d146102e657806363a3cd881461031657806371e2d9421461034a576101c4565b8063235db9f5116101a2578063235db9f514610247578063389b806614610263578063401b2168146102975780635c0b1acd146102ca576101c4565b80630d803290146101c957806312e33b82146101f95780631fac4fc914610229575b600080fd5b6101e360048036038101906101de9190612609565b61066b565b6040516101f0919061264f565b60405180910390f35b610213600480360381019061020e9190612609565b610683565b6040516102209190612679565b60405180910390f35b61023161069b565b60405161023e919061264f565b60405180910390f35b610261600480360381019061025c91906126f2565b6106a8565b005b61027d6004803603810190610278919061274b565b6108b3565b60405161028e9594939291906128d5565b60405180910390f35b6102b160048036038101906102ac91906126f2565b610a88565b6040516102c19493929190612951565b60405180910390f35b6102e460048036038101906102df9190612ad9565b610bf5565b005b61030060048036038101906102fb9190612b64565b610e30565b60405161030d9190612cca565b60405180910390f35b610330600480360381019061032b919061274b565b611090565b604051610341959493929190612ce5565b60405180910390f35b610364600480360381019061035f91906126f2565b611152565b6040516103719190612679565b60405180910390f35b610394600480360381019061038f9190612d38565b61116a565b005b6103b060048036038101906103ab919061274b565b611623565b6040516103c296959493929190612de1565b60405180910390f35b6103d3611717565b6040516103e09190612e49565b60405180910390f35b61040360048036038101906103fe919061274b565b61173d565b6040516104139493929190612e64565b60405180910390f35b610424611825565b6040516104319190612f0f565b60405180910390f35b610454600480360381019061044f919061274b565b61184b565b6040516104619190612e49565b60405180910390f35b610484600480360381019061047f9190612609565b61188a565b6040516104949493929190612e64565b60405180910390f35b6104b760048036038101906104b29190612609565b611962565b6040516104c4919061264f565b60405180910390f35b6104e760048036038101906104e29190612b64565b61197f565b6040516104f49190612679565b60405180910390f35b61051760048036038101906105129190612609565b611bb4565b60405161052996959493929190612de1565b60405180910390f35b61053a611c98565b604051610547919061264f565b60405180910390f35b610558611ca5565b6040516105659190612f4b565b60405180910390f35b6105886004803603810190610583919061274b565b611ccb565b604051610595919061264f565b60405180910390f35b6105a6611ce3565b6040516105b3919061264f565b60405180910390f35b6105d660048036038101906105d1919061302e565b611cf0565b005b6105f260048036038101906105ed919061274b565b612074565b6040516105ff919061264f565b60405180910390f35b610622600480360381019061061d919061315c565b612091565b60405161062f9190612679565b60405180910390f35b610652600480360381019061064d91906126f2565b612296565b6040516106629493929190612951565b60405180910390f35b60016020528060005260406000206000915090505481565b60066020528060005260406000206000915090505481565b6000600880549050905090565b600a60009054906101000a900473ffffffffffffffffffffffffffffffffffffffff1673ffffffffffffffffffffffffffffffffffffffff163373ffffffffffffffffffffffffffffffffffffffff1614610738576040517f08c379a000000000000000000000000000000000000000000000000000000000815260040161072f906132b9565b60405180910390fd5b600073ffffffffffffffffffffffffffffffffffffffff166000808373ffffffffffffffffffffffffffffffffffffffff1673ffffffffffffffffffffffffffffffffffffffff16815260200190815260200160002060020160009054906101000a900473ffffffffffffffffffffffffffffffffffffffff1673ffffffffffffffffffffffffffffffffffffffff1603610808576040517f08c379a00000000000000000000000000000000000000000000000000000000081526004016107ff90613325565b60405180910390fd5b60016000808373ffffffffffffffffffffffffffffffffffffffff1673ffffffffffffffffffffffffffffffffffffffff16815260200190815260200160002060020160146101000a81548160ff0219169083151502179055508073ffffffffffffffffffffffffffffffffffffffff167fea8fb419111481ddf23f46f716977ce4313705081e37049fda136377a3a6a929426040516108a8919061264f565b60405180910390a250565b6000606060008060606008805490508610610903576040517f08c379a00000000000000000000000000000000000000000000000000000000081526004016108fa90613391565b60405180910390fd5b600060088781548110610919576109186133b1565b5b906000526020600020906005020190508060000154816001018260020160009054906101000a900473ffffffffffffffffffffffffffffffffffffffff1683600301548460040183805461096c9061340f565b80601f01602080910402602001604051908101604052809291908181526020018280546109989061340f565b80156109e55780601f106109ba576101008083540402835291602001916109e5565b820191906000526020600020905b8154815290600101906020018083116109c857829003601f168201915b5050505050935080805480602002602001604051908101604052809291908181526020018280548015610a6d57602002820191906000526020600020905b8160009054906101000a900473ffffffffffffffffffffffffffffffffffffffff1673ffffffffffffffffffffffffffffffffffffffff1681526020019060010190808311610a23575b50505050509050955095509550955095505091939590929450565b6000602052806000526040600020600091509050806000018054610aab9061340f565b80601f0160208091040260200160405190810160405280929190818152602001828054610ad79061340f565b8015610b245780601f10610af957610100808354040283529160200191610b24565b820191906000526020600020905b815481529060010190602001808311610b0757829003601f168201915b505050505090806001018054610b399061340f565b80601f0160208091040260200160405190810160405280929190818152602001828054610b659061340f565b8015610bb25780601f10610b8757610100808354040283529160200191610bb2565b820191906000526020600020905b815481529060010190602001808311610b9557829003601f168201915b5050505050908060020160009054906101000a900473ffffffffffffffffffffffffffffffffffffffff16908060020160149054906101000a900460ff16905084565b600073ffffffffffffffffffffffffffffffffffffffff168173ffffffffffffffffffffffffffffffffffffffff1603610c64576040517f08c379a0000000000000000000000000000000000000000000000000000000008152600401610c5b9061348c565b60405180910390fd5b600060405180608001604052808581526020018481526020018373ffffffffffffffffffffffffffffffffffffffff168152602001600015158152509050806000808473ffffffffffffffffffffffffffffffffffffffff1673ffffffffffffffffffffffffffffffffffffffff1681526020019081526020016000206000820151816000019081610cf6919061364e565b506020820151816001019081610d0c919061364e565b5060408201518160020160006101000a81548173ffffffffffffffffffffffffffffffffffffffff021916908373ffffffffffffffffffffffffffffffffffffffff16021790555060608201518160020160146101000a81548160ff0219169083151502179055509050506007829080600181540180825580915050600190039060005260206000200160009091909190916101000a81548173ffffffffffffffffffffffffffffffffffffffff021916908373ffffffffffffffffffffffffffffffffffffffff1602179055508173ffffffffffffffffffffffffffffffffffffffff167f410a9489a5427585a7b8116b854cd41394a92f728eba3846cf87d4ce923864328542604051610e22929190613720565b60405180910390a250505050565b610e386124f6565b84600115156000808373ffffffffffffffffffffffffffffffffffffffff1673ffffffffffffffffffffffffffffffffffffffff16815260200190815260200160002060020160149054906101000a900460ff16151514610ece576040517f08c379a0000000000000000000000000000000000000000000000000000000008152600401610ec5906137c2565b60405180910390fd5b6000600560008873ffffffffffffffffffffffffffffffffffffffff1673ffffffffffffffffffffffffffffffffffffffff168152602001908152602001600020549050610f1a6124f6565b6000610f2461069b565b90506000811115610f3f57600181610f3c9190613811565b90505b8060001b82600060068110610f5757610f566133b1565b5b6020020181815250508282600160068110610f7557610f746133b1565b5b6020020181815250508873ffffffffffffffffffffffffffffffffffffffff1660001b82600260068110610fac57610fab6133b1565b5b60200201818152505087604051602001610fc69190613881565b6040516020818303038152906040528051906020012082600360068110610ff057610fef6133b1565b5b6020020181815250508660405160200161100a9190613881565b6040516020818303038152906040528051906020012082600460068110611034576110336133b1565b5b6020020181815250508560405160200161104e9190613881565b6040516020818303038152906040528051906020012082600560068110611078576110776133b1565b5b60200201818152505081945050505050949350505050565b600080600080600060098054905086106110df576040517f08c379a00000000000000000000000000000000000000000000000000000000081526004016110d690613391565b60405180910390fd5b6000600987815481106110f5576110f46133b1565b5b90600052602060002090600602019050806000015481600101548260020160009054906101000a900473ffffffffffffffffffffffffffffffffffffffff1683600301548460040154955095509550955095505091939590929450565b60056020528060005260406000206000915090505481565b60006006600088815260200190815260200160002054905060006002600083815260200190815260200160002060020160009054906101000a900473ffffffffffffffffffffffffffffffffffffffff169050600073ffffffffffffffffffffffffffffffffffffffff168673ffffffffffffffffffffffffffffffffffffffff16141580156112275750600073ffffffffffffffffffffffffffffffffffffffff168173ffffffffffffffffffffffffffffffffffffffff1614155b611266576040517f08c379a000000000000000000000000000000000000000000000000000000000815260040161125d906138e4565b60405180910390fd5b600061127183611962565b9050600060088281548110611289576112886133b1565b5b9060005260206000209060050201600301549050808711156112e0576040517f08c379a00000000000000000000000000000000000000000000000000000000081526004016112d790613950565b60405180910390fd5b60006040518060c001604052808c81526020018b81526020018a73ffffffffffffffffffffffffffffffffffffffff1681526020018981526020018881526020018781525090506009819080600181540180825580915050600190039060005260206000209060060201600090919091909150600082015181600001556020820151816001015560408201518160020160006101000a81548173ffffffffffffffffffffffffffffffffffffffff021916908373ffffffffffffffffffffffffffffffffffffffff160217905550606082015181600301556080820151816004015560a08201518160050190816113d7919061364e565b505050600b60009054906101000a900473ffffffffffffffffffffffffffffffffffffffff1673ffffffffffffffffffffffffffffffffffffffff16639e30ef748560008e8d6040518563ffffffff1660e01b815260040161143c94939291906139ab565b6020604051808303816000875af115801561145b573d6000803e3d6000fd5b505050506040513d601f19601f8201168201806040525081019061147f9190613a1c565b508760088481548110611495576114946133b1565b5b906000526020600020906005020160030160008282546114b59190613811565b9250508190555060006114c6611ce3565b905060008111156114e1576001816114de9190613811565b90505b80600360008d8152602001908152602001600020819055508a600460008e81526020019081526020016000206001018190555089600460008e815260200190815260200160002060020160006101000a81548173ffffffffffffffffffffffffffffffffffffffff021916908373ffffffffffffffffffffffffffffffffffffffff16021790555088600460008e81526020019081526020016000206003018190555087600460008e81526020019081526020016000206004018190555086600460008e815260200190815260200160002060050190816115c2919061364e565b508473ffffffffffffffffffffffffffffffffffffffff167fd8e472d3dd76781849890d81c5b0566a834d86725e397b82689592634841c0758d8d4260405161160d93929190613a49565b60405180910390a2505050505050505050505050565b6009818154811061163357600080fd5b90600052602060002090600602016000915090508060000154908060010154908060020160009054906101000a900473ffffffffffffffffffffffffffffffffffffffff16908060030154908060040154908060050180546116949061340f565b80601f01602080910402602001604051908101604052809291908181526020018280546116c09061340f565b801561170d5780601f106116e25761010080835404028352916020019161170d565b820191906000526020600020905b8154815290600101906020018083116116f057829003601f168201915b5050505050905086565b600a60009054906101000a900473ffffffffffffffffffffffffffffffffffffffff1681565b6008818154811061174d57600080fd5b90600052602060002090600502016000915090508060000154908060010180546117769061340f565b80601f01602080910402602001604051908101604052809291908181526020018280546117a29061340f565b80156117ef5780601f106117c4576101008083540402835291602001916117ef565b820191906000526020600020905b8154815290600101906020018083116117d257829003601f168201915b5050505050908060020160009054906101000a900473ffffffffffffffffffffffffffffffffffffffff16908060030154905084565b600b60009054906101000a900473ffffffffffffffffffffffffffffffffffffffff1681565b6007818154811061185b57600080fd5b906000526020600020016000915054906101000a900473ffffffffffffffffffffffffffffffffffffffff1681565b60026020528060005260406000206000915090508060000154908060010180546118b39061340f565b80601f01602080910402602001604051908101604052809291908181526020018280546118df9061340f565b801561192c5780601f106119015761010080835404028352916020019161192c565b820191906000526020600020905b81548152906001019060200180831161190f57829003601f168201915b5050505050908060020160009054906101000a900473ffffffffffffffffffffffffffffffffffffffff16908060030154905084565b600060016000838152602001908152602001600020549050919050565b600084600115156000808373ffffffffffffffffffffffffffffffffffffffff1673ffffffffffffffffffffffffffffffffffffffff16815260200190815260200160002060020160149054906101000a900460ff16151514611a17576040517f08c379a0000000000000000000000000000000000000000000000000000000008152600401611a0e906137c2565b60405180910390fd5b6000600c60009054906101000a900473ffffffffffffffffffffffffffffffffffffffff1673ffffffffffffffffffffffffffffffffffffffff16633dd5d5c7888888886040518563ffffffff1660e01b8152600401611a7a9493929190613a80565b6020604051808303816000875af1158015611a99573d6000803e3d6000fd5b505050506040513d601f19601f82011682018060405250810190611abd9190613aef565b9050600b60009054906101000a900473ffffffffffffffffffffffffffffffffffffffff1673ffffffffffffffffffffffffffffffffffffffff16635599e05a886000846040518463ffffffff1660e01b8152600401611b1f93929190613b1c565b6020604051808303816000875af1158015611b3e573d6000803e3d6000fd5b505050506040513d601f19601f82011682018060405250810190611b629190613a1c565b5080600560008973ffffffffffffffffffffffffffffffffffffffff1673ffffffffffffffffffffffffffffffffffffffff168152602001908152602001600020819055508092505050949350505050565b60046020528060005260406000206000915090508060000154908060010154908060020160009054906101000a900473ffffffffffffffffffffffffffffffffffffffff1690806003015490806004015490806005018054611c159061340f565b80601f0160208091040260200160405190810160405280929190818152602001828054611c419061340f565b8015611c8e5780601f10611c6357610100808354040283529160200191611c8e565b820191906000526020600020905b815481529060010190602001808311611c7157829003601f168201915b5050505050905086565b6000600780549050905090565b600c60009054906101000a900473ffffffffffffffffffffffffffffffffffffffff1681565b60036020528060005260406000206000915090505481565b6000600980549050905090565b600a60009054906101000a900473ffffffffffffffffffffffffffffffffffffffff1673ffffffffffffffffffffffffffffffffffffffff163373ffffffffffffffffffffffffffffffffffffffff1614611d80576040517f08c379a0000000000000000000000000000000000000000000000000000000008152600401611d77906132b9565b60405180910390fd5b81600115156000808373ffffffffffffffffffffffffffffffffffffffff1673ffffffffffffffffffffffffffffffffffffffff16815260200190815260200160002060020160149054906101000a900460ff16151514611e16576040517f08c379a0000000000000000000000000000000000000000000000000000000008152600401611e0d906137c2565b60405180910390fd5b6000611e248489898861197f565b90506000611e35858a8c8b8a612091565b905060006040518060a001604052808381526020018c81526020018773ffffffffffffffffffffffffffffffffffffffff1681526020018981526020018681525090506008819080600181540180825580915050600190039060005260206000209060050201600090919091909150600082015181600001556020820151816001019081611ec3919061364e565b5060408201518160020160006101000a81548173ffffffffffffffffffffffffffffffffffffffff021916908373ffffffffffffffffffffffffffffffffffffffff160217905550606082015181600301556080820151816004019080519060200190611f31929190612518565b5050506000611f3e61069b565b90506000811115611f5957600181611f569190613811565b90505b806001600085815260200190815260200160002081905550826002600085815260200190815260200160002060000181905550866002600085815260200190815260200160002060020160006101000a81548173ffffffffffffffffffffffffffffffffffffffff021916908373ffffffffffffffffffffffffffffffffffffffff1602179055508360046000868152602001908152602001600020600001819055508260066000868152602001908152602001600020819055508673ffffffffffffffffffffffffffffffffffffffff167f69f424df462d3aab52240ab26d892e9353148a6587bbabaca097a7b88f4698b1848e4260405161205e93929190613b53565b60405180910390a2505050505050505050505050565b600060036000838152602001908152602001600020549050919050565b600085600115156000808373ffffffffffffffffffffffffffffffffffffffff1673ffffffffffffffffffffffffffffffffffffffff16815260200190815260200160002060020160149054906101000a900460ff16151514612129576040517f08c379a0000000000000000000000000000000000000000000000000000000008152600401612120906137c2565b60405180910390fd5b600061213788888787610e30565b90506000600c60009054906101000a900473ffffffffffffffffffffffffffffffffffffffff1673ffffffffffffffffffffffffffffffffffffffff16637d78dfbd8a8a8a89876040518663ffffffff1660e01b815260040161219e959493929190613b91565b6020604051808303816000875af11580156121bd573d6000803e3d6000fd5b505050506040513d601f19601f820116820180604052508101906121e19190613aef565b9050600b60009054906101000a900473ffffffffffffffffffffffffffffffffffffffff1673ffffffffffffffffffffffffffffffffffffffff16635599e05a8a6001846040518463ffffffff1660e01b815260040161224393929190613c35565b6020604051808303816000875af1158015612262573d6000803e3d6000fd5b505050506040513d601f19601f820116820180604052508101906122869190613a1c565b5080935050505095945050505050565b6060806000806000808673ffffffffffffffffffffffffffffffffffffffff1673ffffffffffffffffffffffffffffffffffffffff1681526020019081526020016000206000016000808773ffffffffffffffffffffffffffffffffffffffff1673ffffffffffffffffffffffffffffffffffffffff1681526020019081526020016000206001016000808873ffffffffffffffffffffffffffffffffffffffff1673ffffffffffffffffffffffffffffffffffffffff16815260200190815260200160002060020160009054906101000a900473ffffffffffffffffffffffffffffffffffffffff166000808973ffffffffffffffffffffffffffffffffffffffff1673ffffffffffffffffffffffffffffffffffffffff16815260200190815260200160002060020160149054906101000a900460ff168380546123db9061340f565b80601f01602080910402602001604051908101604052809291908181526020018280546124079061340f565b80156124545780601f1061242957610100808354040283529160200191612454565b820191906000526020600020905b81548152906001019060200180831161243757829003601f168201915b505050505093508280546124679061340f565b80601f01602080910402602001604051908101604052809291908181526020018280546124939061340f565b80156124e05780601f106124b5576101008083540402835291602001916124e0565b820191906000526020600020905b8154815290600101906020018083116124c357829003601f168201915b5050505050925093509350935093509193509193565b6040518060c00160405280600690602082028036833780820191505090505090565b828054828255906000526020600020908101928215612591579160200282015b828111156125905782518260006101000a81548173ffffffffffffffffffffffffffffffffffffffff021916908373ffffffffffffffffffffffffffffffffffffffff16021790555091602001919060010190612538565b5b50905061259e91906125a2565b5090565b5b808211156125bb5760008160009055506001016125a3565b5090565b6000604051905090565b600080fd5b600080fd5b6000819050919050565b6125e6816125d3565b81146125f157600080fd5b50565b600081359050612603816125dd565b92915050565b60006020828403121561261f5761261e6125c9565b5b600061262d848285016125f4565b91505092915050565b6000819050919050565b61264981612636565b82525050565b60006020820190506126646000830184612640565b92915050565b612673816125d3565b82525050565b600060208201905061268e600083018461266a565b92915050565b600073ffffffffffffffffffffffffffffffffffffffff82169050919050565b60006126bf82612694565b9050919050565b6126cf816126b4565b81146126da57600080fd5b50565b6000813590506126ec816126c6565b92915050565b600060208284031215612708576127076125c9565b5b6000612716848285016126dd565b91505092915050565b61272881612636565b811461273357600080fd5b50565b6000813590506127458161271f565b92915050565b600060208284031215612761576127606125c9565b5b600061276f84828501612736565b91505092915050565b600081519050919050565b600082825260208201905092915050565b60005b838110156127b2578082015181840152602081019050612797565b60008484015250505050565b6000601f19601f8301169050919050565b60006127da82612778565b6127e48185612783565b93506127f4818560208601612794565b6127fd816127be565b840191505092915050565b612811816126b4565b82525050565b600081519050919050565b600082825260208201905092915050565b6000819050602082019050919050565b61284c816126b4565b82525050565b600061285e8383612843565b60208301905092915050565b6000602082019050919050565b600061288282612817565b61288c8185612822565b935061289783612833565b8060005b838110156128c85781516128af8882612852565b97506128ba8361286a565b92505060018101905061289b565b5085935050505092915050565b600060a0820190506128ea600083018861266a565b81810360208301526128fc81876127cf565b905061290b6040830186612808565b6129186060830185612640565b818103608083015261292a8184612877565b90509695505050505050565b60008115159050919050565b61294b81612936565b82525050565b6000608082019050818103600083015261296b81876127cf565b9050818103602083015261297f81866127cf565b905061298e6040830185612808565b61299b6060830184612942565b95945050505050565b600080fd5b600080fd5b7f4e487b7100000000000000000000000000000000000000000000000000000000600052604160045260246000fd5b6129e6826127be565b810181811067ffffffffffffffff82111715612a0557612a046129ae565b5b80604052505050565b6000612a186125bf565b9050612a2482826129dd565b919050565b600067ffffffffffffffff821115612a4457612a436129ae565b5b612a4d826127be565b9050602081019050919050565b82818337600083830152505050565b6000612a7c612a7784612a29565b612a0e565b905082815260208101848484011115612a9857612a976129a9565b5b612aa3848285612a5a565b509392505050565b600082601f830112612ac057612abf6129a4565b5b8135612ad0848260208601612a69565b91505092915050565b600080600060608486031215612af257612af16125c9565b5b600084013567ffffffffffffffff811115612b1057612b0f6125ce565b5b612b1c86828701612aab565b935050602084013567ffffffffffffffff811115612b3d57612b3c6125ce565b5b612b4986828701612aab565b9250506040612b5a868287016126dd565b9150509250925092565b60008060008060808587031215612b7e57612b7d6125c9565b5b6000612b8c878288016126dd565b945050602085013567ffffffffffffffff811115612bad57612bac6125ce565b5b612bb987828801612aab565b935050604085013567ffffffffffffffff811115612bda57612bd96125ce565b5b612be687828801612aab565b925050606085013567ffffffffffffffff811115612c0757612c066125ce565b5b612c1387828801612aab565b91505092959194509250565b600060069050919050565b600081905092915050565b6000819050919050565b612c48816125d3565b82525050565b6000612c5a8383612c3f565b60208301905092915050565b6000602082019050919050565b612c7c81612c1f565b612c868184612c2a565b9250612c9182612c35565b8060005b83811015612cc2578151612ca98782612c4e565b9650612cb483612c66565b925050600181019050612c95565b505050505050565b600060c082019050612cdf6000830184612c73565b92915050565b600060a082019050612cfa600083018861266a565b612d076020830187612640565b612d146040830186612808565b612d216060830185612640565b612d2e6080830184612640565b9695505050505050565b60008060008060008060c08789031215612d5557612d546125c9565b5b6000612d6389828a016125f4565b9650506020612d7489828a01612736565b9550506040612d8589828a016126dd565b9450506060612d9689828a01612736565b9350506080612da789828a01612736565b92505060a087013567ffffffffffffffff811115612dc857612dc76125ce565b5b612dd489828a01612aab565b9150509295509295509295565b600060c082019050612df6600083018961266a565b612e036020830188612640565b612e106040830187612808565b612e1d6060830186612640565b612e2a6080830185612640565b81810360a0830152612e3c81846127cf565b9050979650505050505050565b6000602082019050612e5e6000830184612808565b92915050565b6000608082019050612e79600083018761266a565b8181036020830152612e8b81866127cf565b9050612e9a6040830185612808565b612ea76060830184612640565b95945050505050565b6000819050919050565b6000612ed5612ed0612ecb84612694565b612eb0565b612694565b9050919050565b6000612ee782612eba565b9050919050565b6000612ef982612edc565b9050919050565b612f0981612eee565b82525050565b6000602082019050612f246000830184612f00565b92915050565b6000612f3582612edc565b9050919050565b612f4581612f2a565b82525050565b6000602082019050612f606000830184612f3c565b92915050565b600067ffffffffffffffff821115612f8157612f806129ae565b5b602082029050602081019050919050565b600080fd5b6000612faa612fa584612f66565b612a0e565b90508083825260208201905060208402830185811115612fcd57612fcc612f92565b5b835b81811015612ff65780612fe288826126dd565b845260208401935050602081019050612fcf565b5050509392505050565b600082601f830112613015576130146129a4565b5b8135613025848260208601612f97565b91505092915050565b600080600080600080600060e0888a03121561304d5761304c6125c9565b5b600088013567ffffffffffffffff81111561306b5761306a6125ce565b5b6130778a828b01612aab565b975050602088013567ffffffffffffffff811115613098576130976125ce565b5b6130a48a828b01612aab565b965050604088013567ffffffffffffffff8111156130c5576130c46125ce565b5b6130d18a828b01612aab565b95505060606130e28a828b01612736565b945050608088013567ffffffffffffffff811115613103576131026125ce565b5b61310f8a828b01612aab565b93505060a06131208a828b016126dd565b92505060c088013567ffffffffffffffff811115613141576131406125ce565b5b61314d8a828b01613000565b91505092959891949750929550565b600080600080600060a08688031215613178576131776125c9565b5b6000613186888289016126dd565b955050602086013567ffffffffffffffff8111156131a7576131a66125ce565b5b6131b388828901612aab565b945050604086013567ffffffffffffffff8111156131d4576131d36125ce565b5b6131e088828901612aab565b935050606086013567ffffffffffffffff811115613201576132006125ce565b5b61320d88828901612aab565b925050608086013567ffffffffffffffff81111561322e5761322d6125ce565b5b61323a88828901612aab565b9150509295509295909350565b7f4f6e6c7920746865206f776e65722063616e20706572666f726d20746869732060008201527f616374696f6e0000000000000000000000000000000000000000000000000000602082015250565b60006132a3602683612783565b91506132ae82613247565b604082019050919050565b600060208201905081810360008301526132d281613296565b9050919050565b7f4661726d6572206e6f7420726567697374657265640000000000000000000000600082015250565b600061330f601583612783565b915061331a826132d9565b602082019050919050565b6000602082019050818103600083015261333e81613302565b9050919050565b7f496e76616c696420696e64657800000000000000000000000000000000000000600082015250565b600061337b600d83612783565b915061338682613345565b602082019050919050565b600060208201905081810360008301526133aa8161336e565b9050919050565b7f4e487b7100000000000000000000000000000000000000000000000000000000600052603260045260246000fd5b7f4e487b7100000000000000000000000000000000000000000000000000000000600052602260045260246000fd5b6000600282049050600182168061342757607f821691505b60208210810361343a576134396133e0565b5b50919050565b7f4661726d6572206164647265737320696e76616c696400000000000000000000600082015250565b6000613476601683612783565b915061348182613440565b602082019050919050565b600060208201905081810360008301526134a581613469565b9050919050565b60008190508160005260206000209050919050565b60006020601f8301049050919050565b600082821b905092915050565b60006008830261350e7fffffffffffffffffffffffffffffffffffffffffffffffffffffffffffffffff826134d1565b61351886836134d1565b95508019841693508086168417925050509392505050565b600061354b61354661354184612636565b612eb0565b612636565b9050919050565b6000819050919050565b61356583613530565b61357961357182613552565b8484546134de565b825550505050565b600090565b61358e613581565b61359981848461355c565b505050565b5b818110156135bd576135b2600082613586565b60018101905061359f565b5050565b601f821115613602576135d3816134ac565b6135dc846134c1565b810160208510156135eb578190505b6135ff6135f7856134c1565b83018261359e565b50505b505050565b600082821c905092915050565b600061362560001984600802613607565b1980831691505092915050565b600061363e8383613614565b9150826002028217905092915050565b61365782612778565b67ffffffffffffffff8111156136705761366f6129ae565b5b61367a825461340f565b6136858282856135c1565b600060209050601f8311600181146136b857600084156136a6578287015190505b6136b08582613632565b865550613718565b601f1984166136c6866134ac565b60005b828110156136ee578489015182556001820191506020850194506020810190506136c9565b8683101561370b5784890151613707601f891682613614565b8355505b6001600288020188555050505b505050505050565b6000604082019050818103600083015261373a81856127cf565b90506137496020830184612640565b9392505050565b7f4f6e6c7920746865206661726d65722063616e2073656c6c207468697320707260008201527f6f64756374000000000000000000000000000000000000000000000000000000602082015250565b60006137ac602583612783565b91506137b782613750565b604082019050919050565b600060208201905081810360008301526137db8161379f565b9050919050565b7f4e487b7100000000000000000000000000000000000000000000000000000000600052601160045260246000fd5b600061381c82612636565b915061382783612636565b925082820390508181111561383f5761383e6137e2565b5b92915050565b600081905092915050565b600061385b82612778565b6138658185613845565b9350613875818560208601612794565b80840191505092915050565b600061388d8284613850565b915081905092915050565b7f4275796572206f72204661726d6572206164647265737320696e76616c696400600082015250565b60006138ce601f83612783565b91506138d982613898565b602082019050919050565b600060208201905081810360008301526138fd816138c1565b9050919050565b7f496e73756666696369656e742070726f6475636520746f2073656c6c00000000600082015250565b600061393a601c83612783565b915061394582613904565b602082019050919050565b600060208201905081810360008301526139698161392d565b9050919050565b6000819050919050565b600061399561399061398b84613970565b612eb0565b612636565b9050919050565b6139a58161397a565b82525050565b60006080820190506139c06000830187612808565b6139cd602083018661399c565b6139da604083018561266a565b6139e76060830184612808565b95945050505050565b6139f981612936565b8114613a0457600080fd5b50565b600081519050613a16816139f0565b92915050565b600060208284031215613a3257613a316125c9565b5b6000613a4084828501613a07565b91505092915050565b6000606082019050613a5e600083018661266a565b613a6b6020830185612640565b613a786040830184612640565b949350505050565b6000608082019050613a956000830187612808565b8181036020830152613aa781866127cf565b90508181036040830152613abb81856127cf565b90508181036060830152613acf81846127cf565b905095945050505050565b600081519050613ae9816125dd565b92915050565b600060208284031215613b0557613b046125c9565b5b6000613b1384828501613ada565b91505092915050565b6000606082019050613b316000830186612808565b613b3e602083018561399c565b613b4b604083018461266a565b949350505050565b6000606082019050613b68600083018661266a565b8181036020830152613b7a81856127cf565b9050613b896040830184612640565b949350505050565b600061014082019050613ba76000830188612808565b8181036020830152613bb981876127cf565b90508181036040830152613bcd81866127cf565b90508181036060830152613be181856127cf565b9050613bf06080830184612c73565b9695505050505050565b6000819050919050565b6000613c1f613c1a613c1584613bfa565b612eb0565b612636565b9050919050565b613c2f81613c04565b82525050565b6000606082019050613c4a6000830186612808565b613c576020830185613c26565b613c64604083018461266a565b94935050505056fea264697066735822122069b4900fb8b5992ed1cf44a973c6a247ed7e4bd0714929bf46b8939a430b881364736f6c63430008180033",
  "linkReferences": {},
  "deployedLinkReferences": {}
}