{
  "_format": "hh-sol-artifact-1",
  "contractName": "AxkToken",
  "sourceName": "contracts/AxkToken.sol",
  "abi": [
    {
      "inputs": [],
      "stateMutability": "nonpayable",
      "type": "constructor"
    },
    {
      "inputs": [
        {
          "internalType": "address",
          "name": "target",
          "type": "address"
        }
      ],
      "name": "AddressEmptyCode",
      "type": "error"
    },
    {
      "inputs": [],
      "name": "ECDSAInvalidSignature",
      "type": "error"
    },
    {
      "inputs": [
        {
          "internalType": "uint256",
          "name": "length",
          "type": "uint256"
        }
      ],
      "name": "ECDSAInvalidSignatureLength",
      "type": "error"
    },
    {
      "inputs": [
        {
          "internalType": "bytes32",
          "name": "s",
          "type": "bytes32"
        }
      ],
      "name": "ECDSAInvalidSignatureS",
      "type": "error"
    },
    {
      "inputs": [
        {
          "internalType": "address",
          "name": "implementation",
          "type": "address"
        }
      ],
      "name": "ERC1967InvalidImplementation",
      "type": "error"
    },
    {
      "inputs": [],
      "name": "ERC1967NonPayable",
      "type": "error"
    },
    {
      "inputs": [
        {
          "internalType": "uint256",
          "name": "increasedSupply",
          "type": "uint256"
        },
        {
          "internalType": "uint256",
          "name": "cap",
          "type": "uint256"
        }
      ],
      "name": "ERC20ExceededCap",
      "type": "error"
    },
    {
      "inputs": [
        {
          "internalType": "address",
          "name": "spender",
          "type": "address"
        },
        {
          "internalType": "uint256",
          "name": "allowance",
          "type": "uint256"
        },
        {
          "internalType": "uint256",
          "name": "needed",
          "type": "uint256"
        }
      ],
      "name": "ERC20InsufficientAllowance",
      "type": "error"
    },
    {
      "inputs": [
        {
          "internalType": "address",
          "name": "sender",
          "type": "address"
        },
        {
          "internalType": "uint256",
          "name": "balance",
          "type": "uint256"
        },
        {
          "internalType": "uint256",
          "name": "needed",
          "type": "uint256"
        }
      ],
      "name": "ERC20InsufficientBalance",
      "type": "error"
    },
    {
      "inputs": [
        {
          "internalType": "address",
          "name": "approver",
          "type": "address"
        }
      ],
      "name": "ERC20InvalidApprover",
      "type": "error"
    },
    {
      "inputs": [
        {
          "internalType": "uint256",
          "name": "cap",
          "type": "uint256"
        }
      ],
      "name": "ERC20InvalidCap",
      "type": "error"
    },
    {
      "inputs": [
        {
          "internalType": "address",
          "name": "receiver",
          "type": "address"
        }
      ],
      "name": "ERC20InvalidReceiver",
      "type": "error"
    },
    {
      "inputs": [
        {
          "internalType": "address",
          "name": "sender",
          "type": "address"
        }
      ],
      "name": "ERC20InvalidSender",
      "type": "error"
    },
    {
      "inputs": [
        {
          "internalType": "address",
          "name": "spender",
          "type": "address"
        }
      ],
      "name": "ERC20InvalidSpender",
      "type": "error"
    },
    {
      "inputs": [
        {
          "internalType": "uint256",
          "name": "deadline",
          "type": "uint256"
        }
      ],
      "name": "ERC2612ExpiredSignature",
      "type": "error"
    },
    {
      "inputs": [
        {
          "internalType": "address",
          "name": "signer",
          "type": "address"
        },
        {
          "internalType": "address",
          "name": "owner",
          "type": "address"
        }
      ],
      "name": "ERC2612InvalidSigner",
      "type": "error"
    },
    {
      "inputs": [],
      "name": "EnforcedPause",
      "type": "error"
    },
    {
      "inputs": [],
      "name": "ExpectedPause",
      "type": "error"
    },
    {
      "inputs": [],
      "name": "FailedInnerCall",
      "type": "error"
    },
    {
      "inputs": [
        {
          "internalType": "address",
          "name": "account",
          "type": "address"
        },
        {
          "internalType": "uint256",
          "name": "currentNonce",
          "type": "uint256"
        }
      ],
      "name": "InvalidAccountNonce",
      "type": "error"
    },
    {
      "inputs": [],
      "name": "InvalidInitialization",
      "type": "error"
    },
    {
      "inputs": [],
      "name": "NotInitializing",
      "type": "error"
    },
    {
      "inputs": [
        {
          "internalType": "address",
          "name": "owner",
          "type": "address"
        }
      ],
      "name": "OwnableInvalidOwner",
      "type": "error"
    },
    {
      "inputs": [
        {
          "internalType": "address",
          "name": "account",
          "type": "address"
        }
      ],
      "name": "OwnableUnauthorizedAccount",
      "type": "error"
    },
    {
      "inputs": [],
      "name": "UUPSUnauthorizedCallContext",
      "type": "error"
    },
    {
      "inputs": [
        {
          "internalType": "bytes32",
          "name": "slot",
          "type": "bytes32"
        }
      ],
      "name": "UUPSUnsupportedProxiableUUID",
      "type": "error"
    },
    {
      "anonymous": false,
      "inputs": [
        {
          "indexed": true,
          "internalType": "address",
          "name": "owner",
          "type": "address"
        },
        {
          "indexed": true,
          "internalType": "address",
          "name": "spender",
          "type": "address"
        },
        {
          "indexed": false,
          "internalType": "uint256",
          "name": "value",
          "type": "uint256"
        }
      ],
      "name": "Approval",
      "type": "event"
    },
    {
      "anonymous": false,
      "inputs": [],
      "name": "EIP712DomainChanged",
      "type": "event"
    },
    {
      "anonymous": false,
      "inputs": [
        {
          "indexed": false,
          "internalType": "uint64",
          "name": "version",
          "type": "uint64"
        }
      ],
      "name": "Initialized",
      "type": "event"
    },
    {
      "anonymous": false,
      "inputs": [
        {
          "indexed": true,
          "internalType": "address",
          "name": "previousOwner",
          "type": "address"
        },
        {
          "indexed": true,
          "internalType": "address",
          "name": "newOwner",
          "type": "address"
        }
      ],
      "name": "OwnershipTransferred",
      "type": "event"
    },
    {
      "anonymous": false,
      "inputs": [
        {
          "indexed": false,
          "internalType": "address",
          "name": "account",
          "type": "address"
        }
      ],
      "name": "Paused",
      "type": "event"
    },
    {
      "anonymous": false,
      "inputs": [
        {
          "indexed": true,
          "internalType": "address",
          "name": "from",
          "type": "address"
        },
        {
          "indexed": true,
          "internalType": "address",
          "name": "to",
          "type": "address"
        },
        {
          "indexed": false,
          "internalType": "uint256",
          "name": "value",
          "type": "uint256"
        }
      ],
      "name": "Transfer",
      "type": "event"
    },
    {
      "anonymous": false,
      "inputs": [
        {
          "indexed": false,
          "internalType": "address",
          "name": "account",
          "type": "address"
        }
      ],
      "name": "Unpaused",
      "type": "event"
    },
    {
      "anonymous": false,
      "inputs": [
        {
          "indexed": true,
          "internalType": "address",
          "name": "implementation",
          "type": "address"
        }
      ],
      "name": "Upgraded",
      "type": "event"
    },
    {
      "inputs": [],
      "name": "DOMAIN_SEPARATOR",
      "outputs": [
        {
          "internalType": "bytes32",
          "name": "",
          "type": "bytes32"
        }
      ],
      "stateMutability": "view",
      "type": "function"
    },
    {
      "inputs": [],
      "name": "UPGRADE_INTERFACE_VERSION",
      "outputs": [
        {
          "internalType": "string",
          "name": "",
          "type": "string"
        }
      ],
      "stateMutability": "view",
      "type": "function"
    },
    {
      "inputs": [
        {
          "internalType": "address",
          "name": "owner",
          "type": "address"
        },
        {
          "internalType": "address",
          "name": "spender",
          "type": "address"
        }
      ],
      "name": "allowance",
      "outputs": [
        {
          "internalType": "uint256",
          "name": "",
          "type": "uint256"
        }
      ],
      "stateMutability": "view",
      "type": "function"
    },
    {
      "inputs": [
        {
          "internalType": "address",
          "name": "spender",
          "type": "address"
        },
        {
          "internalType": "uint256",
          "name": "value",
          "type": "uint256"
        }
      ],
      "name": "approve",
      "outputs": [
        {
          "internalType": "bool",
          "name": "",
          "type": "bool"
        }
      ],
      "stateMutability": "nonpayable",
      "type": "function"
    },
    {
      "inputs": [
        {
          "internalType": "address",
          "name": "account",
          "type": "address"
        }
      ],
      "name": "balanceOf",
      "outputs": [
        {
          "internalType": "uint256",
          "name": "",
          "type": "uint256"
        }
      ],
      "stateMutability": "view",
      "type": "function"
    },
    {
      "inputs": [],
      "name": "cap",
      "outputs": [
        {
          "internalType": "uint256",
          "name": "",
          "type": "uint256"
        }
      ],
      "stateMutability": "view",
      "type": "function"
    },
    {
      "inputs": [],
      "name": "decimals",
      "outputs": [
        {
          "internalType": "uint8",
          "name": "",
          "type": "uint8"
        }
      ],
      "stateMutability": "view",
      "type": "function"
    },
    {
      "inputs": [],
      "name": "eip712Domain",
      "outputs": [
        {
          "internalType": "bytes1",
          "name": "fields",
          "type": "bytes1"
        },
        {
          "internalType": "string",
          "name": "name",
          "type": "string"
        },
        {
          "internalType": "string",
          "name": "version",
          "type": "string"
        },
        {
          "internalType": "uint256",
          "name": "chainId",
          "type": "uint256"
        },
        {
          "internalType": "address",
          "name": "verifyingContract",
          "type": "address"
        },
        {
          "internalType": "bytes32",
          "name": "salt",
          "type": "bytes32"
        },
        {
          "internalType": "uint256[]",
          "name": "extensions",
          "type": "uint256[]"
        }
      ],
      "stateMutability": "view",
      "type": "function"
    },
    {
      "inputs": [],
      "name": "initialize",
      "outputs": [],
      "stateMutability": "nonpayable",
      "type": "function"
    },
    {
      "inputs": [
        {
          "internalType": "address",
          "name": "to",
          "type": "address"
        },
        {
          "internalType": "uint256",
          "name": "amount",
          "type": "uint256"
        }
      ],
      "name": "mint",
      "outputs": [],
      "stateMutability": "nonpayable",
      "type": "function"
    },
    {
      "inputs": [],
      "name": "name",
      "outputs": [
        {
          "internalType": "string",
          "name": "",
          "type": "string"
        }
      ],
      "stateMutability": "view",
      "type": "function"
    },
    {
      "inputs": [
        {
          "internalType": "address",
          "name": "owner",
          "type": "address"
        }
      ],
      "name": "nonces",
      "outputs": [
        {
          "internalType": "uint256",
          "name": "",
          "type": "uint256"
        }
      ],
      "stateMutability": "view",
      "type": "function"
    },
    {
      "inputs": [],
      "name": "owner",
      "outputs": [
        {
          "internalType": "address",
          "name": "",
          "type": "address"
        }
      ],
      "stateMutability": "view",
      "type": "function"
    },
    {
      "inputs": [],
      "name": "pause",
      "outputs": [],
      "stateMutability": "nonpayable",
      "type": "function"
    },
    {
      "inputs": [],
      "name": "paused",
      "outputs": [
        {
          "internalType": "bool",
          "name": "",
          "type": "bool"
        }
      ],
      "stateMutability": "view",
      "type": "function"
    },
    {
      "inputs": [
        {
          "internalType": "address",
          "name": "owner",
          "type": "address"
        },
        {
          "internalType": "address",
          "name": "spender",
          "type": "address"
        },
        {
          "internalType": "uint256",
          "name": "value",
          "type": "uint256"
        },
        {
          "internalType": "uint256",
          "name": "deadline",
          "type": "uint256"
        },
        {
          "internalType": "uint8",
          "name": "v",
          "type": "uint8"
        },
        {
          "internalType": "bytes32",
          "name": "r",
          "type": "bytes32"
        },
        {
          "internalType": "bytes32",
          "name": "s",
          "type": "bytes32"
        }
      ],
      "name": "permit",
      "outputs": [],
      "stateMutability": "nonpayable",
      "type": "function"
    },
    {
      "inputs": [],
      "name": "proxiableUUID",
      "outputs": [
        {
          "internalType": "bytes32",
          "name": "",
          "type": "bytes32"
        }
      ],
      "stateMutability": "view",
      "type": "function"
    },
    {
      "inputs": [],
      "name": "renounceOwnership",
      "outputs": [],
      "stateMutability": "nonpayable",
      "type": "function"
    },
    {
      "inputs": [],
      "name": "symbol",
      "outputs": [
        {
          "internalType": "string",
          "name": "",
          "type": "string"
        }
      ],
      "stateMutability": "view",
      "type": "function"
    },
    {
      "inputs": [],
      "name": "totalSupply",
      "outputs": [
        {
          "internalType": "uint256",
          "name": "",
          "type": "uint256"
        }
      ],
      "stateMutability": "view",
      "type": "function"
    },
    {
      "inputs": [
        {
          "internalType": "address",
          "name": "to",
          "type": "address"
        },
        {
          "internalType": "uint256",
          "name": "value",
          "type": "uint256"
        }
      ],
      "name": "transfer",
      "outputs": [
        {
          "internalType": "bool",
          "name": "",
          "type": "bool"
        }
      ],
      "stateMutability": "nonpayable",
      "type": "function"
    },
    {
      "inputs": [
        {
          "internalType": "address",
          "name": "from",
          "type": "address"
        },
        {
          "internalType": "address",
          "name": "to",
          "type": "address"
        },
        {
          "internalType": "uint256",
          "name": "value",
          "type": "uint256"
        }
      ],
      "name": "transferFrom",
      "outputs": [
        {
          "internalType": "bool",
          "name": "",
          "type": "bool"
        }
      ],
      "stateMutability": "nonpayable",
      "type": "function"
    },
    {
      "inputs": [
        {
          "internalType": "address",
          "name": "newOwner",
          "type": "address"
        }
      ],
      "name": "transferOwnership",
      "outputs": [],
      "stateMutability": "nonpayable",
      "type": "function"
    },
    {
      "inputs": [],
      "name": "unpause",
      "outputs": [],
      "stateMutability": "nonpayable",
      "type": "function"
    },
    {
      "inputs": [
        {
          "internalType": "address",
          "name": "newImplementation",
          "type": "address"
        },
        {
          "internalType": "bytes",
          "name": "data",
          "type": "bytes"
        }
      ],
      "name": "upgradeToAndCall",
      "outputs": [],
      "stateMutability": "payable",
      "type": "function"
    }
  ],
  "bytecode": "0x60a06040523073ffffffffffffffffffffffffffffffffffffffff1660809073ffffffffffffffffffffffffffffffffffffffff168152503480156200004457600080fd5b50620000556200005b60201b60201c565b620001cf565b60006200006d6200016560201b60201c565b90508060000160089054906101000a900460ff1615620000b9576040517ff92ee8a900000000000000000000000000000000000000000000000000000000815260040160405180910390fd5b67ffffffffffffffff80168160000160009054906101000a900467ffffffffffffffff1667ffffffffffffffff1614620001625767ffffffffffffffff8160000160006101000a81548167ffffffffffffffff021916908367ffffffffffffffff1602179055507fc7f505b2f371ae2175ee4913f4499e1f2633a7b5936321eed1cdaeb6115181d267ffffffffffffffff604051620001599190620001b2565b60405180910390a15b50565b60007ff0c57e16840df040f15088dc2f81fe391c3923bec73e23a9662efc9c229c6a00905090565b600067ffffffffffffffff82169050919050565b620001ac816200018d565b82525050565b6000602082019050620001c96000830184620001a1565b92915050565b608051613933620001f9600039600081816112e40152818161133901526114f401526139336000f3fe6080604052600436106101665760003560e01c806370a08231116100d15780638da5cb5b1161008a578063ad3cb1cc11610064578063ad3cb1cc146104f1578063d505accf1461051c578063dd62ed3e14610545578063f2fde38b1461058257610166565b80638da5cb5b1461045e57806395d89b4114610489578063a9059cbb146104b457610166565b806370a082311461036e578063715018a6146103ab5780637ecebe00146103c25780638129fc1c146103ff5780638456cb591461041657806384b0196e1461042d57610166565b80633644e515116101235780633644e515146102915780633f4ba83a146102bc57806340c10f19146102d35780634f1ef286146102fc57806352d1902d146103185780635c975abb1461034357610166565b806306fdde031461016b578063095ea7b31461019657806318160ddd146101d357806323b872dd146101fe578063313ce5671461023b578063355274ea14610266575b600080fd5b34801561017757600080fd5b506101806105ab565b60405161018d91906129b8565b60405180910390f35b3480156101a257600080fd5b506101bd60048036038101906101b89190612a82565b61064c565b6040516101ca9190612add565b60405180910390f35b3480156101df57600080fd5b506101e861066f565b6040516101f59190612b07565b60405180910390f35b34801561020a57600080fd5b5061022560048036038101906102209190612b22565b610687565b6040516102329190612add565b60405180910390f35b34801561024757600080fd5b506102506106b6565b60405161025d9190612b91565b60405180910390f35b34801561027257600080fd5b5061027b6106bf565b6040516102889190612b07565b60405180910390f35b34801561029d57600080fd5b506102a66106d7565b6040516102b39190612bc5565b60405180910390f35b3480156102c857600080fd5b506102d16106e6565b005b3480156102df57600080fd5b506102fa60048036038101906102f59190612a82565b6106f8565b005b61031660048036038101906103119190612d15565b61070e565b005b34801561032457600080fd5b5061032d61072d565b60405161033a9190612bc5565b60405180910390f35b34801561034f57600080fd5b50610358610760565b6040516103659190612add565b60405180910390f35b34801561037a57600080fd5b5061039560048036038101906103909190612d71565b610785565b6040516103a29190612b07565b60405180910390f35b3480156103b757600080fd5b506103c06107dc565b005b3480156103ce57600080fd5b506103e960048036038101906103e49190612d71565b6107f0565b6040516103f69190612b07565b60405180910390f35b34801561040b57600080fd5b50610414610802565b005b34801561042257600080fd5b5061042b610aaa565b005b34801561043957600080fd5b50610442610abc565b6040516104559796959493929190612ea6565b60405180910390f35b34801561046a57600080fd5b50610473610bce565b6040516104809190612f2a565b60405180910390f35b34801561049557600080fd5b5061049e610c06565b6040516104ab91906129b8565b60405180910390f35b3480156104c057600080fd5b506104db60048036038101906104d69190612a82565b610ca7565b6040516104e89190612add565b60405180910390f35b3480156104fd57600080fd5b50610506610cca565b60405161051391906129b8565b60405180910390f35b34801561052857600080fd5b50610543600480360381019061053e9190612f9d565b610d03565b005b34801561055157600080fd5b5061056c6004803603810190610567919061303f565b610e4b565b6040516105799190612b07565b60405180910390f35b34801561058e57600080fd5b506105a960048036038101906105a49190612d71565b610ee0565b005b606060006105b7610f66565b90508060030180546105c8906130ae565b80601f01602080910402602001604051908101604052809291908181526020018280546105f4906130ae565b80156106415780601f1061061657610100808354040283529160200191610641565b820191906000526020600020905b81548152906001019060200180831161062457829003601f168201915b505050505091505090565b600080610657610f8e565b9050610664818585610f96565b600191505092915050565b60008061067a610f66565b9050806002015491505090565b600080610692610f8e565b905061069f858285610fa8565b6106aa85858561103c565b60019150509392505050565b60006012905090565b6000806106ca611130565b9050806000015491505090565b60006106e1611158565b905090565b6106ee611167565b6106f66111ee565b565b610700611167565b61070a8282611260565b5050565b6107166112e2565b61071f826113c8565b61072982826113d3565b5050565b60006107376114f2565b7f360894a13ba1a3210667c828492db98dca3e2076cc3735a920a3ca505d382bbc60001b905090565b60008061076b611579565b90508060000160009054906101000a900460ff1691505090565b600080610790610f66565b90508060000160008473ffffffffffffffffffffffffffffffffffffffff1673ffffffffffffffffffffffffffffffffffffffff16815260200190815260200160002054915050919050565b6107e4611167565b6107ee60006115a1565b565b60006107fb82611678565b9050919050565b600061080c6116cf565b905060008160000160089054906101000a900460ff1615905060008260000160009054906101000a900467ffffffffffffffff1690506000808267ffffffffffffffff1614801561085a5750825b9050600060018367ffffffffffffffff1614801561088f575060003073ffffffffffffffffffffffffffffffffffffffff163b145b90508115801561089d575080155b156108d4576040517ff92ee8a900000000000000000000000000000000000000000000000000000000815260040160405180910390fd5b60018560000160006101000a81548167ffffffffffffffff021916908367ffffffffffffffff16021790555083156109245760018560000160086101000a81548160ff0219169083151502179055505b6109986040518060400160405280600881526020017f41786b546f6b656e0000000000000000000000000000000000000000000000008152506040518060400160405280600381526020017f41584b00000000000000000000000000000000000000000000000000000000008152506116f7565b6109c46109a36106b6565b600a6109af9190613241565b64ba43b740006109bf919061328c565b61170d565b6109cc611721565b6109d533611733565b610a136040518060400160405280600881526020017f41786b546f6b656e000000000000000000000000000000000000000000000000815250611747565b610a1b611791565b610a4733610a276106b6565b600a610a339190613241565b6305f5e100610a42919061328c565b611260565b8315610aa35760008560000160086101000a81548160ff0219169083151502179055507fc7f505b2f371ae2175ee4913f4499e1f2633a7b5936321eed1cdaeb6115181d26001604051610a9a9190613327565b60405180910390a15b5050505050565b610ab2611167565b610aba61179b565b565b6000606080600080600060606000610ad261180d565b90506000801b8160000154148015610af057506000801b8160010154145b610b2f576040517f08c379a0000000000000000000000000000000000000000000000000000000008152600401610b269061338e565b60405180910390fd5b610b37611835565b610b3f6118d6565b46306000801b600067ffffffffffffffff811115610b6057610b5f612bea565b5b604051908082528060200260200182016040528015610b8e5781602001602082028036833780820191505090505b507f0f0000000000000000000000000000000000000000000000000000000000000095949392919097509750975097509750975097505090919293949596565b600080610bd9611977565b90508060000160009054906101000a900473ffffffffffffffffffffffffffffffffffffffff1691505090565b60606000610c12610f66565b9050806004018054610c23906130ae565b80601f0160208091040260200160405190810160405280929190818152602001828054610c4f906130ae565b8015610c9c5780601f10610c7157610100808354040283529160200191610c9c565b820191906000526020600020905b815481529060010190602001808311610c7f57829003601f168201915b505050505091505090565b600080610cb2610f8e565b9050610cbf81858561103c565b600191505092915050565b6040518060400160405280600581526020017f352e302e3000000000000000000000000000000000000000000000000000000081525081565b83421115610d4857836040517f62791302000000000000000000000000000000000000000000000000000000008152600401610d3f9190612b07565b60405180910390fd5b60007f6e71edae12b1b97f4d1f60370fef10105fa2faae0126114a169c64845d6126c9888888610d778c61199f565b89604051602001610d8d969594939291906133ae565b6040516020818303038152906040528051906020012090506000610db082611a04565b90506000610dc082878787611a1e565b90508973ffffffffffffffffffffffffffffffffffffffff168173ffffffffffffffffffffffffffffffffffffffff1614610e3457808a6040517f4b800e46000000000000000000000000000000000000000000000000000000008152600401610e2b92919061340f565b60405180910390fd5b610e3f8a8a8a610f96565b50505050505050505050565b600080610e56610f66565b90508060010160008573ffffffffffffffffffffffffffffffffffffffff1673ffffffffffffffffffffffffffffffffffffffff16815260200190815260200160002060008473ffffffffffffffffffffffffffffffffffffffff1673ffffffffffffffffffffffffffffffffffffffff1681526020019081526020016000205491505092915050565b610ee8611167565b600073ffffffffffffffffffffffffffffffffffffffff168173ffffffffffffffffffffffffffffffffffffffff1603610f5a5760006040517f1e4fbdf7000000000000000000000000000000000000000000000000000000008152600401610f519190612f2a565b60405180910390fd5b610f63816115a1565b50565b60007f52c63247e1f47db19d5ce0460030c497f067ca4cebf71ba98eeadabe20bace00905090565b600033905090565b610fa38383836001611a4e565b505050565b6000610fb48484610e4b565b90507fffffffffffffffffffffffffffffffffffffffffffffffffffffffffffffffff81146110365781811015611026578281836040517ffb8f41b200000000000000000000000000000000000000000000000000000000815260040161101d93929190613438565b60405180910390fd5b61103584848484036000611a4e565b5b50505050565b600073ffffffffffffffffffffffffffffffffffffffff168373ffffffffffffffffffffffffffffffffffffffff16036110ae5760006040517f96c6fd1e0000000000000000000000000000000000000000000000000000000081526004016110a59190612f2a565b60405180910390fd5b600073ffffffffffffffffffffffffffffffffffffffff168273ffffffffffffffffffffffffffffffffffffffff16036111205760006040517fec442f050000000000000000000000000000000000000000000000000000000081526004016111179190612f2a565b60405180910390fd5b61112b838383611c34565b505050565b60007f0f070392f17d5f958cc1ac31867dabecfc5c9758b4a419a200803226d7155d00905090565b6000611162611c44565b905090565b61116f610f8e565b73ffffffffffffffffffffffffffffffffffffffff1661118d610bce565b73ffffffffffffffffffffffffffffffffffffffff16146111ec576111b0610f8e565b6040517f118cdaa70000000000000000000000000000000000000000000000000000000081526004016111e39190612f2a565b60405180910390fd5b565b6111f6611ca8565b6000611200611579565b905060008160000160006101000a81548160ff0219169083151502179055507f5db9ee0a495bf2e6ff9c91a7834c1ba4fdd244a5e8aa4e537bd38aeae4b073aa611248610f8e565b6040516112559190612f2a565b60405180910390a150565b600073ffffffffffffffffffffffffffffffffffffffff168273ffffffffffffffffffffffffffffffffffffffff16036112d25760006040517fec442f050000000000000000000000000000000000000000000000000000000081526004016112c99190612f2a565b60405180910390fd5b6112de60008383611c34565b5050565b7f000000000000000000000000000000000000000000000000000000000000000073ffffffffffffffffffffffffffffffffffffffff163073ffffffffffffffffffffffffffffffffffffffff16148061138f57507f000000000000000000000000000000000000000000000000000000000000000073ffffffffffffffffffffffffffffffffffffffff16611376611ce8565b73ffffffffffffffffffffffffffffffffffffffff1614155b156113c6576040517fe07c8dba00000000000000000000000000000000000000000000000000000000815260040160405180910390fd5b565b6113d0611167565b50565b8173ffffffffffffffffffffffffffffffffffffffff166352d1902d6040518163ffffffff1660e01b8152600401602060405180830381865afa92505050801561143b57506040513d601f19601f820116820180604052508101906114389190613484565b60015b61147c57816040517f4c9c8ce30000000000000000000000000000000000000000000000000000000081526004016114739190612f2a565b60405180910390fd5b7f360894a13ba1a3210667c828492db98dca3e2076cc3735a920a3ca505d382bbc60001b81146114e357806040517faa1d49a40000000000000000000000000000000000000000000000000000000081526004016114da9190612bc5565b60405180910390fd5b6114ed8383611d3f565b505050565b7f000000000000000000000000000000000000000000000000000000000000000073ffffffffffffffffffffffffffffffffffffffff163073ffffffffffffffffffffffffffffffffffffffff1614611577576040517fe07c8dba00000000000000000000000000000000000000000000000000000000815260040160405180910390fd5b565b60007fcd5ed15c6e187e77e9aee88184c21f4f2182ab5827cb3b7e07fbedcd63f03300905090565b60006115ab611977565b905060008160000160009054906101000a900473ffffffffffffffffffffffffffffffffffffffff169050828260000160006101000a81548173ffffffffffffffffffffffffffffffffffffffff021916908373ffffffffffffffffffffffffffffffffffffffff1602179055508273ffffffffffffffffffffffffffffffffffffffff168173ffffffffffffffffffffffffffffffffffffffff167f8be0079c531659141344cd1fd0a4f28419497f9722a3daafe3b4186f6b6457e060405160405180910390a3505050565b600080611683611db2565b90508060000160008473ffffffffffffffffffffffffffffffffffffffff1673ffffffffffffffffffffffffffffffffffffffff16815260200190815260200160002054915050919050565b60007ff0c57e16840df040f15088dc2f81fe391c3923bec73e23a9662efc9c229c6a00905090565b6116ff611dda565b6117098282611e1a565b5050565b611715611dda565b61171e81611e57565b50565b611729611dda565b611731611ebe565b565b61173b611dda565b61174481611ef2565b50565b61174f611dda565b61178e816040518060400160405280600181526020017f3100000000000000000000000000000000000000000000000000000000000000815250611f78565b50565b611799611dda565b565b6117a3611fcd565b60006117ad611579565b905060018160000160006101000a81548160ff0219169083151502179055507f62e78cea01bee320cd4e420270b5ea74000d11b0c9f74754ebdbfc544b05a2586117f5610f8e565b6040516118029190612f2a565b60405180910390a150565b60007fa16a46d94261c7517cc8ff89f61c0ce93598e3c849801011dee649a6a557d100905090565b6060600061184161180d565b9050806002018054611852906130ae565b80601f016020809104026020016040519081016040528092919081815260200182805461187e906130ae565b80156118cb5780601f106118a0576101008083540402835291602001916118cb565b820191906000526020600020905b8154815290600101906020018083116118ae57829003601f168201915b505050505091505090565b606060006118e261180d565b90508060030180546118f3906130ae565b80601f016020809104026020016040519081016040528092919081815260200182805461191f906130ae565b801561196c5780601f106119415761010080835404028352916020019161196c565b820191906000526020600020905b81548152906001019060200180831161194f57829003601f168201915b505050505091505090565b60007f9016d09d72d40fdae2fd8ceac6b6234c7706214fd39c1cd1e609a0528c199300905090565b6000806119aa611db2565b90508060000160008473ffffffffffffffffffffffffffffffffffffffff1673ffffffffffffffffffffffffffffffffffffffff168152602001908152602001600020600081548092919060010191905055915050919050565b6000611a17611a11611158565b8361200e565b9050919050565b600080600080611a308888888861204f565b925092509250611a408282612143565b829350505050949350505050565b6000611a58610f66565b9050600073ffffffffffffffffffffffffffffffffffffffff168573ffffffffffffffffffffffffffffffffffffffff1603611acc5760006040517fe602df05000000000000000000000000000000000000000000000000000000008152600401611ac39190612f2a565b60405180910390fd5b600073ffffffffffffffffffffffffffffffffffffffff168473ffffffffffffffffffffffffffffffffffffffff1603611b3e5760006040517f94280d62000000000000000000000000000000000000000000000000000000008152600401611b359190612f2a565b60405180910390fd5b828160010160008773ffffffffffffffffffffffffffffffffffffffff1673ffffffffffffffffffffffffffffffffffffffff16815260200190815260200160002060008673ffffffffffffffffffffffffffffffffffffffff1673ffffffffffffffffffffffffffffffffffffffff168152602001908152602001600020819055508115611c2d578373ffffffffffffffffffffffffffffffffffffffff168573ffffffffffffffffffffffffffffffffffffffff167f8c5be1e5ebec7d5bd14f71427d1e84f3dd0314c0f7b2291e5b200ac8c7c3b92585604051611c249190612b07565b60405180910390a35b5050505050565b611c3f8383836122a7565b505050565b60007f8b73c3c69bb8fe3d512ecc4cf759cc79239f7b179b0ffacaa9a75d522b39400f611c6f61234d565b611c776123c9565b4630604051602001611c8d9594939291906134b1565b60405160208183030381529060405280519060200120905090565b611cb0610760565b611ce6576040517f8dfc202b00000000000000000000000000000000000000000000000000000000815260040160405180910390fd5b565b6000611d167f360894a13ba1a3210667c828492db98dca3e2076cc3735a920a3ca505d382bbc60001b612445565b60000160009054906101000a900473ffffffffffffffffffffffffffffffffffffffff16905090565b611d488261244f565b8173ffffffffffffffffffffffffffffffffffffffff167fbc7cd75a20ee27fd9adebab32041f755214dbc6bffa90cc0225b39da2e5c2d3b60405160405180910390a2600081511115611da557611d9f828261251c565b50611dae565b611dad6125a0565b5b5050565b60007f5ab42ced628888259c08ac98db1eb0cf702fc1501344311d8b100cd1bfe4bb00905090565b611de26125dd565b611e18576040517fd7e6bcf800000000000000000000000000000000000000000000000000000000815260040160405180910390fd5b565b611e22611dda565b6000611e2c610f66565b905082816003019081611e3f91906136a6565b5081816004019081611e5191906136a6565b50505050565b611e5f611dda565b6000611e69611130565b905060008203611eb15760006040517f392e1e27000000000000000000000000000000000000000000000000000000008152600401611ea891906137b3565b60405180910390fd5b8181600001819055505050565b611ec6611dda565b6000611ed0611579565b905060008160000160006101000a81548160ff02191690831515021790555050565b611efa611dda565b600073ffffffffffffffffffffffffffffffffffffffff168173ffffffffffffffffffffffffffffffffffffffff1603611f6c5760006040517f1e4fbdf7000000000000000000000000000000000000000000000000000000008152600401611f639190612f2a565b60405180910390fd5b611f75816115a1565b50565b611f80611dda565b6000611f8a61180d565b905082816002019081611f9d91906136a6565b5081816003019081611faf91906136a6565b506000801b81600001819055506000801b8160010181905550505050565b611fd5610760565b1561200c576040517fd93c066500000000000000000000000000000000000000000000000000000000815260040160405180910390fd5b565b60006040517f190100000000000000000000000000000000000000000000000000000000000081528360028201528260228201526042812091505092915050565b60008060007f7fffffffffffffffffffffffffffffff5d576e7357a4501ddfe92f46681b20a08460001c111561208f576000600385925092509250612139565b6000600188888888604051600081526020016040526040516120b494939291906137ce565b6020604051602081039080840390855afa1580156120d6573d6000803e3d6000fd5b505050602060405103519050600073ffffffffffffffffffffffffffffffffffffffff168173ffffffffffffffffffffffffffffffffffffffff160361212a57600060016000801b93509350935050612139565b8060008060001b935093509350505b9450945094915050565b6000600381111561215757612156613813565b5b82600381111561216a57612169613813565b5b03156122a3576001600381111561218457612183613813565b5b82600381111561219757612196613813565b5b036121ce576040517ff645eedf00000000000000000000000000000000000000000000000000000000815260040160405180910390fd5b600260038111156121e2576121e1613813565b5b8260038111156121f5576121f4613813565b5b0361223a578060001c6040517ffce698f70000000000000000000000000000000000000000000000000000000081526004016122319190612b07565b60405180910390fd5b60038081111561224d5761224c613813565b5b8260038111156122605761225f613813565b5b036122a257806040517fd78bce0c0000000000000000000000000000000000000000000000000000000081526004016122999190612bc5565b60405180910390fd5b5b5050565b6122b28383836125fd565b600073ffffffffffffffffffffffffffffffffffffffff168373ffffffffffffffffffffffffffffffffffffffff16036123485760006122f06106bf565b905060006122fc61066f565b9050818111156123455780826040517f9e79f85400000000000000000000000000000000000000000000000000000000815260040161233c929190613842565b60405180910390fd5b50505b505050565b60008061235861180d565b90506000612364611835565b9050600081511115612381578080519060200120925050506123c6565b6000826000015490506000801b811461239f578093505050506123c6565b7fc5d2460186f7233c927e7db2dcc703c0e500b653ca82273b7bfad8045d85a47093505050505b90565b6000806123d461180d565b905060006123e06118d6565b90506000815111156123fd57808051906020012092505050612442565b6000826001015490506000801b811461241b57809350505050612442565b7fc5d2460186f7233c927e7db2dcc703c0e500b653ca82273b7bfad8045d85a47093505050505b90565b6000819050919050565b60008173ffffffffffffffffffffffffffffffffffffffff163b036124ab57806040517f4c9c8ce30000000000000000000000000000000000000000000000000000000081526004016124a29190612f2a565b60405180910390fd5b806124d87f360894a13ba1a3210667c828492db98dca3e2076cc3735a920a3ca505d382bbc60001b612445565b60000160006101000a81548173ffffffffffffffffffffffffffffffffffffffff021916908373ffffffffffffffffffffffffffffffffffffffff16021790555050565b60606000808473ffffffffffffffffffffffffffffffffffffffff168460405161254691906138b2565b600060405180830381855af49150503d8060008114612581576040519150601f19603f3d011682016040523d82523d6000602084013e612586565b606091505b5091509150612596858383612615565b9250505092915050565b60003411156125db576040517fb398979f00000000000000000000000000000000000000000000000000000000815260040160405180910390fd5b565b60006125e76116cf565b60000160089054906101000a900460ff16905090565b612605611fcd565b6126108383836126a4565b505050565b60608261262a57612625826128e3565b61269c565b60008251148015612652575060008473ffffffffffffffffffffffffffffffffffffffff163b145b1561269457836040517f9996b31500000000000000000000000000000000000000000000000000000000815260040161268b9190612f2a565b60405180910390fd5b81905061269d565b5b9392505050565b60006126ae610f66565b9050600073ffffffffffffffffffffffffffffffffffffffff168473ffffffffffffffffffffffffffffffffffffffff160361270457818160020160008282546126f891906138c9565b925050819055506127dd565b60008160000160008673ffffffffffffffffffffffffffffffffffffffff1673ffffffffffffffffffffffffffffffffffffffff16815260200190815260200160002054905082811015612793578481846040517fe450d38c00000000000000000000000000000000000000000000000000000000815260040161278a93929190613438565b60405180910390fd5b8281038260000160008773ffffffffffffffffffffffffffffffffffffffff1673ffffffffffffffffffffffffffffffffffffffff16815260200190815260200160002081905550505b600073ffffffffffffffffffffffffffffffffffffffff168373ffffffffffffffffffffffffffffffffffffffff160361282857818160020160008282540392505081905550612878565b818160000160008573ffffffffffffffffffffffffffffffffffffffff1673ffffffffffffffffffffffffffffffffffffffff168152602001908152602001600020600082825401925050819055505b8273ffffffffffffffffffffffffffffffffffffffff168473ffffffffffffffffffffffffffffffffffffffff167fddf252ad1be2c89b69c2b068fc378daa952ba7f163c4a11628f55a4df523b3ef846040516128d59190612b07565b60405180910390a350505050565b6000815111156128f65780518082602001fd5b6040517f1425ea4200000000000000000000000000000000000000000000000000000000815260040160405180910390fd5b600081519050919050565b600082825260208201905092915050565b60005b83811015612962578082015181840152602081019050612947565b60008484015250505050565b6000601f19601f8301169050919050565b600061298a82612928565b6129948185612933565b93506129a4818560208601612944565b6129ad8161296e565b840191505092915050565b600060208201905081810360008301526129d2818461297f565b905092915050565b6000604051905090565b600080fd5b600080fd5b600073ffffffffffffffffffffffffffffffffffffffff82169050919050565b6000612a19826129ee565b9050919050565b612a2981612a0e565b8114612a3457600080fd5b50565b600081359050612a4681612a20565b92915050565b6000819050919050565b612a5f81612a4c565b8114612a6a57600080fd5b50565b600081359050612a7c81612a56565b92915050565b60008060408385031215612a9957612a986129e4565b5b6000612aa785828601612a37565b9250506020612ab885828601612a6d565b9150509250929050565b60008115159050919050565b612ad781612ac2565b82525050565b6000602082019050612af26000830184612ace565b92915050565b612b0181612a4c565b82525050565b6000602082019050612b1c6000830184612af8565b92915050565b600080600060608486031215612b3b57612b3a6129e4565b5b6000612b4986828701612a37565b9350506020612b5a86828701612a37565b9250506040612b6b86828701612a6d565b9150509250925092565b600060ff82169050919050565b612b8b81612b75565b82525050565b6000602082019050612ba66000830184612b82565b92915050565b6000819050919050565b612bbf81612bac565b82525050565b6000602082019050612bda6000830184612bb6565b92915050565b600080fd5b600080fd5b7f4e487b7100000000000000000000000000000000000000000000000000000000600052604160045260246000fd5b612c228261296e565b810181811067ffffffffffffffff82111715612c4157612c40612bea565b5b80604052505050565b6000612c546129da565b9050612c608282612c19565b919050565b600067ffffffffffffffff821115612c8057612c7f612bea565b5b612c898261296e565b9050602081019050919050565b82818337600083830152505050565b6000612cb8612cb384612c65565b612c4a565b905082815260208101848484011115612cd457612cd3612be5565b5b612cdf848285612c96565b509392505050565b600082601f830112612cfc57612cfb612be0565b5b8135612d0c848260208601612ca5565b91505092915050565b60008060408385031215612d2c57612d2b6129e4565b5b6000612d3a85828601612a37565b925050602083013567ffffffffffffffff811115612d5b57612d5a6129e9565b5b612d6785828601612ce7565b9150509250929050565b600060208284031215612d8757612d866129e4565b5b6000612d9584828501612a37565b91505092915050565b60007fff0000000000000000000000000000000000000000000000000000000000000082169050919050565b612dd381612d9e565b82525050565b612de281612a0e565b82525050565b600081519050919050565b600082825260208201905092915050565b6000819050602082019050919050565b612e1d81612a4c565b82525050565b6000612e2f8383612e14565b60208301905092915050565b6000602082019050919050565b6000612e5382612de8565b612e5d8185612df3565b9350612e6883612e04565b8060005b83811015612e99578151612e808882612e23565b9750612e8b83612e3b565b925050600181019050612e6c565b5085935050505092915050565b600060e082019050612ebb600083018a612dca565b8181036020830152612ecd818961297f565b90508181036040830152612ee1818861297f565b9050612ef06060830187612af8565b612efd6080830186612dd9565b612f0a60a0830185612bb6565b81810360c0830152612f1c8184612e48565b905098975050505050505050565b6000602082019050612f3f6000830184612dd9565b92915050565b612f4e81612b75565b8114612f5957600080fd5b50565b600081359050612f6b81612f45565b92915050565b612f7a81612bac565b8114612f8557600080fd5b50565b600081359050612f9781612f71565b92915050565b600080600080600080600060e0888a031215612fbc57612fbb6129e4565b5b6000612fca8a828b01612a37565b9750506020612fdb8a828b01612a37565b9650506040612fec8a828b01612a6d565b9550506060612ffd8a828b01612a6d565b945050608061300e8a828b01612f5c565b93505060a061301f8a828b01612f88565b92505060c06130308a828b01612f88565b91505092959891949750929550565b60008060408385031215613056576130556129e4565b5b600061306485828601612a37565b925050602061307585828601612a37565b9150509250929050565b7f4e487b7100000000000000000000000000000000000000000000000000000000600052602260045260246000fd5b600060028204905060018216806130c657607f821691505b6020821081036130d9576130d861307f565b5b50919050565b7f4e487b7100000000000000000000000000000000000000000000000000000000600052601160045260246000fd5b60008160011c9050919050565b6000808291508390505b600185111561316557808604811115613141576131406130df565b5b60018516156131505780820291505b808102905061315e8561310e565b9450613125565b94509492505050565b60008261317e576001905061323a565b8161318c576000905061323a565b81600181146131a257600281146131ac576131db565b600191505061323a565b60ff8411156131be576131bd6130df565b5b8360020a9150848211156131d5576131d46130df565b5b5061323a565b5060208310610133831016604e8410600b84101617156132105782820a90508381111561320b5761320a6130df565b5b61323a565b61321d848484600161311b565b92509050818404811115613234576132336130df565b5b81810290505b9392505050565b600061324c82612a4c565b915061325783612b75565b92506132847fffffffffffffffffffffffffffffffffffffffffffffffffffffffffffffffff848461316e565b905092915050565b600061329782612a4c565b91506132a283612a4c565b92508282026132b081612a4c565b915082820484148315176132c7576132c66130df565b5b5092915050565b6000819050919050565b600067ffffffffffffffff82169050919050565b6000819050919050565b600061331161330c613307846132ce565b6132ec565b6132d8565b9050919050565b613321816132f6565b82525050565b600060208201905061333c6000830184613318565b92915050565b7f4549503731323a20556e696e697469616c697a65640000000000000000000000600082015250565b6000613378601583612933565b915061338382613342565b602082019050919050565b600060208201905081810360008301526133a78161336b565b9050919050565b600060c0820190506133c36000830189612bb6565b6133d06020830188612dd9565b6133dd6040830187612dd9565b6133ea6060830186612af8565b6133f76080830185612af8565b61340460a0830184612af8565b979650505050505050565b60006040820190506134246000830185612dd9565b6134316020830184612dd9565b9392505050565b600060608201905061344d6000830186612dd9565b61345a6020830185612af8565b6134676040830184612af8565b949350505050565b60008151905061347e81612f71565b92915050565b60006020828403121561349a576134996129e4565b5b60006134a88482850161346f565b91505092915050565b600060a0820190506134c66000830188612bb6565b6134d36020830187612bb6565b6134e06040830186612bb6565b6134ed6060830185612af8565b6134fa6080830184612dd9565b9695505050505050565b60008190508160005260206000209050919050565b60006020601f8301049050919050565b600082821b905092915050565b6000600883026135667fffffffffffffffffffffffffffffffffffffffffffffffffffffffffffffffff82613529565b6135708683613529565b95508019841693508086168417925050509392505050565b60006135a361359e61359984612a4c565b6132ec565b612a4c565b9050919050565b6000819050919050565b6135bd83613588565b6135d16135c9826135aa565b848454613536565b825550505050565b600090565b6135e66135d9565b6135f18184846135b4565b505050565b5b818110156136155761360a6000826135de565b6001810190506135f7565b5050565b601f82111561365a5761362b81613504565b61363484613519565b81016020851015613643578190505b61365761364f85613519565b8301826135f6565b50505b505050565b600082821c905092915050565b600061367d6000198460080261365f565b1980831691505092915050565b6000613696838361366c565b9150826002028217905092915050565b6136af82612928565b67ffffffffffffffff8111156136c8576136c7612bea565b5b6136d282546130ae565b6136dd828285613619565b600060209050601f83116001811461371057600084156136fe578287015190505b613708858261368a565b865550613770565b601f19841661371e86613504565b60005b8281101561374657848901518255600182019150602085019450602081019050613721565b86831015613763578489015161375f601f89168261366c565b8355505b6001600288020188555050505b505050505050565b6000819050919050565b600061379d61379861379384613778565b6132ec565b612a4c565b9050919050565b6137ad81613782565b82525050565b60006020820190506137c860008301846137a4565b92915050565b60006080820190506137e36000830187612bb6565b6137f06020830186612b82565b6137fd6040830185612bb6565b61380a6060830184612bb6565b95945050505050565b7f4e487b7100000000000000000000000000000000000000000000000000000000600052602160045260246000fd5b60006040820190506138576000830185612af8565b6138646020830184612af8565b9392505050565b600081519050919050565b600081905092915050565b600061388c8261386b565b6138968185613876565b93506138a6818560208601612944565b80840191505092915050565b60006138be8284613881565b915081905092915050565b60006138d482612a4c565b91506138df83612a4c565b92508282019050808211156138f7576138f66130df565b5b9291505056fea2646970667358221220784f4e433ce95f7f57968cc157f4d7df5dd632ba621d1bb40f867134e4916aa164736f6c63430008180033",
  "linkReferences": {},
  "deployedLinkReferences": {}
}