{
  "_format": "hh-sol-artifact-1",
  "contractName": "ProduceOwnership",
  "sourceName": "contracts/supply chain/ProduceOwnership.sol",
  "abi": [
    {
      "inputs": [
        {
          "internalType": "address",
          "name": "prod_contract_addr",
          "type": "address"
        }
      ],
      "stateMutability": "nonpayable",
      "type": "constructor"
    },
    {
      "anonymous": false,
      "inputs": [
        {
          "indexed": true,
          "internalType": "bytes32",
          "name": "p",
          "type": "bytes32"
        },
        {
          "indexed": true,
          "internalType": "address",
          "name": "account",
          "type": "address"
        }
      ],
      "name": "TransferConsignmentOwnership",
      "type": "event"
    },
    {
      "anonymous": false,
      "inputs": [
        {
          "indexed": true,
          "internalType": "bytes32",
          "name": "p",
          "type": "bytes32"
        },
        {
          "indexed": true,
          "internalType": "address",
          "name": "account",
          "type": "address"
        }
      ],
      "name": "TransferProduceOwnership",
      "type": "event"
    },
    {
      "inputs": [
        {
          "internalType": "address",
          "name": "owner",
          "type": "address"
        },
        {
          "internalType": "uint256",
          "name": "op_type",
          "type": "uint256"
        },
        {
          "internalType": "bytes32",
          "name": "p_hash",
          "type": "bytes32"
        }
      ],
      "name": "addOwnership",
      "outputs": [
        {
          "internalType": "bool",
          "name": "",
          "type": "bool"
        }
      ],
      "stateMutability": "nonpayable",
      "type": "function"
    },
    {
      "inputs": [
        {
          "internalType": "address",
          "name": "owner",
          "type": "address"
        },
        {
          "internalType": "uint256",
          "name": "op_type",
          "type": "uint256"
        },
        {
          "internalType": "bytes32",
          "name": "p_hash",
          "type": "bytes32"
        },
        {
          "internalType": "address",
          "name": "to",
          "type": "address"
        }
      ],
      "name": "changeOwnership",
      "outputs": [
        {
          "internalType": "bool",
          "name": "",
          "type": "bool"
        }
      ],
      "stateMutability": "nonpayable",
      "type": "function"
    },
    {
      "inputs": [
        {
          "internalType": "bytes32",
          "name": "",
          "type": "bytes32"
        }
      ],
      "name": "currentConsignmentOwner",
      "outputs": [
        {
          "internalType": "address",
          "name": "",
          "type": "address"
        }
      ],
      "stateMutability": "view",
      "type": "function"
    },
    {
      "inputs": [
        {
          "internalType": "bytes32",
          "name": "",
          "type": "bytes32"
        }
      ],
      "name": "currentProduceOwner",
      "outputs": [
        {
          "internalType": "address",
          "name": "",
          "type": "address"
        }
      ],
      "stateMutability": "view",
      "type": "function"
    },
    {
      "inputs": [],
      "name": "pm",
      "outputs": [
        {
          "internalType": "contract ProduceManagement",
          "name": "",
          "type": "address"
        }
      ],
      "stateMutability": "view",
      "type": "function"
    }
  ],
  "bytecode": "0x60806040523480156200001157600080fd5b5060405162001820380380620018208339818101604052810190620000379190620000e9565b80600260006101000a81548173ffffffffffffffffffffffffffffffffffffffff021916908373ffffffffffffffffffffffffffffffffffffffff160217905550506200011b565b600080fd5b600073ffffffffffffffffffffffffffffffffffffffff82169050919050565b6000620000b18262000084565b9050919050565b620000c381620000a4565b8114620000cf57600080fd5b50565b600081519050620000e381620000b8565b92915050565b6000602082840312156200010257620001016200007f565b5b60006200011284828501620000d2565b91505092915050565b6116f5806200012b6000396000f3fe608060405234801561001057600080fd5b50600436106100575760003560e01c80631f2d8ecc1461005c5780635599e05a1461008c5780638970cdff146100bc5780639c843c78146100da5780639e30ef741461010a575b600080fd5b61007660048036038101906100719190610c8a565b61013a565b6040516100839190610cf8565b60405180910390f35b6100a660048036038101906100a19190610d75565b61016d565b6040516100b39190610de3565b60405180910390f35b6100c46107a8565b6040516100d19190610e5d565b60405180910390f35b6100f460048036038101906100ef9190610c8a565b6107ce565b6040516101019190610cf8565b60405180910390f35b610124600480360381019061011f9190610e78565b610801565b6040516101319190610de3565b60405180910390f35b60016020528060005260406000206000915054906101000a900473ffffffffffffffffffffffffffffffffffffffff1681565b600080600090506000600181111561018857610187610edf565b5b8403610489576000600260009054906101000a900473ffffffffffffffffffffffffffffffffffffffff1673ffffffffffffffffffffffffffffffffffffffff166389a0138e856040518263ffffffff1660e01b81526004016101eb9190610f1d565b600060405180830381865afa158015610208573d6000803e3d6000fd5b505050506040513d6000823e3d601f19601f8201168201806040525081019061023191906110ae565b909150905050809150508073ffffffffffffffffffffffffffffffffffffffff168673ffffffffffffffffffffffffffffffffffffffff16146102a9576040517f08c379a00000000000000000000000000000000000000000000000000000000081526004016102a0906111c6565b60405180910390fd5b600073ffffffffffffffffffffffffffffffffffffffff1660008086815260200190815260200160002060009054906101000a900473ffffffffffffffffffffffffffffffffffffffff1673ffffffffffffffffffffffffffffffffffffffff161461034a576040517f08c379a000000000000000000000000000000000000000000000000000000000815260040161034190611258565b60405180910390fd5b8573ffffffffffffffffffffffffffffffffffffffff1660008086815260200190815260200160002060009054906101000a900473ffffffffffffffffffffffffffffffffffffffff1673ffffffffffffffffffffffffffffffffffffffff16146103ea576040517f08c379a00000000000000000000000000000000000000000000000000000000081526004016103e1906112ea565b60405180910390fd5b8560008086815260200190815260200160002060006101000a81548173ffffffffffffffffffffffffffffffffffffffff021916908373ffffffffffffffffffffffffffffffffffffffff1602179055508573ffffffffffffffffffffffffffffffffffffffff16847f9709ec28f0d6ad3727643633caa69ba103c9779bc7ac3b592b1d42ab7134169b60405160405180910390a3600191505061079d565b60018081111561049c5761049b610edf565b5b840361079c576000600260009054906101000a900473ffffffffffffffffffffffffffffffffffffffff1673ffffffffffffffffffffffffffffffffffffffff1663b0627de1856040518263ffffffff1660e01b81526004016104ff9190610f1d565b600060405180830381865afa15801561051c573d6000803e3d6000fd5b505050506040513d6000823e3d601f19601f8201168201806040525081019061054591906110ae565b909150905050809150508073ffffffffffffffffffffffffffffffffffffffff168673ffffffffffffffffffffffffffffffffffffffff16146105bd576040517f08c379a00000000000000000000000000000000000000000000000000000000081526004016105b490611356565b60405180910390fd5b600073ffffffffffffffffffffffffffffffffffffffff166001600086815260200190815260200160002060009054906101000a900473ffffffffffffffffffffffffffffffffffffffff1673ffffffffffffffffffffffffffffffffffffffff161461065f576040517f08c379a0000000000000000000000000000000000000000000000000000000008152600401610656906113c2565b60405180910390fd5b8573ffffffffffffffffffffffffffffffffffffffff166001600086815260200190815260200160002060009054906101000a900473ffffffffffffffffffffffffffffffffffffffff1673ffffffffffffffffffffffffffffffffffffffff1614610700576040517f08c379a00000000000000000000000000000000000000000000000000000000081526004016106f790611454565b60405180910390fd5b856001600086815260200190815260200160002060006101000a81548173ffffffffffffffffffffffffffffffffffffffff021916908373ffffffffffffffffffffffffffffffffffffffff1602179055508573ffffffffffffffffffffffffffffffffffffffff16847f91f7a5995890c0f3857436d23188c722dec986b8ff286d73c67cadae34c28dde60405160405180910390a360019150505b5b809150509392505050565b600260009054906101000a900473ffffffffffffffffffffffffffffffffffffffff1681565b60006020528060005260406000206000915054906101000a900473ffffffffffffffffffffffffffffffffffffffff1681565b600080600090506000600181111561081c5761081b610edf565b5b8503610960578573ffffffffffffffffffffffffffffffffffffffff1660008086815260200190815260200160002060009054906101000a900473ffffffffffffffffffffffffffffffffffffffff1673ffffffffffffffffffffffffffffffffffffffff16146108c2576040517f08c379a00000000000000000000000000000000000000000000000000000000081526004016108b9906114e6565b60405180910390fd5b8260008086815260200190815260200160002060006101000a81548173ffffffffffffffffffffffffffffffffffffffff021916908373ffffffffffffffffffffffffffffffffffffffff1602179055508273ffffffffffffffffffffffffffffffffffffffff16847f9709ec28f0d6ad3727643633caa69ba103c9779bc7ac3b592b1d42ab7134169b60405160405180910390a360019050610c34565b60018081111561097357610972610edf565b5b8503610c33578573ffffffffffffffffffffffffffffffffffffffff166001600086815260200190815260200160002060009054906101000a900473ffffffffffffffffffffffffffffffffffffffff1673ffffffffffffffffffffffffffffffffffffffff1614610a1a576040517f08c379a0000000000000000000000000000000000000000000000000000000008152600401610a1190611578565b60405180910390fd5b826001600086815260200190815260200160002060006101000a81548173ffffffffffffffffffffffffffffffffffffffff021916908373ffffffffffffffffffffffffffffffffffffffff1602179055508273ffffffffffffffffffffffffffffffffffffffff16847f91f7a5995890c0f3857436d23188c722dec986b8ff286d73c67cadae34c28dde60405160405180910390a36000600260009054906101000a900473ffffffffffffffffffffffffffffffffffffffff1673ffffffffffffffffffffffffffffffffffffffff16633bc7834e866040518263ffffffff1660e01b8152600401610b0d9190610f1d565b60c060405180830381865afa158015610b2a573d6000803e3d6000fd5b505050506040513d601f19601f82011682018060405250810190610b4e9190611663565b905060005b6006811015610c2c5784600080848460068110610b7357610b72611690565b5b6020020151815260200190815260200160002060006101000a81548173ffffffffffffffffffffffffffffffffffffffff021916908373ffffffffffffffffffffffffffffffffffffffff1602179055508473ffffffffffffffffffffffffffffffffffffffff16828260068110610bee57610bed611690565b5b60200201517f9709ec28f0d6ad3727643633caa69ba103c9779bc7ac3b592b1d42ab7134169b60405160405180910390a38080600101915050610b53565b5060019150505b5b80915050949350505050565b6000604051905090565b600080fd5b600080fd5b6000819050919050565b610c6781610c54565b8114610c7257600080fd5b50565b600081359050610c8481610c5e565b92915050565b600060208284031215610ca057610c9f610c4a565b5b6000610cae84828501610c75565b91505092915050565b600073ffffffffffffffffffffffffffffffffffffffff82169050919050565b6000610ce282610cb7565b9050919050565b610cf281610cd7565b82525050565b6000602082019050610d0d6000830184610ce9565b92915050565b610d1c81610cd7565b8114610d2757600080fd5b50565b600081359050610d3981610d13565b92915050565b6000819050919050565b610d5281610d3f565b8114610d5d57600080fd5b50565b600081359050610d6f81610d49565b92915050565b600080600060608486031215610d8e57610d8d610c4a565b5b6000610d9c86828701610d2a565b9350506020610dad86828701610d60565b9250506040610dbe86828701610c75565b9150509250925092565b60008115159050919050565b610ddd81610dc8565b82525050565b6000602082019050610df86000830184610dd4565b92915050565b6000819050919050565b6000610e23610e1e610e1984610cb7565b610dfe565b610cb7565b9050919050565b6000610e3582610e08565b9050919050565b6000610e4782610e2a565b9050919050565b610e5781610e3c565b82525050565b6000602082019050610e726000830184610e4e565b92915050565b60008060008060808587031215610e9257610e91610c4a565b5b6000610ea087828801610d2a565b9450506020610eb187828801610d60565b9350506040610ec287828801610c75565b9250506060610ed387828801610d2a565b91505092959194509250565b7f4e487b7100000000000000000000000000000000000000000000000000000000600052602160045260246000fd5b610f1781610c54565b82525050565b6000602082019050610f326000830184610f0e565b92915050565b600081519050610f4781610d13565b92915050565b600080fd5b600080fd5b6000601f19601f8301169050919050565b7f4e487b7100000000000000000000000000000000000000000000000000000000600052604160045260246000fd5b610fa082610f57565b810181811067ffffffffffffffff82111715610fbf57610fbe610f68565b5b80604052505050565b6000610fd2610c40565b9050610fde8282610f97565b919050565b600067ffffffffffffffff821115610ffe57610ffd610f68565b5b61100782610f57565b9050602081019050919050565b60005b83811015611032578082015181840152602081019050611017565b60008484015250505050565b600061105161104c84610fe3565b610fc8565b90508281526020810184848401111561106d5761106c610f52565b5b611078848285611014565b509392505050565b600082601f83011261109557611094610f4d565b5b81516110a584826020860161103e565b91505092915050565b600080600080608085870312156110c8576110c7610c4a565b5b60006110d687828801610f38565b945050602085015167ffffffffffffffff8111156110f7576110f6610c4f565b5b61110387828801611080565b935050604085015167ffffffffffffffff81111561112457611123610c4f565b5b61113087828801611080565b925050606085015167ffffffffffffffff81111561115157611150610c4f565b5b61115d87828801611080565b91505092959194509250565b600082825260208201905092915050565b7f436f6e7369676e6d656e74206f776e6572206d69736d61746368000000000000600082015250565b60006111b0601a83611169565b91506111bb8261117a565b602082019050919050565b600060208201905081810360008301526111df816111a3565b9050919050565b7f436f6e7369676e6d656e742077617320616c726561647920726567697374657260008201527f6564000000000000000000000000000000000000000000000000000000000000602082015250565b6000611242602283611169565b915061124d826111e6565b604082019050919050565b6000602082019050818103600083015261127181611235565b9050919050565b7f436f6e7369676e6d656e7420776173206e6f74206d616465206279207265717560008201527f6573746572000000000000000000000000000000000000000000000000000000602082015250565b60006112d4602583611169565b91506112df82611278565b604082019050919050565b60006020820190508181036000830152611303816112c7565b9050919050565b7f50726f64756365206f776e6572206d69736d6174636800000000000000000000600082015250565b6000611340601683611169565b915061134b8261130a565b602082019050919050565b6000602082019050818103600083015261136f81611333565b9050919050565b7f50726f647563652077617320616c726561647920726567697374657265640000600082015250565b60006113ac601e83611169565b91506113b782611376565b602082019050919050565b600060208201905081810360008301526113db8161139f565b9050919050565b7f50726f6475636520776173206e6f74206d61646520627920726571756573746560008201527f7200000000000000000000000000000000000000000000000000000000000000602082015250565b600061143e602183611169565b9150611449826113e2565b604082019050919050565b6000602082019050818103600083015261146d81611431565b9050919050565b7f436f6e7369676e6d656e74206973206e6f74206f776e6564206279207265717560008201527f6573746572000000000000000000000000000000000000000000000000000000602082015250565b60006114d0602583611169565b91506114db82611474565b604082019050919050565b600060208201905081810360008301526114ff816114c3565b9050919050565b7f50726f64756365206973206e6f74206f776e656420627920726571756573746560008201527f7200000000000000000000000000000000000000000000000000000000000000602082015250565b6000611562602183611169565b915061156d82611506565b604082019050919050565b6000602082019050818103600083015261159181611555565b9050919050565b600067ffffffffffffffff8211156115b3576115b2610f68565b5b602082029050919050565b600080fd5b6000815190506115d281610c5e565b92915050565b60006115eb6115e684611598565b610fc8565b90508060208402830185811115611605576116046115be565b5b835b8181101561162e578061161a88826115c3565b845260208401935050602081019050611607565b5050509392505050565b600082601f83011261164d5761164c610f4d565b5b600661165a8482856115d8565b91505092915050565b600060c0828403121561167957611678610c4a565b5b600061168784828501611638565b91505092915050565b7f4e487b7100000000000000000000000000000000000000000000000000000000600052603260045260246000fdfea26469706673582212200e32aafa33eb057c01a23af5369169e38e6cec170a4e4d60ea83746b19e0333264736f6c63430008180033",
  "linkReferences": {},
  "deployedLinkReferences": {}
}