{
  "_format": "hh-sol-artifact-1",
  "contractName": "ProduceTraceabilityV1",
  "sourceName": "contracts/supply chain/ProduceTraceabilityV1.sol",
  "abi": [
    {
      "inputs": [
        {
          "internalType": "address",
          "name": "prod_own_addr",
          "type": "address"
        }
      ],
      "stateMutability": "nonpayable",
      "type": "constructor"
    },
    {
      "anonymous": false,
      "inputs": [
        {
          "indexed": false,
          "internalType": "string",
          "name": "name",
          "type": "string"
        },
        {
          "indexed": true,
          "internalType": "address",
          "name": "ethAddress",
          "type": "address"
        },
        {
          "indexed": false,
          "internalType": "uint256",
          "name": "timestamp",
          "type": "uint256"
        }
      ],
      "name": "FarmerRegistered",
      "type": "event"
    },
    {
      "anonymous": false,
      "inputs": [
        {
          "indexed": true,
          "internalType": "address",
          "name": "ethAddress",
          "type": "address"
        },
        {
          "indexed": false,
          "internalType": "uint256",
          "name": "timestamp",
          "type": "uint256"
        }
      ],
      "name": "FarmerVerified",
      "type": "event"
    },
    {
      "anonymous": false,
      "inputs": [
        {
          "indexed": true,
          "internalType": "address",
          "name": "farmer",
          "type": "address"
        },
        {
          "indexed": false,
          "internalType": "bytes32",
          "name": "produce_hash",
          "type": "bytes32"
        },
        {
          "indexed": false,
          "internalType": "string",
          "name": "produce_name",
          "type": "string"
        },
        {
          "indexed": false,
          "internalType": "uint256",
          "name": "timestamp",
          "type": "uint256"
        }
      ],
      "name": "ProduceAdded",
      "type": "event"
    },
    {
      "anonymous": false,
      "inputs": [
        {
          "indexed": true,
          "internalType": "address",
          "name": "source",
          "type": "address"
        },
        {
          "indexed": false,
          "internalType": "bytes32",
          "name": "produce_hash",
          "type": "bytes32"
        },
        {
          "indexed": false,
          "internalType": "uint256",
          "name": "referenceNumber",
          "type": "uint256"
        },
        {
          "indexed": false,
          "internalType": "uint256",
          "name": "timestamp",
          "type": "uint256"
        }
      ],
      "name": "ProduceSold",
      "type": "event"
    },
    {
      "inputs": [
        {
          "internalType": "uint256",
          "name": "",
          "type": "uint256"
        }
      ],
      "name": "FarmProduces",
      "outputs": [
        {
          "internalType": "bytes32",
          "name": "produceHash",
          "type": "bytes32"
        },
        {
          "internalType": "string",
          "name": "produce",
          "type": "string"
        },
        {
          "internalType": "address",
          "name": "farmer",
          "type": "address"
        },
        {
          "internalType": "uint256",
          "name": "quantity",
          "type": "uint256"
        }
      ],
      "stateMutability": "view",
      "type": "function"
    },
    {
      "inputs": [
        {
          "internalType": "uint256",
          "name": "",
          "type": "uint256"
        }
      ],
      "name": "FarmerAddresses",
      "outputs": [
        {
          "internalType": "address",
          "name": "",
          "type": "address"
        }
      ],
      "stateMutability": "view",
      "type": "function"
    },
    {
      "inputs": [
        {
          "internalType": "uint256",
          "name": "",
          "type": "uint256"
        }
      ],
      "name": "ProduceSales",
      "outputs": [
        {
          "internalType": "bytes32",
          "name": "consignmentHash",
          "type": "bytes32"
        },
        {
          "internalType": "uint256",
          "name": "referenceNumber",
          "type": "uint256"
        },
        {
          "internalType": "address",
          "name": "buyer",
          "type": "address"
        },
        {
          "internalType": "uint256",
          "name": "amount",
          "type": "uint256"
        },
        {
          "internalType": "uint256",
          "name": "price",
          "type": "uint256"
        }
      ],
      "stateMutability": "view",
      "type": "function"
    },
    {
      "inputs": [
        {
          "internalType": "string",
          "name": "_produce_name",
          "type": "string"
        },
        {
          "internalType": "string",
          "name": "_lot_number",
          "type": "string"
        },
        {
          "internalType": "string",
          "name": "_weight",
          "type": "string"
        },
        {
          "internalType": "uint256",
          "name": "_quantity",
          "type": "uint256"
        },
        {
          "internalType": "string",
          "name": "_storage_date",
          "type": "string"
        },
        {
          "internalType": "address",
          "name": "_farmer",
          "type": "address"
        },
        {
          "internalType": "address[]",
          "name": "_agents",
          "type": "address[]"
        }
      ],
      "name": "addFarmProduce",
      "outputs": [
        {
          "internalType": "bytes32",
          "name": "",
          "type": "bytes32"
        }
      ],
      "stateMutability": "nonpayable",
      "type": "function"
    },
    {
      "inputs": [
        {
          "internalType": "address",
          "name": "",
          "type": "address"
        }
      ],
      "name": "farmers",
      "outputs": [
        {
          "internalType": "string",
          "name": "name",
          "type": "string"
        },
        {
          "internalType": "string",
          "name": "location",
          "type": "string"
        },
        {
          "internalType": "address",
          "name": "ethAddress",
          "type": "address"
        },
        {
          "internalType": "bool",
          "name": "isVerified",
          "type": "bool"
        }
      ],
      "stateMutability": "view",
      "type": "function"
    },
    {
      "inputs": [
        {
          "internalType": "address",
          "name": "_ethAddress",
          "type": "address"
        }
      ],
      "name": "getFarmer",
      "outputs": [
        {
          "internalType": "string",
          "name": "",
          "type": "string"
        },
        {
          "internalType": "string",
          "name": "",
          "type": "string"
        },
        {
          "internalType": "address",
          "name": "",
          "type": "address"
        },
        {
          "internalType": "bool",
          "name": "",
          "type": "bool"
        }
      ],
      "stateMutability": "view",
      "type": "function"
    },
    {
      "inputs": [],
      "name": "getFarmerCount",
      "outputs": [
        {
          "internalType": "uint256",
          "name": "",
          "type": "uint256"
        }
      ],
      "stateMutability": "view",
      "type": "function"
    },
    {
      "inputs": [
        {
          "internalType": "uint256",
          "name": "index",
          "type": "uint256"
        }
      ],
      "name": "getProduce",
      "outputs": [
        {
          "internalType": "bytes32",
          "name": "",
          "type": "bytes32"
        },
        {
          "internalType": "string",
          "name": "",
          "type": "string"
        },
        {
          "internalType": "address",
          "name": "",
          "type": "address"
        },
        {
          "internalType": "uint256",
          "name": "",
          "type": "uint256"
        },
        {
          "internalType": "address[]",
          "name": "",
          "type": "address[]"
        }
      ],
      "stateMutability": "view",
      "type": "function"
    },
    {
      "inputs": [],
      "name": "getProduceCount",
      "outputs": [
        {
          "internalType": "uint256",
          "name": "",
          "type": "uint256"
        }
      ],
      "stateMutability": "view",
      "type": "function"
    },
    {
      "inputs": [
        {
          "internalType": "bytes32",
          "name": "_produceHash",
          "type": "bytes32"
        }
      ],
      "name": "getProduceIndex",
      "outputs": [
        {
          "internalType": "uint256",
          "name": "",
          "type": "uint256"
        }
      ],
      "stateMutability": "view",
      "type": "function"
    },
    {
      "inputs": [
        {
          "internalType": "uint256",
          "name": "index",
          "type": "uint256"
        }
      ],
      "name": "getProduceSale",
      "outputs": [
        {
          "internalType": "bytes32",
          "name": "",
          "type": "bytes32"
        },
        {
          "internalType": "uint256",
          "name": "",
          "type": "uint256"
        },
        {
          "internalType": "address",
          "name": "",
          "type": "address"
        },
        {
          "internalType": "uint256",
          "name": "",
          "type": "uint256"
        },
        {
          "internalType": "uint256",
          "name": "",
          "type": "uint256"
        }
      ],
      "stateMutability": "view",
      "type": "function"
    },
    {
      "inputs": [],
      "name": "getProduceSaleCount",
      "outputs": [
        {
          "internalType": "uint256",
          "name": "",
          "type": "uint256"
        }
      ],
      "stateMutability": "view",
      "type": "function"
    },
    {
      "inputs": [
        {
          "internalType": "uint256",
          "name": "_referenceNumber",
          "type": "uint256"
        }
      ],
      "name": "getProduceSaleIndex",
      "outputs": [
        {
          "internalType": "uint256",
          "name": "",
          "type": "uint256"
        }
      ],
      "stateMutability": "view",
      "type": "function"
    },
    {
      "inputs": [
        {
          "internalType": "address",
          "name": "",
          "type": "address"
        }
      ],
      "name": "isProduce",
      "outputs": [
        {
          "internalType": "bytes32",
          "name": "",
          "type": "bytes32"
        }
      ],
      "stateMutability": "view",
      "type": "function"
    },
    {
      "inputs": [
        {
          "internalType": "bytes32",
          "name": "",
          "type": "bytes32"
        }
      ],
      "name": "lookUpProd",
      "outputs": [
        {
          "internalType": "uint256",
          "name": "",
          "type": "uint256"
        }
      ],
      "stateMutability": "view",
      "type": "function"
    },
    {
      "inputs": [
        {
          "internalType": "uint256",
          "name": "",
          "type": "uint256"
        }
      ],
      "name": "lookUpSale",
      "outputs": [
        {
          "internalType": "uint256",
          "name": "",
          "type": "uint256"
        }
      ],
      "stateMutability": "view",
      "type": "function"
    },
    {
      "inputs": [],
      "name": "owner",
      "outputs": [
        {
          "internalType": "address",
          "name": "",
          "type": "address"
        }
      ],
      "stateMutability": "view",
      "type": "function"
    },
    {
      "inputs": [],
      "name": "pmg",
      "outputs": [
        {
          "internalType": "contract ProduceManagement",
          "name": "",
          "type": "address"
        }
      ],
      "stateMutability": "view",
      "type": "function"
    },
    {
      "inputs": [],
      "name": "pwn",
      "outputs": [
        {
          "internalType": "contract ProduceOwnership",
          "name": "",
          "type": "address"
        }
      ],
      "stateMutability": "view",
      "type": "function"
    },
    {
      "inputs": [
        {
          "internalType": "string",
          "name": "_name",
          "type": "string"
        },
        {
          "internalType": "string",
          "name": "_location",
          "type": "string"
        },
        {
          "internalType": "address",
          "name": "_ethAddress",
          "type": "address"
        }
      ],
      "name": "registerFarmer",
      "outputs": [],
      "stateMutability": "nonpayable",
      "type": "function"
    },
    {
      "inputs": [
        {
          "internalType": "bytes32",
          "name": "_produceHash",
          "type": "bytes32"
        },
        {
          "internalType": "uint256",
          "name": "_referenceNumber",
          "type": "uint256"
        },
        {
          "internalType": "address",
          "name": "_farmer",
          "type": "address"
        },
        {
          "internalType": "address",
          "name": "_buyer",
          "type": "address"
        },
        {
          "internalType": "uint256",
          "name": "_amount",
          "type": "uint256"
        },
        {
          "internalType": "uint256",
          "name": "_price",
          "type": "uint256"
        }
      ],
      "name": "sellFarmProduce",
      "outputs": [],
      "stateMutability": "nonpayable",
      "type": "function"
    },
    {
      "inputs": [
        {
          "internalType": "address",
          "name": "_ethAddress",
          "type": "address"
        }
      ],
      "name": "verifyFarmer",
      "outputs": [],
      "stateMutability": "nonpayable",
      "type": "function"
    }
  ],
  "bytecode": "0x60806040523480156200001157600080fd5b50604051620030283803806200302883398181016040528101906200003791906200012a565b33600760006101000a81548173ffffffffffffffffffffffffffffffffffffffff021916908373ffffffffffffffffffffffffffffffffffffffff16021790555080600860006101000a81548173ffffffffffffffffffffffffffffffffffffffff021916908373ffffffffffffffffffffffffffffffffffffffff160217905550506200015c565b600080fd5b600073ffffffffffffffffffffffffffffffffffffffff82169050919050565b6000620000f282620000c5565b9050919050565b6200010481620000e5565b81146200011057600080fd5b50565b6000815190506200012481620000f9565b92915050565b600060208284031215620001435762000142620000c0565b5b6000620001538482850162000113565b91505092915050565b612ebc806200016c6000396000f3fe608060405234801561001057600080fd5b50600436106101425760003560e01c806396d9c4ea116100b8578063d070377c1161007c578063d070377c146103d5578063dd365b8b146103f3578063e0e3d63114610411578063e149c4e314610441578063e7609c1614610471578063f0a918d7146104a457610142565b806396d9c4ea1461030b5780639c00cb651461033b578063a12b67f11461036b578063ba45a0761461039b578063c4a8b5d5146103b757610142565b8063401b21681161010a578063401b2168146102035780635c0b1acd1461023657806363a3cd88146102525780638c09a573146102865780638da5cb5b146102ba5780638e0d02f6146102d857610142565b80630afb1372146101475780631a02e7ff146101775780631fac4fc914610195578063235db9f5146101b3578063389b8066146101cf575b600080fd5b610161600480360381019061015c9190611bd7565b6104d4565b60405161016e9190611c1d565b60405180910390f35b61017f6104ec565b60405161018c9190611c97565b60405180910390f35b61019d610512565b6040516101aa9190611ccb565b60405180910390f35b6101cd60048036038101906101c89190611bd7565b61051f565b005b6101e960048036038101906101e49190611d12565b61072a565b6040516101fa959493929190611e9c565b60405180910390f35b61021d60048036038101906102189190611bd7565b6108ff565b60405161022d9493929190611f18565b60405180910390f35b610250600480360381019061024b91906120a0565b610a6c565b005b61026c60048036038101906102679190611d12565b610ca7565b60405161027d95949392919061212b565b60405180910390f35b6102a0600480360381019061029b9190611d12565b610d69565b6040516102b195949392919061212b565b60405180910390f35b6102c2610dcf565b6040516102cf919061217e565b60405180910390f35b6102f260048036038101906102ed9190611d12565b610df5565b6040516103029493929190612199565b60405180910390f35b61032560048036038101906103209190612211565b610edd565b6040516103329190611ccb565b60405180910390f35b61035560048036038101906103509190611d12565b610ef5565b604051610362919061217e565b60405180910390f35b61038560048036038101906103809190612211565b610f34565b6040516103929190611ccb565b60405180910390f35b6103b560048036038101906103b0919061223e565b610f51565b005b6103bf6113a0565b6040516103cc9190611ccb565b60405180910390f35b6103dd6113ad565b6040516103ea9190611ccb565b60405180910390f35b6103fb6113ba565b60405161040891906122ec565b60405180910390f35b61042b600480360381019061042691906123cf565b6113e0565b6040516104389190611c1d565b60405180910390f35b61045b60048036038101906104569190611d12565b611829565b6040516104689190611ccb565b60405180910390f35b61048b60048036038101906104869190611bd7565b611846565b60405161049b9493929190611f18565b60405180910390f35b6104be60048036038101906104b99190611d12565b611aa6565b6040516104cb9190611ccb565b60405180910390f35b60026020528060005260406000206000915090505481565b600960009054906101000a900473ffffffffffffffffffffffffffffffffffffffff1681565b6000600580549050905090565b600760009054906101000a900473ffffffffffffffffffffffffffffffffffffffff1673ffffffffffffffffffffffffffffffffffffffff163373ffffffffffffffffffffffffffffffffffffffff16146105af576040517f08c379a00000000000000000000000000000000000000000000000000000000081526004016105a69061256f565b60405180910390fd5b600073ffffffffffffffffffffffffffffffffffffffff166000808373ffffffffffffffffffffffffffffffffffffffff1673ffffffffffffffffffffffffffffffffffffffff16815260200190815260200160002060020160009054906101000a900473ffffffffffffffffffffffffffffffffffffffff1673ffffffffffffffffffffffffffffffffffffffff160361067f576040517f08c379a0000000000000000000000000000000000000000000000000000000008152600401610676906125db565b60405180910390fd5b60016000808373ffffffffffffffffffffffffffffffffffffffff1673ffffffffffffffffffffffffffffffffffffffff16815260200190815260200160002060020160146101000a81548160ff0219169083151502179055508073ffffffffffffffffffffffffffffffffffffffff167fea8fb419111481ddf23f46f716977ce4313705081e37049fda136377a3a6a9294260405161071f9190611ccb565b60405180910390a250565b600060606000806060600580549050861061077a576040517f08c379a000000000000000000000000000000000000000000000000000000000815260040161077190612647565b60405180910390fd5b6000600587815481106107905761078f612667565b5b906000526020600020906005020190508060000154816001018260020160009054906101000a900473ffffffffffffffffffffffffffffffffffffffff168360030154846004018380546107e3906126c5565b80601f016020809104026020016040519081016040528092919081815260200182805461080f906126c5565b801561085c5780601f106108315761010080835404028352916020019161085c565b820191906000526020600020905b81548152906001019060200180831161083f57829003601f168201915b50505050509350808054806020026020016040519081016040528092919081815260200182805480156108e457602002820191906000526020600020905b8160009054906101000a900473ffffffffffffffffffffffffffffffffffffffff1673ffffffffffffffffffffffffffffffffffffffff168152602001906001019080831161089a575b50505050509050955095509550955095505091939590929450565b6000602052806000526040600020600091509050806000018054610922906126c5565b80601f016020809104026020016040519081016040528092919081815260200182805461094e906126c5565b801561099b5780601f106109705761010080835404028352916020019161099b565b820191906000526020600020905b81548152906001019060200180831161097e57829003601f168201915b5050505050908060010180546109b0906126c5565b80601f01602080910402602001604051908101604052809291908181526020018280546109dc906126c5565b8015610a295780601f106109fe57610100808354040283529160200191610a29565b820191906000526020600020905b815481529060010190602001808311610a0c57829003601f168201915b5050505050908060020160009054906101000a900473ffffffffffffffffffffffffffffffffffffffff16908060020160149054906101000a900460ff16905084565b600073ffffffffffffffffffffffffffffffffffffffff168173ffffffffffffffffffffffffffffffffffffffff1603610adb576040517f08c379a0000000000000000000000000000000000000000000000000000000008152600401610ad290612742565b60405180910390fd5b600060405180608001604052808581526020018481526020018373ffffffffffffffffffffffffffffffffffffffff168152602001600015158152509050806000808473ffffffffffffffffffffffffffffffffffffffff1673ffffffffffffffffffffffffffffffffffffffff1681526020019081526020016000206000820151816000019081610b6d9190612904565b506020820151816001019081610b839190612904565b5060408201518160020160006101000a81548173ffffffffffffffffffffffffffffffffffffffff021916908373ffffffffffffffffffffffffffffffffffffffff16021790555060608201518160020160146101000a81548160ff0219169083151502179055509050506004829080600181540180825580915050600190039060005260206000200160009091909190916101000a81548173ffffffffffffffffffffffffffffffffffffffff021916908373ffffffffffffffffffffffffffffffffffffffff1602179055508173ffffffffffffffffffffffffffffffffffffffff167f410a9489a5427585a7b8116b854cd41394a92f728eba3846cf87d4ce923864328542604051610c999291906129d6565b60405180910390a250505050565b60008060008060006006805490508610610cf6576040517f08c379a0000000000000000000000000000000000000000000000000000000008152600401610ced90612647565b60405180910390fd5b600060068781548110610d0c57610d0b612667565b5b90600052602060002090600502019050806000015481600101548260020160009054906101000a900473ffffffffffffffffffffffffffffffffffffffff1683600301548460040154955095509550955095505091939590929450565b60068181548110610d7957600080fd5b90600052602060002090600502016000915090508060000154908060010154908060020160009054906101000a900473ffffffffffffffffffffffffffffffffffffffff16908060030154908060040154905085565b600760009054906101000a900473ffffffffffffffffffffffffffffffffffffffff1681565b60058181548110610e0557600080fd5b9060005260206000209060050201600091509050806000015490806001018054610e2e906126c5565b80601f0160208091040260200160405190810160405280929190818152602001828054610e5a906126c5565b8015610ea75780601f10610e7c57610100808354040283529160200191610ea7565b820191906000526020600020905b815481529060010190602001808311610e8a57829003601f168201915b5050505050908060020160009054906101000a900473ffffffffffffffffffffffffffffffffffffffff16908060030154905084565b60016020528060005260406000206000915090505481565b60048181548110610f0557600080fd5b906000526020600020016000915054906101000a900473ffffffffffffffffffffffffffffffffffffffff1681565b600060016000838152602001908152602001600020549050919050565b83600115156000808373ffffffffffffffffffffffffffffffffffffffff1673ffffffffffffffffffffffffffffffffffffffff16815260200190815260200160002060020160149054906101000a900460ff16151514610fe7576040517f08c379a0000000000000000000000000000000000000000000000000000000008152600401610fde90612a78565b60405180910390fd5b600073ffffffffffffffffffffffffffffffffffffffff168473ffffffffffffffffffffffffffffffffffffffff1603611056576040517f08c379a000000000000000000000000000000000000000000000000000000000815260040161104d90612ae4565b60405180910390fd5b86600260008773ffffffffffffffffffffffffffffffffffffffff1673ffffffffffffffffffffffffffffffffffffffff16815260200190815260200160002054146110d7576040517f08c379a00000000000000000000000000000000000000000000000000000000081526004016110ce90612b76565b60405180910390fd5b60006110e288610f34565b90506000600582815481106110fa576110f9612667565b5b906000526020600020906005020160030154905080851115611151576040517f08c379a000000000000000000000000000000000000000000000000000000000815260040161114890612be2565b60405180910390fd5b60006040518060a001604052808b81526020018a81526020018873ffffffffffffffffffffffffffffffffffffffff1681526020018781526020018681525090506006819080600181540180825580915050600190039060005260206000209060050201600090919091909150600082015181600001556020820151816001015560408201518160020160006101000a81548173ffffffffffffffffffffffffffffffffffffffff021916908373ffffffffffffffffffffffffffffffffffffffff16021790555060608201518160030155608082015181600401555050600860009054906101000a900473ffffffffffffffffffffffffffffffffffffffff1673ffffffffffffffffffffffffffffffffffffffff16639e30ef748960018d8b6040518563ffffffff1660e01b81526004016112919493929190612c3d565b6020604051808303816000875af11580156112b0573d6000803e3d6000fd5b505050506040513d601f19601f820116820180604052508101906112d49190612cae565b5085600584815481106112ea576112e9612667565b5b9060005260206000209060050201600301600082825461130a9190612d0a565b92505081905550600061131b6113ad565b905060018161132a9190612d0a565b600360008c8152602001908152602001600020819055508873ffffffffffffffffffffffffffffffffffffffff167fd8e472d3dd76781849890d81c5b0566a834d86725e397b82689592634841c0758c8c4260405161138b93929190612d3e565b60405180910390a25050505050505050505050565b6000600480549050905090565b6000600680549050905090565b600860009054906101000a900473ffffffffffffffffffffffffffffffffffffffff1681565b6000600760009054906101000a900473ffffffffffffffffffffffffffffffffffffffff1673ffffffffffffffffffffffffffffffffffffffff163373ffffffffffffffffffffffffffffffffffffffff1614611472576040517f08c379a00000000000000000000000000000000000000000000000000000000081526004016114699061256f565b60405180910390fd5b82600115156000808373ffffffffffffffffffffffffffffffffffffffff1673ffffffffffffffffffffffffffffffffffffffff16815260200190815260200160002060020160149054906101000a900460ff16151514611508576040517f08c379a00000000000000000000000000000000000000000000000000000000081526004016114ff90612a78565b60405180910390fd5b6000600960009054906101000a900473ffffffffffffffffffffffffffffffffffffffff1673ffffffffffffffffffffffffffffffffffffffff16633dd5d5c7868b8b8a6040518563ffffffff1660e01b815260040161156b9493929190612d75565b6020604051808303816000875af115801561158a573d6000803e3d6000fd5b505050506040513d601f19601f820116820180604052508101906115ae9190612de4565b905060006040518060a001604052808381526020018c81526020018773ffffffffffffffffffffffffffffffffffffffff168152602001898152602001868152509050600581908060018154018082558091505060019003906000526020600020906005020160009091909190915060008201518160000155602082015181600101908161163c9190612904565b5060408201518160020160006101000a81548173ffffffffffffffffffffffffffffffffffffffff021916908373ffffffffffffffffffffffffffffffffffffffff1602179055506060820151816003015560808201518160040190805190602001906116aa929190611abe565b505050600860009054906101000a900473ffffffffffffffffffffffffffffffffffffffff1673ffffffffffffffffffffffffffffffffffffffff16635599e05a876001856040518463ffffffff1660e01b815260040161170d93929190612e11565b6020604051808303816000875af115801561172c573d6000803e3d6000fd5b505050506040513d601f19601f820116820180604052508101906117509190612cae565b50600061175b610512565b905060018161176a9190612d0a565b600160008581526020019081526020016000208190555082600260008973ffffffffffffffffffffffffffffffffffffffff1673ffffffffffffffffffffffffffffffffffffffff168152602001908152602001600020819055508673ffffffffffffffffffffffffffffffffffffffff167f69f424df462d3aab52240ab26d892e9353148a6587bbabaca097a7b88f4698b1848e4260405161180f93929190612e48565b60405180910390a282945050505050979650505050505050565b600060036000838152602001908152602001600020549050919050565b6060806000806000808673ffffffffffffffffffffffffffffffffffffffff1673ffffffffffffffffffffffffffffffffffffffff1681526020019081526020016000206000016000808773ffffffffffffffffffffffffffffffffffffffff1673ffffffffffffffffffffffffffffffffffffffff1681526020019081526020016000206001016000808873ffffffffffffffffffffffffffffffffffffffff1673ffffffffffffffffffffffffffffffffffffffff16815260200190815260200160002060020160009054906101000a900473ffffffffffffffffffffffffffffffffffffffff166000808973ffffffffffffffffffffffffffffffffffffffff1673ffffffffffffffffffffffffffffffffffffffff16815260200190815260200160002060020160149054906101000a900460ff1683805461198b906126c5565b80601f01602080910402602001604051908101604052809291908181526020018280546119b7906126c5565b8015611a045780601f106119d957610100808354040283529160200191611a04565b820191906000526020600020905b8154815290600101906020018083116119e757829003601f168201915b50505050509350828054611a17906126c5565b80601f0160208091040260200160405190810160405280929190818152602001828054611a43906126c5565b8015611a905780601f10611a6557610100808354040283529160200191611a90565b820191906000526020600020905b815481529060010190602001808311611a7357829003601f168201915b5050505050925093509350935093509193509193565b60036020528060005260406000206000915090505481565b828054828255906000526020600020908101928215611b37579160200282015b82811115611b365782518260006101000a81548173ffffffffffffffffffffffffffffffffffffffff021916908373ffffffffffffffffffffffffffffffffffffffff16021790555091602001919060010190611ade565b5b509050611b449190611b48565b5090565b5b80821115611b61576000816000905550600101611b49565b5090565b6000604051905090565b600080fd5b600080fd5b600073ffffffffffffffffffffffffffffffffffffffff82169050919050565b6000611ba482611b79565b9050919050565b611bb481611b99565b8114611bbf57600080fd5b50565b600081359050611bd181611bab565b92915050565b600060208284031215611bed57611bec611b6f565b5b6000611bfb84828501611bc2565b91505092915050565b6000819050919050565b611c1781611c04565b82525050565b6000602082019050611c326000830184611c0e565b92915050565b6000819050919050565b6000611c5d611c58611c5384611b79565b611c38565b611b79565b9050919050565b6000611c6f82611c42565b9050919050565b6000611c8182611c64565b9050919050565b611c9181611c76565b82525050565b6000602082019050611cac6000830184611c88565b92915050565b6000819050919050565b611cc581611cb2565b82525050565b6000602082019050611ce06000830184611cbc565b92915050565b611cef81611cb2565b8114611cfa57600080fd5b50565b600081359050611d0c81611ce6565b92915050565b600060208284031215611d2857611d27611b6f565b5b6000611d3684828501611cfd565b91505092915050565b600081519050919050565b600082825260208201905092915050565b60005b83811015611d79578082015181840152602081019050611d5e565b60008484015250505050565b6000601f19601f8301169050919050565b6000611da182611d3f565b611dab8185611d4a565b9350611dbb818560208601611d5b565b611dc481611d85565b840191505092915050565b611dd881611b99565b82525050565b600081519050919050565b600082825260208201905092915050565b6000819050602082019050919050565b611e1381611b99565b82525050565b6000611e258383611e0a565b60208301905092915050565b6000602082019050919050565b6000611e4982611dde565b611e538185611de9565b9350611e5e83611dfa565b8060005b83811015611e8f578151611e768882611e19565b9750611e8183611e31565b925050600181019050611e62565b5085935050505092915050565b600060a082019050611eb16000830188611c0e565b8181036020830152611ec38187611d96565b9050611ed26040830186611dcf565b611edf6060830185611cbc565b8181036080830152611ef18184611e3e565b90509695505050505050565b60008115159050919050565b611f1281611efd565b82525050565b60006080820190508181036000830152611f328187611d96565b90508181036020830152611f468186611d96565b9050611f556040830185611dcf565b611f626060830184611f09565b95945050505050565b600080fd5b600080fd5b7f4e487b7100000000000000000000000000000000000000000000000000000000600052604160045260246000fd5b611fad82611d85565b810181811067ffffffffffffffff82111715611fcc57611fcb611f75565b5b80604052505050565b6000611fdf611b65565b9050611feb8282611fa4565b919050565b600067ffffffffffffffff82111561200b5761200a611f75565b5b61201482611d85565b9050602081019050919050565b82818337600083830152505050565b600061204361203e84611ff0565b611fd5565b90508281526020810184848401111561205f5761205e611f70565b5b61206a848285612021565b509392505050565b600082601f83011261208757612086611f6b565b5b8135612097848260208601612030565b91505092915050565b6000806000606084860312156120b9576120b8611b6f565b5b600084013567ffffffffffffffff8111156120d7576120d6611b74565b5b6120e386828701612072565b935050602084013567ffffffffffffffff81111561210457612103611b74565b5b61211086828701612072565b925050604061212186828701611bc2565b9150509250925092565b600060a0820190506121406000830188611c0e565b61214d6020830187611cbc565b61215a6040830186611dcf565b6121676060830185611cbc565b6121746080830184611cbc565b9695505050505050565b60006020820190506121936000830184611dcf565b92915050565b60006080820190506121ae6000830187611c0e565b81810360208301526121c08186611d96565b90506121cf6040830185611dcf565b6121dc6060830184611cbc565b95945050505050565b6121ee81611c04565b81146121f957600080fd5b50565b60008135905061220b816121e5565b92915050565b60006020828403121561222757612226611b6f565b5b6000612235848285016121fc565b91505092915050565b60008060008060008060c0878903121561225b5761225a611b6f565b5b600061226989828a016121fc565b965050602061227a89828a01611cfd565b955050604061228b89828a01611bc2565b945050606061229c89828a01611bc2565b93505060806122ad89828a01611cfd565b92505060a06122be89828a01611cfd565b9150509295509295509295565b60006122d682611c64565b9050919050565b6122e6816122cb565b82525050565b600060208201905061230160008301846122dd565b92915050565b600067ffffffffffffffff82111561232257612321611f75565b5b602082029050602081019050919050565b600080fd5b600061234b61234684612307565b611fd5565b9050808382526020820190506020840283018581111561236e5761236d612333565b5b835b8181101561239757806123838882611bc2565b845260208401935050602081019050612370565b5050509392505050565b600082601f8301126123b6576123b5611f6b565b5b81356123c6848260208601612338565b91505092915050565b600080600080600080600060e0888a0312156123ee576123ed611b6f565b5b600088013567ffffffffffffffff81111561240c5761240b611b74565b5b6124188a828b01612072565b975050602088013567ffffffffffffffff81111561243957612438611b74565b5b6124458a828b01612072565b965050604088013567ffffffffffffffff81111561246657612465611b74565b5b6124728a828b01612072565b95505060606124838a828b01611cfd565b945050608088013567ffffffffffffffff8111156124a4576124a3611b74565b5b6124b08a828b01612072565b93505060a06124c18a828b01611bc2565b92505060c088013567ffffffffffffffff8111156124e2576124e1611b74565b5b6124ee8a828b016123a1565b91505092959891949750929550565b7f4f6e6c7920746865206f776e65722063616e20706572666f726d20746869732060008201527f616374696f6e0000000000000000000000000000000000000000000000000000602082015250565b6000612559602683611d4a565b9150612564826124fd565b604082019050919050565b600060208201905081810360008301526125888161254c565b9050919050565b7f4661726d6572206e6f7420726567697374657265640000000000000000000000600082015250565b60006125c5601583611d4a565b91506125d08261258f565b602082019050919050565b600060208201905081810360008301526125f4816125b8565b9050919050565b7f496e76616c696420696e64657800000000000000000000000000000000000000600082015250565b6000612631600d83611d4a565b915061263c826125fb565b602082019050919050565b6000602082019050818103600083015261266081612624565b9050919050565b7f4e487b7100000000000000000000000000000000000000000000000000000000600052603260045260246000fd5b7f4e487b7100000000000000000000000000000000000000000000000000000000600052602260045260246000fd5b600060028204905060018216806126dd57607f821691505b6020821081036126f0576126ef612696565b5b50919050565b7f4661726d6572206164647265737320696e76616c696400000000000000000000600082015250565b600061272c601683611d4a565b9150612737826126f6565b602082019050919050565b6000602082019050818103600083015261275b8161271f565b9050919050565b60008190508160005260206000209050919050565b60006020601f8301049050919050565b600082821b905092915050565b6000600883026127c47fffffffffffffffffffffffffffffffffffffffffffffffffffffffffffffffff82612787565b6127ce8683612787565b95508019841693508086168417925050509392505050565b60006128016127fc6127f784611cb2565b611c38565b611cb2565b9050919050565b6000819050919050565b61281b836127e6565b61282f61282782612808565b848454612794565b825550505050565b600090565b612844612837565b61284f818484612812565b505050565b5b818110156128735761286860008261283c565b600181019050612855565b5050565b601f8211156128b85761288981612762565b61289284612777565b810160208510156128a1578190505b6128b56128ad85612777565b830182612854565b50505b505050565b600082821c905092915050565b60006128db600019846008026128bd565b1980831691505092915050565b60006128f483836128ca565b9150826002028217905092915050565b61290d82611d3f565b67ffffffffffffffff81111561292657612925611f75565b5b61293082546126c5565b61293b828285612877565b600060209050601f83116001811461296e576000841561295c578287015190505b61296685826128e8565b8655506129ce565b601f19841661297c86612762565b60005b828110156129a45784890151825560018201915060208501945060208101905061297f565b868310156129c157848901516129bd601f8916826128ca565b8355505b6001600288020188555050505b505050505050565b600060408201905081810360008301526129f08185611d96565b90506129ff6020830184611cbc565b9392505050565b7f4f6e6c7920746865206661726d65722063616e2073656c6c207468697320707260008201527f6f64756374000000000000000000000000000000000000000000000000000000602082015250565b6000612a62602583611d4a565b9150612a6d82612a06565b604082019050919050565b60006020820190508181036000830152612a9181612a55565b9050919050565b7f4275796572206164647265737320696e76616c69640000000000000000000000600082015250565b6000612ace601583611d4a565b9150612ad982612a98565b602082019050919050565b60006020820190508181036000830152612afd81612ac1565b9050919050565b7f4f6e6c79206661726d657227732070726f6475637473206d617920626520736f60008201527f6c64000000000000000000000000000000000000000000000000000000000000602082015250565b6000612b60602283611d4a565b9150612b6b82612b04565b604082019050919050565b60006020820190508181036000830152612b8f81612b53565b9050919050565b7f496e73756666696369656e742070726f6475636520746f2073656c6c00000000600082015250565b6000612bcc601c83611d4a565b9150612bd782612b96565b602082019050919050565b60006020820190508181036000830152612bfb81612bbf565b9050919050565b6000819050919050565b6000612c27612c22612c1d84612c02565b611c38565b611cb2565b9050919050565b612c3781612c0c565b82525050565b6000608082019050612c526000830187611dcf565b612c5f6020830186612c2e565b612c6c6040830185611c0e565b612c796060830184611dcf565b95945050505050565b612c8b81611efd565b8114612c9657600080fd5b50565b600081519050612ca881612c82565b92915050565b600060208284031215612cc457612cc3611b6f565b5b6000612cd284828501612c99565b91505092915050565b7f4e487b7100000000000000000000000000000000000000000000000000000000600052601160045260246000fd5b6000612d1582611cb2565b9150612d2083611cb2565b9250828203905081811115612d3857612d37612cdb565b5b92915050565b6000606082019050612d536000830186611c0e565b612d606020830185611cbc565b612d6d6040830184611cbc565b949350505050565b6000608082019050612d8a6000830187611dcf565b8181036020830152612d9c8186611d96565b90508181036040830152612db08185611d96565b90508181036060830152612dc48184611d96565b905095945050505050565b600081519050612dde816121e5565b92915050565b600060208284031215612dfa57612df9611b6f565b5b6000612e0884828501612dcf565b91505092915050565b6000606082019050612e266000830186611dcf565b612e336020830185612c2e565b612e406040830184611c0e565b949350505050565b6000606082019050612e5d6000830186611c0e565b8181036020830152612e6f8185611d96565b9050612e7e6040830184611cbc565b94935050505056fea26469706673582212203b22dbc121efb659148e7bb10c1cca585a45b36d20641457332e4f12eb86719364736f6c63430008180033",
  "linkReferences": {},
  "deployedLinkReferences": {}
}