{
  "_format": "hh-sol-artifact-1",
  "contractName": "ProduceTraceability",
  "sourceName": "contracts/supply chain/ProduceTraceability.sol",
  "abi": [
    {
      "inputs": [],
      "stateMutability": "nonpayable",
      "type": "constructor"
    },
    {
      "anonymous": false,
      "inputs": [
        {
          "indexed": false,
          "internalType": "string",
          "name": "name",
          "type": "string"
        },
        {
          "indexed": true,
          "internalType": "address",
          "name": "ethAddress",
          "type": "address"
        },
        {
          "indexed": false,
          "internalType": "uint256",
          "name": "blockNumber",
          "type": "uint256"
        }
      ],
      "name": "FarmerRegistered",
      "type": "event"
    },
    {
      "anonymous": false,
      "inputs": [
        {
          "indexed": true,
          "internalType": "address",
          "name": "ethAddress",
          "type": "address"
        },
        {
          "indexed": false,
          "internalType": "uint256",
          "name": "blockNumber",
          "type": "uint256"
        }
      ],
      "name": "FarmerVerified",
      "type": "event"
    },
    {
      "anonymous": false,
      "inputs": [
        {
          "indexed": false,
          "internalType": "string",
          "name": "produceName",
          "type": "string"
        },
        {
          "indexed": false,
          "internalType": "string",
          "name": "producer",
          "type": "string"
        },
        {
          "indexed": true,
          "internalType": "address",
          "name": "farmer",
          "type": "address"
        },
        {
          "indexed": false,
          "internalType": "uint256",
          "name": "blockNumber",
          "type": "uint256"
        }
      ],
      "name": "ProduceAdded",
      "type": "event"
    },
    {
      "anonymous": false,
      "inputs": [
        {
          "indexed": true,
          "internalType": "address",
          "name": "source",
          "type": "address"
        },
        {
          "indexed": false,
          "internalType": "string",
          "name": "product",
          "type": "string"
        },
        {
          "indexed": false,
          "internalType": "uint256",
          "name": "price",
          "type": "uint256"
        },
        {
          "indexed": false,
          "internalType": "uint256",
          "name": "blockNumber",
          "type": "uint256"
        }
      ],
      "name": "ProduceSold",
      "type": "event"
    },
    {
      "inputs": [
        {
          "internalType": "uint256",
          "name": "",
          "type": "uint256"
        }
      ],
      "name": "FarmProduces",
      "outputs": [
        {
          "internalType": "string",
          "name": "produceName",
          "type": "string"
        },
        {
          "internalType": "string",
          "name": "producer",
          "type": "string"
        },
        {
          "internalType": "string",
          "name": "quality",
          "type": "string"
        },
        {
          "internalType": "string",
          "name": "storageDuration",
          "type": "string"
        },
        {
          "internalType": "address",
          "name": "farmer",
          "type": "address"
        }
      ],
      "stateMutability": "view",
      "type": "function"
    },
    {
      "inputs": [
        {
          "internalType": "uint256",
          "name": "",
          "type": "uint256"
        }
      ],
      "name": "FarmerAddresses",
      "outputs": [
        {
          "internalType": "address",
          "name": "",
          "type": "address"
        }
      ],
      "stateMutability": "view",
      "type": "function"
    },
    {
      "inputs": [
        {
          "internalType": "uint256",
          "name": "",
          "type": "uint256"
        }
      ],
      "name": "ProduceSales",
      "outputs": [
        {
          "internalType": "uint256",
          "name": "index",
          "type": "uint256"
        },
        {
          "internalType": "address",
          "name": "source",
          "type": "address"
        },
        {
          "internalType": "string",
          "name": "name",
          "type": "string"
        },
        {
          "internalType": "string",
          "name": "farmer",
          "type": "string"
        },
        {
          "internalType": "uint256",
          "name": "price",
          "type": "uint256"
        },
        {
          "internalType": "uint256",
          "name": "quantity",
          "type": "uint256"
        }
      ],
      "stateMutability": "view",
      "type": "function"
    },
    {
      "inputs": [
        {
          "internalType": "string",
          "name": "_produceName",
          "type": "string"
        },
        {
          "internalType": "string",
          "name": "_producer",
          "type": "string"
        },
        {
          "internalType": "string",
          "name": "_quality",
          "type": "string"
        },
        {
          "internalType": "string",
          "name": "_storageDuration",
          "type": "string"
        },
        {
          "internalType": "address",
          "name": "_farmer",
          "type": "address"
        },
        {
          "internalType": "address[]",
          "name": "_agents",
          "type": "address[]"
        }
      ],
      "name": "addFarmProduce",
      "outputs": [],
      "stateMutability": "nonpayable",
      "type": "function"
    },
    {
      "inputs": [
        {
          "internalType": "address",
          "name": "",
          "type": "address"
        }
      ],
      "name": "farmers",
      "outputs": [
        {
          "internalType": "string",
          "name": "name",
          "type": "string"
        },
        {
          "internalType": "string",
          "name": "location",
          "type": "string"
        },
        {
          "internalType": "address",
          "name": "ethAddress",
          "type": "address"
        },
        {
          "internalType": "bool",
          "name": "isVerified",
          "type": "bool"
        }
      ],
      "stateMutability": "view",
      "type": "function"
    },
    {
      "inputs": [
        {
          "internalType": "address",
          "name": "_ethAddress",
          "type": "address"
        }
      ],
      "name": "getFarmer",
      "outputs": [
        {
          "internalType": "string",
          "name": "",
          "type": "string"
        },
        {
          "internalType": "string",
          "name": "",
          "type": "string"
        },
        {
          "internalType": "address",
          "name": "",
          "type": "address"
        },
        {
          "internalType": "bool",
          "name": "",
          "type": "bool"
        }
      ],
      "stateMutability": "view",
      "type": "function"
    },
    {
      "inputs": [],
      "name": "getFarmerCount",
      "outputs": [
        {
          "internalType": "uint256",
          "name": "",
          "type": "uint256"
        }
      ],
      "stateMutability": "view",
      "type": "function"
    },
    {
      "inputs": [
        {
          "internalType": "uint256",
          "name": "index",
          "type": "uint256"
        }
      ],
      "name": "getProduce",
      "outputs": [
        {
          "internalType": "string",
          "name": "",
          "type": "string"
        },
        {
          "internalType": "string",
          "name": "",
          "type": "string"
        },
        {
          "internalType": "string",
          "name": "",
          "type": "string"
        },
        {
          "internalType": "string",
          "name": "",
          "type": "string"
        },
        {
          "internalType": "address",
          "name": "",
          "type": "address"
        },
        {
          "internalType": "address[]",
          "name": "",
          "type": "address[]"
        }
      ],
      "stateMutability": "view",
      "type": "function"
    },
    {
      "inputs": [],
      "name": "getProduceCount",
      "outputs": [
        {
          "internalType": "uint256",
          "name": "",
          "type": "uint256"
        }
      ],
      "stateMutability": "view",
      "type": "function"
    },
    {
      "inputs": [
        {
          "internalType": "string",
          "name": "_produceName",
          "type": "string"
        }
      ],
      "name": "getProduceIndex",
      "outputs": [
        {
          "internalType": "uint256",
          "name": "",
          "type": "uint256"
        }
      ],
      "stateMutability": "view",
      "type": "function"
    },
    {
      "inputs": [
        {
          "internalType": "uint256",
          "name": "index",
          "type": "uint256"
        }
      ],
      "name": "getProduceSale",
      "outputs": [
        {
          "internalType": "uint256",
          "name": "",
          "type": "uint256"
        },
        {
          "internalType": "address",
          "name": "",
          "type": "address"
        },
        {
          "internalType": "string",
          "name": "",
          "type": "string"
        },
        {
          "internalType": "string",
          "name": "",
          "type": "string"
        },
        {
          "internalType": "uint256",
          "name": "",
          "type": "uint256"
        },
        {
          "internalType": "uint256",
          "name": "",
          "type": "uint256"
        }
      ],
      "stateMutability": "view",
      "type": "function"
    },
    {
      "inputs": [],
      "name": "getProduceSaleCount",
      "outputs": [
        {
          "internalType": "uint256",
          "name": "",
          "type": "uint256"
        }
      ],
      "stateMutability": "view",
      "type": "function"
    },
    {
      "inputs": [
        {
          "internalType": "uint256",
          "name": "index",
          "type": "uint256"
        }
      ],
      "name": "getProduceSaleIndex",
      "outputs": [
        {
          "internalType": "uint256",
          "name": "",
          "type": "uint256"
        }
      ],
      "stateMutability": "view",
      "type": "function"
    },
    {
      "inputs": [
        {
          "internalType": "address",
          "name": "",
          "type": "address"
        }
      ],
      "name": "isProduce",
      "outputs": [
        {
          "internalType": "bytes32",
          "name": "",
          "type": "bytes32"
        }
      ],
      "stateMutability": "view",
      "type": "function"
    },
    {
      "inputs": [
        {
          "internalType": "bytes32",
          "name": "",
          "type": "bytes32"
        }
      ],
      "name": "lookUpProd",
      "outputs": [
        {
          "internalType": "uint256",
          "name": "",
          "type": "uint256"
        }
      ],
      "stateMutability": "view",
      "type": "function"
    },
    {
      "inputs": [
        {
          "internalType": "uint256",
          "name": "",
          "type": "uint256"
        }
      ],
      "name": "lookUpSale",
      "outputs": [
        {
          "internalType": "uint256",
          "name": "",
          "type": "uint256"
        }
      ],
      "stateMutability": "view",
      "type": "function"
    },
    {
      "inputs": [],
      "name": "owner",
      "outputs": [
        {
          "internalType": "address",
          "name": "",
          "type": "address"
        }
      ],
      "stateMutability": "view",
      "type": "function"
    },
    {
      "inputs": [
        {
          "internalType": "string",
          "name": "_name",
          "type": "string"
        },
        {
          "internalType": "string",
          "name": "_location",
          "type": "string"
        },
        {
          "internalType": "address",
          "name": "_ethAddress",
          "type": "address"
        }
      ],
      "name": "registerFarmer",
      "outputs": [],
      "stateMutability": "nonpayable",
      "type": "function"
    },
    {
      "inputs": [
        {
          "internalType": "uint256",
          "name": "_index",
          "type": "uint256"
        },
        {
          "internalType": "string",
          "name": "_source",
          "type": "string"
        },
        {
          "internalType": "string",
          "name": "_name",
          "type": "string"
        },
        {
          "internalType": "uint256",
          "name": "_quantity",
          "type": "uint256"
        },
        {
          "internalType": "uint256",
          "name": "_price",
          "type": "uint256"
        },
        {
          "internalType": "address",
          "name": "_farmer",
          "type": "address"
        }
      ],
      "name": "sellFarmProduce",
      "outputs": [],
      "stateMutability": "nonpayable",
      "type": "function"
    },
    {
      "inputs": [
        {
          "internalType": "address",
          "name": "_ethAddress",
          "type": "address"
        }
      ],
      "name": "verifyFarmer",
      "outputs": [],
      "stateMutability": "nonpayable",
      "type": "function"
    }
  ],
  "bytecode": "0x608060405234801561001057600080fd5b5033600760006101000a81548173ffffffffffffffffffffffffffffffffffffffff021916908373ffffffffffffffffffffffffffffffffffffffff160217905550612ef1806100616000396000f3fe608060405234801561001057600080fd5b506004361061012c5760003560e01c806396d9c4ea116100ad578063d070377c11610071578063d070377c14610391578063d6633384146103af578063e149c4e3146103df578063e7609c161461040f578063f0a918d7146104425761012c565b806396d9c4ea146102db5780639c00cb651461030b578063a717f99d1461033b578063c4a8b5d514610357578063c4ba9c08146103755761012c565b80635c0b1acd116100f45780635c0b1acd1461020357806363a3cd881461021f5780638c09a573146102545780638da5cb5b146102895780638e0d02f6146102a75761012c565b80630afb1372146101315780631fac4fc914610161578063235db9f51461017f578063389b80661461019b578063401b2168146101d0575b600080fd5b61014b60048036038101906101469190611e79565b610472565b6040516101589190611ebf565b60405180910390f35b61016961048a565b6040516101769190611ef3565b60405180910390f35b61019960048036038101906101949190611e79565b610497565b005b6101b560048036038101906101b09190611f3a565b6106a2565b6040516101c7969594939291906120c4565b60405180910390f35b6101ea60048036038101906101e59190611e79565b610a20565b6040516101fa9493929190612163565b60405180910390f35b61021d600480360381019061021891906122eb565b610b8d565b005b61023960048036038101906102349190611f3a565b610d59565b60405161024b96959493929190612376565b60405180910390f35b61026e60048036038101906102699190611f3a565b610f39565b60405161028096959493929190612376565b60405180910390f35b6102916110b5565b60405161029e91906123e5565b60405180910390f35b6102c160048036038101906102bc9190611f3a565b6110db565b6040516102d2959493929190612400565b60405180910390f35b6102f560048036038101906102f0919061249b565b611361565b6040516103029190611ef3565b60405180910390f35b61032560048036038101906103209190611f3a565b611379565b60405161033291906123e5565b60405180910390f35b61035560048036038101906103509190612590565b6113b8565b005b61035f61170a565b60405161036c9190611ef3565b60405180910390f35b61038f600480360381019061038a91906126a9565b611717565b005b610399611a7b565b6040516103a69190611ef3565b60405180910390f35b6103c960048036038101906103c4919061276e565b611a88565b6040516103d69190611ef3565b60405180910390f35b6103f960048036038101906103f49190611f3a565b611acb565b6040516104069190611ef3565b60405180910390f35b61042960048036038101906104249190611e79565b611ae8565b6040516104399493929190612163565b60405180910390f35b61045c60048036038101906104579190611f3a565b611d48565b6040516104699190611ef3565b60405180910390f35b60026020528060005260406000206000915090505481565b6000600580549050905090565b600760009054906101000a900473ffffffffffffffffffffffffffffffffffffffff1673ffffffffffffffffffffffffffffffffffffffff163373ffffffffffffffffffffffffffffffffffffffff1614610527576040517f08c379a000000000000000000000000000000000000000000000000000000000815260040161051e90612829565b60405180910390fd5b600073ffffffffffffffffffffffffffffffffffffffff166000808373ffffffffffffffffffffffffffffffffffffffff1673ffffffffffffffffffffffffffffffffffffffff16815260200190815260200160002060020160009054906101000a900473ffffffffffffffffffffffffffffffffffffffff1673ffffffffffffffffffffffffffffffffffffffff16036105f7576040517f08c379a00000000000000000000000000000000000000000000000000000000081526004016105ee90612895565b60405180910390fd5b60016000808373ffffffffffffffffffffffffffffffffffffffff1673ffffffffffffffffffffffffffffffffffffffff16815260200190815260200160002060020160146101000a81548160ff0219169083151502179055508073ffffffffffffffffffffffffffffffffffffffff167fea8fb419111481ddf23f46f716977ce4313705081e37049fda136377a3a6a929436040516106979190611ef3565b60405180910390a250565b6060806060806000606060058054905087106106f3576040517f08c379a00000000000000000000000000000000000000000000000000000000081526004016106ea90612901565b60405180910390fd5b60006005888154811061070957610708612921565b5b90600052602060002090600602019050806000018160010182600201836003018460040160009054906101000a900473ffffffffffffffffffffffffffffffffffffffff168560050185805461075e9061297f565b80601f016020809104026020016040519081016040528092919081815260200182805461078a9061297f565b80156107d75780601f106107ac576101008083540402835291602001916107d7565b820191906000526020600020905b8154815290600101906020018083116107ba57829003601f168201915b505050505095508480546107ea9061297f565b80601f01602080910402602001604051908101604052809291908181526020018280546108169061297f565b80156108635780601f1061083857610100808354040283529160200191610863565b820191906000526020600020905b81548152906001019060200180831161084657829003601f168201915b505050505094508380546108769061297f565b80601f01602080910402602001604051908101604052809291908181526020018280546108a29061297f565b80156108ef5780601f106108c4576101008083540402835291602001916108ef565b820191906000526020600020905b8154815290600101906020018083116108d257829003601f168201915b505050505093508280546109029061297f565b80601f016020809104026020016040519081016040528092919081815260200182805461092e9061297f565b801561097b5780601f106109505761010080835404028352916020019161097b565b820191906000526020600020905b81548152906001019060200180831161095e57829003601f168201915b5050505050925080805480602002602001604051908101604052809291908181526020018280548015610a0357602002820191906000526020600020905b8160009054906101000a900473ffffffffffffffffffffffffffffffffffffffff1673ffffffffffffffffffffffffffffffffffffffff16815260200190600101908083116109b9575b505050505090509650965096509650965096505091939550919395565b6000602052806000526040600020600091509050806000018054610a439061297f565b80601f0160208091040260200160405190810160405280929190818152602001828054610a6f9061297f565b8015610abc5780601f10610a9157610100808354040283529160200191610abc565b820191906000526020600020905b815481529060010190602001808311610a9f57829003601f168201915b505050505090806001018054610ad19061297f565b80601f0160208091040260200160405190810160405280929190818152602001828054610afd9061297f565b8015610b4a5780601f10610b1f57610100808354040283529160200191610b4a565b820191906000526020600020905b815481529060010190602001808311610b2d57829003601f168201915b5050505050908060020160009054906101000a900473ffffffffffffffffffffffffffffffffffffffff16908060020160149054906101000a900460ff16905084565b600060405180608001604052808581526020018481526020018373ffffffffffffffffffffffffffffffffffffffff168152602001600015158152509050806000808473ffffffffffffffffffffffffffffffffffffffff1673ffffffffffffffffffffffffffffffffffffffff1681526020019081526020016000206000820151816000019081610c1f9190612b5c565b506020820151816001019081610c359190612b5c565b5060408201518160020160006101000a81548173ffffffffffffffffffffffffffffffffffffffff021916908373ffffffffffffffffffffffffffffffffffffffff16021790555060608201518160020160146101000a81548160ff0219169083151502179055509050506004829080600181540180825580915050600190039060005260206000200160009091909190916101000a81548173ffffffffffffffffffffffffffffffffffffffff021916908373ffffffffffffffffffffffffffffffffffffffff1602179055508173ffffffffffffffffffffffffffffffffffffffff167f410a9489a5427585a7b8116b854cd41394a92f728eba3846cf87d4ce923864328543604051610d4b929190612c2e565b60405180910390a250505050565b6000806060806000806006805490508710610da9576040517f08c379a0000000000000000000000000000000000000000000000000000000008152600401610da090612901565b60405180910390fd5b600060068881548110610dbf57610dbe612921565b5b9060005260206000209060060201905080600001548160010160009054906101000a900473ffffffffffffffffffffffffffffffffffffffff16826002018360030184600401548560050154838054610e179061297f565b80601f0160208091040260200160405190810160405280929190818152602001828054610e439061297f565b8015610e905780601f10610e6557610100808354040283529160200191610e90565b820191906000526020600020905b815481529060010190602001808311610e7357829003601f168201915b50505050509350828054610ea39061297f565b80601f0160208091040260200160405190810160405280929190818152602001828054610ecf9061297f565b8015610f1c5780601f10610ef157610100808354040283529160200191610f1c565b820191906000526020600020905b815481529060010190602001808311610eff57829003601f168201915b505050505092509650965096509650965096505091939550919395565b60068181548110610f4957600080fd5b90600052602060002090600602016000915090508060000154908060010160009054906101000a900473ffffffffffffffffffffffffffffffffffffffff1690806002018054610f989061297f565b80601f0160208091040260200160405190810160405280929190818152602001828054610fc49061297f565b80156110115780601f10610fe657610100808354040283529160200191611011565b820191906000526020600020905b815481529060010190602001808311610ff457829003601f168201915b5050505050908060030180546110269061297f565b80601f01602080910402602001604051908101604052809291908181526020018280546110529061297f565b801561109f5780601f106110745761010080835404028352916020019161109f565b820191906000526020600020905b81548152906001019060200180831161108257829003601f168201915b5050505050908060040154908060050154905086565b600760009054906101000a900473ffffffffffffffffffffffffffffffffffffffff1681565b600581815481106110eb57600080fd5b906000526020600020906006020160009150905080600001805461110e9061297f565b80601f016020809104026020016040519081016040528092919081815260200182805461113a9061297f565b80156111875780601f1061115c57610100808354040283529160200191611187565b820191906000526020600020905b81548152906001019060200180831161116a57829003601f168201915b50505050509080600101805461119c9061297f565b80601f01602080910402602001604051908101604052809291908181526020018280546111c89061297f565b80156112155780601f106111ea57610100808354040283529160200191611215565b820191906000526020600020905b8154815290600101906020018083116111f857829003601f168201915b50505050509080600201805461122a9061297f565b80601f01602080910402602001604051908101604052809291908181526020018280546112569061297f565b80156112a35780601f10611278576101008083540402835291602001916112a3565b820191906000526020600020905b81548152906001019060200180831161128657829003601f168201915b5050505050908060030180546112b89061297f565b80601f01602080910402602001604051908101604052809291908181526020018280546112e49061297f565b80156113315780601f1061130657610100808354040283529160200191611331565b820191906000526020600020905b81548152906001019060200180831161131457829003601f168201915b5050505050908060040160009054906101000a900473ffffffffffffffffffffffffffffffffffffffff16905085565b60016020528060005260406000206000915090505481565b6004818154811061138957600080fd5b906000526020600020016000915054906101000a900473ffffffffffffffffffffffffffffffffffffffff1681565b600760009054906101000a900473ffffffffffffffffffffffffffffffffffffffff1673ffffffffffffffffffffffffffffffffffffffff163373ffffffffffffffffffffffffffffffffffffffff1614611448576040517f08c379a000000000000000000000000000000000000000000000000000000000815260040161143f90612829565b60405180910390fd5b81600115156000808373ffffffffffffffffffffffffffffffffffffffff1673ffffffffffffffffffffffffffffffffffffffff16815260200190815260200160002060020160149054906101000a900460ff161515146114de576040517f08c379a00000000000000000000000000000000000000000000000000000000081526004016114d590612cd0565b60405180910390fd5b60006040518060c001604052808981526020018881526020018781526020018681526020018573ffffffffffffffffffffffffffffffffffffffff168152602001848152509050600581908060018154018082558091505060019003906000526020600020906006020160009091909190915060008201518160000190816115669190612b5c565b50602082015181600101908161157c9190612b5c565b5060408201518160020190816115929190612b5c565b5060608201518160030190816115a89190612b5c565b5060808201518160040160006101000a81548173ffffffffffffffffffffffffffffffffffffffff021916908373ffffffffffffffffffffffffffffffffffffffff16021790555060a082015181600501908051906020019061160c929190611d60565b5050506000600580549050905060008960405160200161162c9190612d2c565b6040516020818303038152906040528051906020012090506001826116519190612d72565b600160008381526020019081526020016000208190555080600260008873ffffffffffffffffffffffffffffffffffffffff1673ffffffffffffffffffffffffffffffffffffffff168152602001908152602001600020819055508573ffffffffffffffffffffffffffffffffffffffff167f9765b75a7f762466b7d1cf84a0a62f187328640026d05bed32887fcb0332d8378b8b436040516116f693929190612da6565b60405180910390a250505050505050505050565b6000600480549050905090565b600760009054906101000a900473ffffffffffffffffffffffffffffffffffffffff1673ffffffffffffffffffffffffffffffffffffffff163373ffffffffffffffffffffffffffffffffffffffff16146117a7576040517f08c379a000000000000000000000000000000000000000000000000000000000815260040161179e90612829565b60405180910390fd5b80600115156000808373ffffffffffffffffffffffffffffffffffffffff1673ffffffffffffffffffffffffffffffffffffffff16815260200190815260200160002060020160149054906101000a900460ff1615151461183d576040517f08c379a000000000000000000000000000000000000000000000000000000000815260040161183490612cd0565b60405180910390fd5b6000856040516020016118509190612d2c565b60405160208183030381529060405280519060200120905080600260008573ffffffffffffffffffffffffffffffffffffffff1673ffffffffffffffffffffffffffffffffffffffff16815260200190815260200160002054146118e9576040517f08c379a00000000000000000000000000000000000000000000000000000000081526004016118e090612e5d565b60405180910390fd5b60006040518060c001604052808a81526020018573ffffffffffffffffffffffffffffffffffffffff16815260200188815260200189815260200186815260200187815250905060068190806001815401808255809150506001900390600052602060002090600602016000909190919091506000820151816000015560208201518160010160006101000a81548173ffffffffffffffffffffffffffffffffffffffff021916908373ffffffffffffffffffffffffffffffffffffffff16021790555060408201518160020190816119c29190612b5c565b5060608201518160030190816119d89190612b5c565b506080820151816004015560a08201518160050155505060006006805490509050600181611a069190612d72565b600360008c8152602001908152602001600020819055508473ffffffffffffffffffffffffffffffffffffffff167f057b9e982134ce7055e67a84fbf3d39a06daa1e0057caa7c1bf6edd9aaa4c7ba898843604051611a6793929190612e7d565b60405180910390a250505050505050505050565b6000600680549050905090565b60006001600083604051602001611a9f9190612d2c565b604051602081830303815290604052805190602001208152602001908152602001600020549050919050565b600060036000838152602001908152602001600020549050919050565b6060806000806000808673ffffffffffffffffffffffffffffffffffffffff1673ffffffffffffffffffffffffffffffffffffffff1681526020019081526020016000206000016000808773ffffffffffffffffffffffffffffffffffffffff1673ffffffffffffffffffffffffffffffffffffffff1681526020019081526020016000206001016000808873ffffffffffffffffffffffffffffffffffffffff1673ffffffffffffffffffffffffffffffffffffffff16815260200190815260200160002060020160009054906101000a900473ffffffffffffffffffffffffffffffffffffffff166000808973ffffffffffffffffffffffffffffffffffffffff1673ffffffffffffffffffffffffffffffffffffffff16815260200190815260200160002060020160149054906101000a900460ff16838054611c2d9061297f565b80601f0160208091040260200160405190810160405280929190818152602001828054611c599061297f565b8015611ca65780601f10611c7b57610100808354040283529160200191611ca6565b820191906000526020600020905b815481529060010190602001808311611c8957829003601f168201915b50505050509350828054611cb99061297f565b80601f0160208091040260200160405190810160405280929190818152602001828054611ce59061297f565b8015611d325780601f10611d0757610100808354040283529160200191611d32565b820191906000526020600020905b815481529060010190602001808311611d1557829003601f168201915b5050505050925093509350935093509193509193565b60036020528060005260406000206000915090505481565b828054828255906000526020600020908101928215611dd9579160200282015b82811115611dd85782518260006101000a81548173ffffffffffffffffffffffffffffffffffffffff021916908373ffffffffffffffffffffffffffffffffffffffff16021790555091602001919060010190611d80565b5b509050611de69190611dea565b5090565b5b80821115611e03576000816000905550600101611deb565b5090565b6000604051905090565b600080fd5b600080fd5b600073ffffffffffffffffffffffffffffffffffffffff82169050919050565b6000611e4682611e1b565b9050919050565b611e5681611e3b565b8114611e6157600080fd5b50565b600081359050611e7381611e4d565b92915050565b600060208284031215611e8f57611e8e611e11565b5b6000611e9d84828501611e64565b91505092915050565b6000819050919050565b611eb981611ea6565b82525050565b6000602082019050611ed46000830184611eb0565b92915050565b6000819050919050565b611eed81611eda565b82525050565b6000602082019050611f086000830184611ee4565b92915050565b611f1781611eda565b8114611f2257600080fd5b50565b600081359050611f3481611f0e565b92915050565b600060208284031215611f5057611f4f611e11565b5b6000611f5e84828501611f25565b91505092915050565b600081519050919050565b600082825260208201905092915050565b60005b83811015611fa1578082015181840152602081019050611f86565b60008484015250505050565b6000601f19601f8301169050919050565b6000611fc982611f67565b611fd38185611f72565b9350611fe3818560208601611f83565b611fec81611fad565b840191505092915050565b61200081611e3b565b82525050565b600081519050919050565b600082825260208201905092915050565b6000819050602082019050919050565b61203b81611e3b565b82525050565b600061204d8383612032565b60208301905092915050565b6000602082019050919050565b600061207182612006565b61207b8185612011565b935061208683612022565b8060005b838110156120b757815161209e8882612041565b97506120a983612059565b92505060018101905061208a565b5085935050505092915050565b600060c08201905081810360008301526120de8189611fbe565b905081810360208301526120f28188611fbe565b905081810360408301526121068187611fbe565b9050818103606083015261211a8186611fbe565b90506121296080830185611ff7565b81810360a083015261213b8184612066565b9050979650505050505050565b60008115159050919050565b61215d81612148565b82525050565b6000608082019050818103600083015261217d8187611fbe565b905081810360208301526121918186611fbe565b90506121a06040830185611ff7565b6121ad6060830184612154565b95945050505050565b600080fd5b600080fd5b7f4e487b7100000000000000000000000000000000000000000000000000000000600052604160045260246000fd5b6121f882611fad565b810181811067ffffffffffffffff82111715612217576122166121c0565b5b80604052505050565b600061222a611e07565b905061223682826121ef565b919050565b600067ffffffffffffffff821115612256576122556121c0565b5b61225f82611fad565b9050602081019050919050565b82818337600083830152505050565b600061228e6122898461223b565b612220565b9050828152602081018484840111156122aa576122a96121bb565b5b6122b584828561226c565b509392505050565b600082601f8301126122d2576122d16121b6565b5b81356122e284826020860161227b565b91505092915050565b60008060006060848603121561230457612303611e11565b5b600084013567ffffffffffffffff81111561232257612321611e16565b5b61232e868287016122bd565b935050602084013567ffffffffffffffff81111561234f5761234e611e16565b5b61235b868287016122bd565b925050604061236c86828701611e64565b9150509250925092565b600060c08201905061238b6000830189611ee4565b6123986020830188611ff7565b81810360408301526123aa8187611fbe565b905081810360608301526123be8186611fbe565b90506123cd6080830185611ee4565b6123da60a0830184611ee4565b979650505050505050565b60006020820190506123fa6000830184611ff7565b92915050565b600060a082019050818103600083015261241a8188611fbe565b9050818103602083015261242e8187611fbe565b905081810360408301526124428186611fbe565b905081810360608301526124568185611fbe565b90506124656080830184611ff7565b9695505050505050565b61247881611ea6565b811461248357600080fd5b50565b6000813590506124958161246f565b92915050565b6000602082840312156124b1576124b0611e11565b5b60006124bf84828501612486565b91505092915050565b600067ffffffffffffffff8211156124e3576124e26121c0565b5b602082029050602081019050919050565b600080fd5b600061250c612507846124c8565b612220565b9050808382526020820190506020840283018581111561252f5761252e6124f4565b5b835b8181101561255857806125448882611e64565b845260208401935050602081019050612531565b5050509392505050565b600082601f830112612577576125766121b6565b5b81356125878482602086016124f9565b91505092915050565b60008060008060008060c087890312156125ad576125ac611e11565b5b600087013567ffffffffffffffff8111156125cb576125ca611e16565b5b6125d789828a016122bd565b965050602087013567ffffffffffffffff8111156125f8576125f7611e16565b5b61260489828a016122bd565b955050604087013567ffffffffffffffff81111561262557612624611e16565b5b61263189828a016122bd565b945050606087013567ffffffffffffffff81111561265257612651611e16565b5b61265e89828a016122bd565b935050608061266f89828a01611e64565b92505060a087013567ffffffffffffffff8111156126905761268f611e16565b5b61269c89828a01612562565b9150509295509295509295565b60008060008060008060c087890312156126c6576126c5611e11565b5b60006126d489828a01611f25565b965050602087013567ffffffffffffffff8111156126f5576126f4611e16565b5b61270189828a016122bd565b955050604087013567ffffffffffffffff81111561272257612721611e16565b5b61272e89828a016122bd565b945050606061273f89828a01611f25565b935050608061275089828a01611f25565b92505060a061276189828a01611e64565b9150509295509295509295565b60006020828403121561278457612783611e11565b5b600082013567ffffffffffffffff8111156127a2576127a1611e16565b5b6127ae848285016122bd565b91505092915050565b7f4f6e6c7920746865206f776e65722063616e20706572666f726d20746869732060008201527f616374696f6e0000000000000000000000000000000000000000000000000000602082015250565b6000612813602683611f72565b915061281e826127b7565b604082019050919050565b6000602082019050818103600083015261284281612806565b9050919050565b7f4661726d6572206e6f7420726567697374657265640000000000000000000000600082015250565b600061287f601583611f72565b915061288a82612849565b602082019050919050565b600060208201905081810360008301526128ae81612872565b9050919050565b7f496e76616c696420696e64657800000000000000000000000000000000000000600082015250565b60006128eb600d83611f72565b91506128f6826128b5565b602082019050919050565b6000602082019050818103600083015261291a816128de565b9050919050565b7f4e487b7100000000000000000000000000000000000000000000000000000000600052603260045260246000fd5b7f4e487b7100000000000000000000000000000000000000000000000000000000600052602260045260246000fd5b6000600282049050600182168061299757607f821691505b6020821081036129aa576129a9612950565b5b50919050565b60008190508160005260206000209050919050565b60006020601f8301049050919050565b600082821b905092915050565b600060088302612a127fffffffffffffffffffffffffffffffffffffffffffffffffffffffffffffffff826129d5565b612a1c86836129d5565b95508019841693508086168417925050509392505050565b6000819050919050565b6000612a59612a54612a4f84611eda565b612a34565b611eda565b9050919050565b6000819050919050565b612a7383612a3e565b612a87612a7f82612a60565b8484546129e2565b825550505050565b600090565b612a9c612a8f565b612aa7818484612a6a565b505050565b5b81811015612acb57612ac0600082612a94565b600181019050612aad565b5050565b601f821115612b1057612ae1816129b0565b612aea846129c5565b81016020851015612af9578190505b612b0d612b05856129c5565b830182612aac565b50505b505050565b600082821c905092915050565b6000612b3360001984600802612b15565b1980831691505092915050565b6000612b4c8383612b22565b9150826002028217905092915050565b612b6582611f67565b67ffffffffffffffff811115612b7e57612b7d6121c0565b5b612b88825461297f565b612b93828285612acf565b600060209050601f831160018114612bc65760008415612bb4578287015190505b612bbe8582612b40565b865550612c26565b601f198416612bd4866129b0565b60005b82811015612bfc57848901518255600182019150602085019450602081019050612bd7565b86831015612c195784890151612c15601f891682612b22565b8355505b6001600288020188555050505b505050505050565b60006040820190508181036000830152612c488185611fbe565b9050612c576020830184611ee4565b9392505050565b7f4f6e6c7920746865206661726d65722063616e2073656c6c207468697320707260008201527f6f64756374000000000000000000000000000000000000000000000000000000602082015250565b6000612cba602583611f72565b9150612cc582612c5e565b604082019050919050565b60006020820190508181036000830152612ce981612cad565b9050919050565b600081905092915050565b6000612d0682611f67565b612d108185612cf0565b9350612d20818560208601611f83565b80840191505092915050565b6000612d388284612cfb565b915081905092915050565b7f4e487b7100000000000000000000000000000000000000000000000000000000600052601160045260246000fd5b6000612d7d82611eda565b9150612d8883611eda565b9250828203905081811115612da057612d9f612d43565b5b92915050565b60006060820190508181036000830152612dc08186611fbe565b90508181036020830152612dd48185611fbe565b9050612de36040830184611ee4565b949350505050565b7f4f6e6c79206661726d657227732070726f6475637473206d617920626520736f60008201527f6c64000000000000000000000000000000000000000000000000000000000000602082015250565b6000612e47602283611f72565b9150612e5282612deb565b604082019050919050565b60006020820190508181036000830152612e7681612e3a565b9050919050565b60006060820190508181036000830152612e978186611fbe565b9050612ea66020830185611ee4565b612eb36040830184611ee4565b94935050505056fea264697066735822122015fe99acfb5f64972d6fd8c258735b0ca873f4cc6822705d571673e98a96509264736f6c63430008180033",
  "linkReferences": {},
  "deployedLinkReferences": {}
}